:0200000400708A
:1000000081400141814101428142014381430144D8
:1000100081440145814501468146014781470148A8
:10002000814801498149014A814A014B814B014C78
:10003000814C014D814D014E814E014F814FF9623E
:1000400073A002308542FE0263C3020001A0970242
:1000500000009382220473905230970191FF9381A4
:10006000617A170290FF1302D27D137202FC73258E
:1000700040F185456370B5001316150132921701E2
:1000800090FF130121786111EF00204DEF00400A2D
:100090006D7106C20AC40EC612C816CA1ACC1ECE8C
:1000A00022D026D22AD42ED632D836DA3ADC3EDE18
:1000B000C2C0C6C2CAC4CEC6D2C8D6CADACCDECE88
:1000C000E2D0E6D2EAD4EED6F2D8F6DAFADCFEDEF8
:1000D00073252034F32510340A86EF00A022731014
:1000E000153489629382028073A0023092402241CB
:1000F000B2414242D2426243F243025492542255E8
:10010000B2554256D2566257F2570648964826498B
:10011000B649464AD64A664BF64B065C965C265D67
:10012000B65D465ED65E665FF65F51617300203055
:10013000797106D622D400180145232EA4FC232A67
:10014000A4FE9129AD221305E007974091FFE780B7
:1001500060EB2315A4FE4165130505000325053F4B
:10016000938501C04146930604FE974091FFE780C6
:1001700080FEAA850325C4FD2315B4FE2328A4FE12
:100180002326A4FE6F0040008325C4FE3D45636D19
:10019000B5046F0040004165130505000325053FC8
:1001A0008325C4FE8A052E950C4123ACB1C803A556
:1001B00081C98325C4FE138601C08A05B2958C418E
:1001C000630BB5006F004000032504FF05052328DD
:1001D000A4FE6F0040006F0040000325C4FE05052B
:1001E0002326A4FE6FF05FFA6F004000032504FF92
:1001F00081456311B5026F00400039659305858321
:10020000C84D13650520C8CDC84D0566518DC8CDB4
:100210006F00A009396593058583C8417D769306F3
:10022000F67F758DC8C1C8417D16718DC8C1014565
:100230002326A4FE6F0040000325C4FE93556500ED
:1002400013052075636DB5006F0040006F0040001E
:100250000325C4FE05052326A4FE6FF0FFFD3965C6
:1002600093058583C841056693060680558DC8C1F0
:10027000C841518DC8C101452326A4FE6F0040002E
:100280000325C4FE9355650013052075636DB50005
:100290006F0040006F0040000325C4FE05052326C3
:1002A000A4FE6FF0FFFD6F0040006FF03FF44111BE
:1002B00006C622C4000873E0107C39651306058069
:1002C00008568566558D08D6396593058583884D12
:1002D0007D777D17798D88CD085693860680558D5C
:1002E00008D6C841558DC8C108561365052008D6E3
:1002F000884D1365052088CD73F0107C2244B240F0
:1003000041018280011106CE22CC0010232AA4FED6
:100310002328B4FE2326C4FE01456244F240056151
:100320008280411106C622C40008138501C8232A11
:10033000A4FE6F004000032544FF938501CA63714A
:10034000B5026F004000832544FF014588C16F005E
:100350004000032544FF1105232AA4FE6FF0BFFDD2
:100360002244B24041018280011106CE22CC00100D
:100370003705700013050577232AA4FE4165130590
:1003800005002328A4FE138501C42326A4FE6F00C4
:100390004000032504FF8325C4FE6378B5026F0087
:1003A0004000032544FF03050500832504FF238047
:1003B000A500032504FF05052328A4FE032544FF0B
:1003C0000505232AA4FE6FF0DFFC6244F2400561BC
:1003D0008280011106CE22CC001037157000130563
:1003E00005BB232AA4FE5165130505002328A4FE9E
:1003F0005565130505822326A4FE6F0040000325E2
:1004000004FF8325C4FE6378B5026F004000032516
:1004100044FF03050500832504FF2380A500032571
:1004200004FF05052328A4FE032544FF0505232A10
:10043000A4FE6FF0DFFC6244F2400561828001118E
:1004400006CE22CC0010371570001305053D232A77
:10045000A4FE130500002328A4FE13050000232694
:10046000A4FE6F004000032504FF8325C4FE6378CB
:10047000B5026F004000032544FF030505008325F6
:1004800004FF2380A500032504FF05052328A4FEFF
:10049000032544FF0505232AA4FE6FF0DFFC624418
:1004A000F24005618280011106CE22CC0010371582
:1004B00070001305053D232AA4FE0565130505807C
:1004C0002328A4FE0565130505802326A4FE6F00DE
:1004D0004000032504FF8325C4FE6378B5026F0046
:1004E0004000032544FF03050500832504FF238006
:1004F000A500032504FF05052328A4FE032544FFCA
:100500000505232AA4FE6FF0DFFC6244F24005617A
:100510008280411106C622C4000873E0107C396550
:10052000930505C013058006A8C173F0107C224412
:10053000B24041018280411106C622C4000873E026
:10054000107C3965930505C013058002A8C173F0BE
:10055000107C2244B24041018280411106C622C46F
:100560000008453F73E0107CB96503A505C6136517
:10057000150023A0A5C673F0107C6533F533913DBB
:100580007D3D1537974091FFE780C00B6D372244C2
:10059000B24041018280411106C622C400083128C0
:1005A000412A352829458D45974091FFE780E00B8A
:1005B0008D282244B24041018280411106C622C4E6
:1005C000000873E0107C3965930505C013058006AB
:1005D000A8C173F0107C2244B240410182804111D5
:1005E00006C622C4000873E0107C3965930505C077
:1005F000C8511375F5EFC8D1C8517999C8D1C85100
:100600000966518DC8D1C8511166518DC8D1C851E4
:1006100013650540C8D173F0107C2244B2404101FB
:100620008280411106C622C4000873E0107C39663E
:10063000930506C0094588CD032506C07199136549
:1006400025002320A6C088451365850088C58845F8
:100650001365250088C5C84913651500C8C9C84970
:1006600013652500C8C9C84913654500C8C9C849EC
:1006700013650510C8C9C84913650520C8C9C8490C
:1006800013650540C8C9C84513650510C8C5C845E8
:1006900013651500C8C5C84513652500C8C5C845FC
:1006A00013654500C8C5C84513658500C8C5C8455C
:1006B00013650501C8C5C84513650502C8C5C84509
:1006C00013650504C8C5C8490966518DC8C9884560
:1006D0001365150088C588451365050188C58845DB
:1006E0001365054088C588451365051088C588458C
:1006F0001365052088C588451166518D88C58849D0
:100700001365051088C988491365052088C9C8453F
:10071000518DC8C5C8452166518DC8C5884513652A
:10072000450088C573F0107C2244B24041018280AC
:1007300037457A00834515BF898985E973E0107CC8
:100740008325058E17D690FF1306C64B4CCE832506
:10075000458E0CD28325858E39662326B6C803259F
:10076000C58E2328A6C873F0107C828000F87A001A
:1007700000007000FF07700000087000FF0F70009D
:1007800000107000FF17700000187000FF1F70004D
:1007900000207000FF27700000287000FF2F7000FD
:1007A00000307000FF37700000387000FF3F7000AD
:1007B00000407000FF47700000487000FF4F70005D
:1007C00000507000FF57700000587000FF5F70000D
:1007D00000607000FF67700000687000FF6F7000BD
:1007E00000707000FF77700000787000FF7F70006D
:1007F00000807000FF87700000887000FF8F70001D
:1008000000907000FF97700000987000FF9F7000CC
:1008100000A07000FFA7700000A87000FFAF70007C
:1008200000B07000FFB7700000B87000FFBF70002C
:1008300000C07000FFC7700000C87000FFCF7000DC
:1008400000D07000FFD7700000D87000FFDF70008C
:1008500000E07000FFE7700000E87000FFEF70003C
:1008600000F07000FFF7700000F87000FFFF7000EC
:1008700000007100FF07710000087100FF0F710098
:1008800000107100FF17710000187100FF1F710048
:1008900000207100FF27710000287100FF2F7100F8
:1008A00000307100FF37710000387100FF3F7100A8
:1008B00000407100FF47710000487100FF4F710058
:1008C00000507100FF57710000587100FF5F710008
:1008D00000607100FF67710000687100FF6F7100B8
:1008E00000707100FF77710000787100FF7F710068
:1008F00000807100FF87710000887100FF8F710018
:1009000000907100FF97710000987100FF9F7100C7
:1009100000A07100FFA7710000A87100FFAF710077
:1009200000B07100FFB7710000B87100FFBF710027
:1009300000C07100FFC7710000C87100FFCF7100D7
:1009400000D07100FFD7710000D87100FFDF710087
:1009500000E07100FFE7710000E87100FFEF710037
:1009600000F07100FFF7710000F87100FFFF7100E7
:1009700000007200FF07720000087200FF0F720093
:1009800000107200FF17720000187200FF1F720043
:1009900000207200FF27720000287200FF2F7200F3
:1009A00000307200FF37720000387200FF3F7200A3
:1009B00000407200FF47720000487200FF4F720053
:1009C00000507200FF57720000587200FF5F720003
:1009D00000607200FF67720000687200FF6F7200B3
:1009E00000707200FF77720000787200FF7F720063
:1009F00000807200FF87720000887200FF8F720013
:100A000000907200FF97720000987200FF9F7200C2
:100A100000A07200FFA7720000A87200FFAF720072
:100A200000B07200FFB7720000B87200FFBF720022
:100A300000C07200FFC7720000C87200FFCF7200D2
:100A400000D07200FFD7720000D87200FFDF720082
:100A500000E07200FFE7720000E87200FFEF720032
:100A600000F07200FFF7720000F87200FFFF7200E2
:100A700000007300FF07730000087300FF0F73008E
:100A800000107300FF17730000187300FF1F73003E
:100A900000207300FF27730000287300FF2F7300EE
:100AA00000307300FF37730000387300FF3F73009E
:100AB00000407300FF47730000487300FF4F73004E
:100AC00000507300FF57730000587300FF5F7300FE
:100AD00000607300FF67730000687300FF6F7300AE
:100AE00000707300FF77730000787300FF7F73005E
:100AF00000807300FF87730000887300FF8F73000E
:100B000000907300FF97730000987300FF9F7300BD
:100B100000A07300FFA7730000A87300FFAF73006D
:100B200000B07300FFB7730000B87300FFBF73001D
:100B300000C07300FFC7730000C87300FFCF7300CD
:100B400000D07300FFD7730000D87300FFDF73007D
:100B500000E07300FFE7730000E87300FFEF73002D
:100B600000F07300FFF7730000F87300FFFF7300DD
:100B7000010000000200000003000000040000006B
:100B8000050000000600000007000000080000004B
:100B90000B0000000C0000000D0000000E00000023
:100BA0000F00000010000000000000000000000026
:100BB000011106CE22CC00102328A4FE032504FF39
:100BC000938501C815282317A4FE0355E4FE81452B
:100BD0006309B5006F0040000545231BA4FE6F00AC
:100BE000E0000145231BA4FE6F004000035564FF95
:100BF0006244F24005618280797106D622D40018E1
:100C00002328A4FE2326B4FE370570000325C576ED
:100C10000841058981456309B5006F0040002945F9
:100C2000231BA4FE6F00200D0145631CA5006F006F
:100C30004000032504FF930500086369B5006F00B9
:100C400040005145231BA4FE6F00E00A73E0107CB6
:100C5000370570000326C5769305E0202328B60AE1
:100C60000326C576B7152000938515B22322B60852
:100C70000326C57691452326B60A73F0107C73E0EF
:100C8000107C032604FF8325C57603A5050913768A
:100C9000F607137505F8518D23A8A50873F0107C8D
:100CA0006F004000370570000325C5760325450910
:100CB0000D81058981456306B5006F0040006FF026
:100CC0007FFE032584FE93050020130604FE6D2E8F
:100CD000231FA4FC0355E4FD81456309B5006F00A3
:100CE00040005945231BA4FE6F00E0000145231B73
:100CF000A4FE6F004000035564FF2254B2504561CA
:100D00008280011106CE22CC00102328A4FE2326C7
:100D1000B4FE2324C4FE2322D4FE032504FF83252E
:100D2000C4FE032684FE832644FE15282311A4FE58
:100D3000035524FE81456309B5006F004000054559
:100D4000231BA4FE6F00E0000145231BA4FE6F00DF
:100D50004000035564FF6244F240056182803971AE
:100D600006DE22DC80002328A4FE2326B4FE2324F2
:100D7000C4FE2322D4FE370570000325C576084142
:100D8000058981456309B5006F0040002945231B93
:100D9000A4FE6F00C01A032504FF832584FE1306FA
:100DA00004FD652281456309B5006F0040007D4563
:100DB000231BA4FE6F00A01873E0107C37057000A1
:100DC0000326C5768325860993E51500232CB608EE
:100DD0000326C5768565938555832320B6080326AB
:100DE000C5769305E0202328B60A0326C576930529
:100DF000B041232CB60A0326C576B715200093858B
:100E000015B22322B6088325C576114523A6A50A67
:100E100073F0107C01452320A4FE6F0040000325E1
:100E200004FE832584FE6370B50E6F0040006F00E2
:100E30004000370570000325C5760325450905895F
:100E4000054681452324C4FC6310B5086F004000AB
:100E5000370570000325C5760325450909810589F5
:100E6000054681452324C4FC6310B5066F0040008D
:100E7000370570000325C576032545090D810589D1
:100E8000054681452324C4FC6310B5046F0040006F
:100E9000370570000325C5760325450905810589B9
:100EA000054681452324C4FC6310B5026F00400051
:100EB000370570000325C57603254509118105898D
:100EC0002324A4FC6F004000032584FC0589814590
:100ED0006306B5006F0040006FF0BFF50325C4FE48
:100EE000832504FE1396250032950841832504FFCF
:100EF000B29588C16F004000032504FE050523203C
:100F0000A4FE6FF0DFF1032504FF8325C4FE032652
:100F100084FE930684FDF1202317A4FC0355E4FC12
:100F200081456319B5006F0040000145231BA4FEF5
:100F30006F00E0007945231BA4FE6F0040000355BD
:100F400064FF6254F25021618280011106CE22CCEE
:100F500000102328A4FE2326B4FE2324C4FE01454A
:100F60002320A4FE2322A4FE6F004000032544FE9C
:100F70008325C4FE6370B5046F004000032504FFA1
:100F8000832544FE8A052E950841FD55630BB50067
:100F90006F004000032504FE05052320A4FE6F001A
:100FA00040006F004000032544FE05052322A4FEF7
:100FB0006FF0DFFB032504FE81456319B5006F0068
:100FC00040000145231BA4FE6F00E0007D45231B6C
:100FD000A4FE6F004000035564FF6244F2400561C7
:100FE0008280797106D622D400182328A4FE2326F5
:100FF000B4FE2324C4FE2322D4FE0145232EA4FCE8
:101000002320A4FE6F004000032504FE832584FEF8
:101010006374B5046F0040000325C4FE832504FEFD
:101020001396250032950841832504FFB2958C4123
:10103000630BB5006F0040000325C4FD0505232E9A
:10104000A4FC6F0040006F004000032504FE05056E
:101050002320A4FE6FF05FFB0325C4FD81456319C7
:10106000B5006F0040000145231BA4FE6F00000186
:1010700013058002231BA4FE6F004000035564FF8C
:101080002254B25045618280011106CE22CC00105C
:101090002328A4FE2326B4FE2324C4FE01452320D6
:1010A000A4FE2322A4FE6F004000032544FE8325F6
:1010B000C4FE637FB5046F004000032504FF832551
:1010C00044FE8A05AA9537057E003D156369B50281
:1010D0006F004000032504FF832544FE8A052E95FA
:1010E0000841FD55630BB5006F004000032504FE69
:1010F00005052320A4FE6F0040006F0040006F0034
:101100004000032544FE05052322A4FE6FF0FFF9ED
:10111000032504FE81456319B5006F0040000145B9
:10112000231BA4FE6F00E0005945231BA4FE6F00A3
:101130004000035564FF6244F24005618280411122
:1011400006C622C400082328A4FE37057000032524
:10115000C5760841058981456309B5006F004000E7
:101160002945231BA4FE6F00E00773E0107C3705C0
:1011700070000326C5769305E0202328B60A0326CF
:10118000C5768D6593855590232AB60A0326C576C4
:10119000B7152000938515B22324B60873F0107C90
:1011A00073E0107C8325C57603A5C508136515007B
:1011B00023A6A50873F0107C6F004000370570006F
:1011C0000325C576032545091181058981456306F7
:1011D000B5006F0040006FF07FFE0145231BA4FEA9
:1011E0006F004000035564FF2244B24041018280F9
:1011F000411106C622C4000873E0107C37057B004D
:1012000093050580114523A6A50A73F0107C22449E
:10121000B24041018280411106C622C40008231B4E
:10122000A4FE231AB4FE3965130505C048411D818B
:101230000D8981456301B5026F00400073E0107CA9
:101240003965930505C0C8411375F5E7C8C173F04A
:10125000107C6F0040003965130505C008557D8975
:10126000835564FF6306B5046F00400073E0107C93
:10127000035664FF3965930505C088557D8A019939
:10128000518D88D573F0107C97C06E00E78020EEFA
:101290006F0040003965130505C048410589814547
:1012A0006316B5006F0040006FF0DFFE6F00400076
:1012B000035544FF8545630BB5006F00400003559F
:1012C00044FF89456316B5026F00400073E0107C4F
:1012D000035644FF3965930505C0C8410D8A1E06B3
:1012E0001375F5E7518DC8C173F0107C6F00400095
:1012F000035544FF8D45631FB5026F00400073E046
:10130000107C3965930505C02328B4FEC8411375C8
:10131000F5E713650510C8C1056513051576592055
:10132000832504FFC84113650518C8C173F0107CFC
:101330006F0040002244B24041018280411106C644
:1013400022C4000873E0107C37057B0093050580FC
:1013500003A5850A1365150023A4A50A114523A634
:10136000A50A05651305959D23A0A50813057027FB
:1013700023A8A50A1305D04E23ACA50A377526006D
:101380001305153C23A2A50823A4A5080D65130584
:10139000951323AAA50A73F0107C2244B2404101A0
:1013A0008280000031112EC8F325007C2EC6F32563
:1013B000003001000B002566010073900530B24536
:0A13C0007390057CC2455101828044
:02000004007387
:06FFE800B70070008280EA
:10FFF000FFFFFFFFFFFFFFFFFFFFFFFFFFFFFFFF11
:040000050070000087
:00000001FF
