:0200000400708A
:1000000081400141814101428142014381430144D8
:1000100081440145814501468146014781470148A8
:10002000814801498149014A814A014B814B014C78
:10003000814C014D814D014E814E014F814FF9623E
:1000400073A002308542FE0263C3020001A0970242
:1000500000009382220473905230970191FF9381A4
:10006000617A170290FF1302D27D137202FC73258E
:1000700040F185456370B5001316150132921701E2
:1000800090FF130121786111EF00C05EEF00400A7C
:100090006D7106C20AC40EC612C816CA1ACC1ECE8C
:1000A00022D026D22AD42ED632D836DA3ADC3EDE18
:1000B000C2C0C6C2CAC4CEC6D2C8D6CADACCDECE88
:1000C000E2D0E6D2EAD4EED6F2D8F6DAFADCFEDEF8
:1000D00073252034F32510340A86EF00E0337310C3
:1000E000153489629382028073A0023092402241CB
:1000F000B2414242D2426243F243025492542255E8
:10010000B2554256D2566257F2570648964826498B
:10011000B649464AD64A664BF64B065C965C265D67
:10012000B65D465ED65E665FF65F51617300203055
:10013000011106CE22CC00100145232AA4FEDD23A6
:10014000974091FFE780C000A52309651305055876
:100150006D28371570001305A58FA92C3715700071
:1001600013053592812C371570001305559399248A
:100170003715700013054594352C3715700013059D
:1001800065950D2C371570001305659825243715D6
:10019000700013055596392C6F0040003965130522
:1001A0000500085521817D899145631EB5046F00C6
:1001B00040000145A307A4FE6F0040008345F4FE04
:1001C0000D456348B5026F00400039651305050011
:1001D000484D0346F4FE930504FFB2952380A50025
:1001E0006F0040000305F4FE0505A307A4FE6FF0B1
:1001F000FFFC130504FF7D2A371570001305659871
:10020000552A6F0040006FF07FF9797106D622D42D
:100210000018232AA4FE81452328B4FE2326B4FE19
:100220002324B4FE2322B4FE2311B4FE3965130542
:1002300005C010557D8A2328C4FE50411D820D8AB9
:100240002326C4FE084D3D892324A4FE032584FEF5
:10025000630BB5006F004000032584FE06052324D0
:10026000A4FE6F00E00005452324A4FE6F004000BB
:100270000325C4FE232EA4FC89456362B5026F00EA
:1002800040000325C4FD8945630CB5026F004000A2
:100290000325C4FD8D456306B5046F008006032564
:1002A00004FFB725B700938505B03305B502098172
:1002B000832584FE3355B5022322A4FE6F0060041B
:1002C000032504FFB725B700938505B03305B502B4
:1002D0000581832584FE3355B5022322A4FE6F00D9
:1002E0004002032504FFB725B700938505B0330509
:1002F000B502832584FE3355B5022322A4FE6F0088
:100300004000032544FE832544FF8E053355B50286
:100310007D152311A4FE39658325050093F5F5F7B6
:100320002320B5008325050093F5F5FB2320B500B8
:100330008325050093F5F5FD2320B50083250500F1
:1003400093E575002320B50093050500C8411365AA
:100350002500C8C1C84113651500C8C1034534FE56
:1003600088C5034524FEC8C5C8512166518DC8D132
:10037000C8511166518DC8D1C8510966518DC8D177
:10038000C85113650504C8D18855518D88D5885545
:100390001365050488D5885501991365450088D5EE
:1003A0000145C8D5C84113650502C8C12254B250E1
:1003B00045618280411106C622C40008232AA4FE9A
:1003C0006F004000032544FF0305050081456301DC
:1003D000B5046F0040006F0040003965130505004B
:1003E00008491D81058981456316B5006F004000ED
:1003F0006FF0BFFE032544FF93051500232AB4FECA
:1004000003050500B9659385050088D16FF09FFB52
:100410002244B24041018280011106CE22CC00105C
:10042000232AA4FE2328B4FE2326C4FE01456244E9
:10043000F24005618280411106C622C40008416570
:1004400013050500232AA4FE6F004000032544FF86
:10045000C165938505006371B5026F004000832577
:1004600044FF014588C16F004000032544FF11058A
:10047000232AA4FE6FF09FFD2244B24041018280F6
:10048000011106CE22CC0010371570001305059916
:10049000232AA4FE4165130505002328A4FE416517
:1004A000130505002326A4FE6F004000032504FF6A
:1004B0008325C4FE6378B5026F004000032544FF26
:1004C00003050500832504FF2380A500032504FF01
:1004D00005052328A4FE032544FF0505232AA4FEC1
:1004E0006FF0DFFC6244F24005618280011106CEAC
:1004F00022CC00103715700013050599232AA4FE9D
:100500005165130505002328A4FE51651305051E3A
:100510002326A4FE6F004000032504FF8325C4FEAC
:100520006378B5026F004000032544FF0305050012
:10053000832504FF2380A500032504FF0505232848
:10054000A4FE032544FF0505232AA4FE6FF0DFFC6B
:100550006244F24005618280011106CE22CC001077
:1005600037157000130505B7232AA4FE13050000F4
:100570002328A4FE130500002326A4FE6F004000DC
:10058000032504FF8325C4FE6378B5026F00400095
:10059000032544FF03050500832504FF2380A500F0
:1005A000032504FF05052328A4FE032544FF0505B4
:1005B000232AA4FE6FF0DFFC6244F24005618280D2
:1005C000011106CE22CC001037157000130505B7B7
:1005D000232AA4FE0565130505802328A4FE0565CE
:1005E000130505802326A4FE6F004000032504FFA9
:1005F0008325C4FE6378B5026F004000032544FFE5
:1006000003050500832504FF2380A500032504FFBF
:1006100005052328A4FE032544FF0505232AA4FE7F
:100620006FF0DFFC6244F24005618280411106C632
:1006300022C4000873E0107C3965930505C01305DA
:100640008006A8C173F0107C2244B2404101828030
:10065000411106C622C4000873E0107C3965930579
:1006600005C013058002A8C173F0107C2244B2407B
:1006700041018280411106C622C40008453F73E053
:10068000107CB96503A505C61365150023A0A5C692
:1006900073F0107C4D33ED33913D7D3D1537974020
:1006A00091FFE78020966D372244B240410182805D
:1006B000411106C622C4000829202244B24041014B
:1006C0008280411106C622C4000873E0107C39659F
:1006D000930505808859370600F07D16718D88D9FD
:1006E000885937060020518D88D9C84D3706000338
:1006F000518DC8CDC841370600FD7D16718D370676
:100700000001518DC8C1C841370600F47D16718DB6
:1007100037060004518DC8C173F0107C2244B240EA
:1007200041018280411106C622C400083128412AB5
:10073000352829458D45974091FFE780008F8D280A
:100740002244B24041018280411106C622C4000801
:1007500073E0107C3965930505C013058006A8C1B8
:1007600073F0107C2244B24041018280411106C6E0
:1007700022C4000873E0107C3965930505C0C85198
:100780001375F5EFC8D1C8517999C8D1C851096618
:10079000518DC8D1C8511166518DC8D1C85113654A
:1007A0000540C8D173F0107C2244B24041018280E0
:1007B000411106C622C4000873E0107C3966930517
:1007C00006C0094588CD032506C07199136525002B
:1007D0002320A6C088451365850088C58845136514
:1007E000250088C5C84913651500C8C9C8491365DF
:1007F0002500C8C9C84913654500C8C9C84913655B
:100800000510C8C9C84913650520C8C9C84913657A
:100810000540C8C9C84513650510C8C5C845136556
:100820001500C8C5C84513652500C8C5C84513656A
:100830004500C8C5C84513658500C8C5C8451365CA
:100840000501C8C5C84513650502C8C5C845136577
:100850000504C8C5C8490966518DC8C988451365CE
:10086000150088C588451365050188C58845136549
:10087000054088C588451365051088C588451365FA
:10088000052088C588451166518D88C5884913653E
:10089000051088C988491365052088C9C845518D48
:1008A000C8C5C8452166518DC8C588451365450032
:1008B00088C573F0107C2244B240410182803745E4
:1008C0007A00834515BF898985E973E0107C83250B
:1008D000058E17D690FF1306E6324CCE8325458E43
:1008E0000CD28325858E39662326B6C80325C58E8E
:1008F0002328A6C873F0107C82802D2D2D2D2D2D40
:100900002D2D2D2D2D20736369206669666F20744F
:10091000657374202D2D2D2D2D2D2D2D2D2D2D2D4F
:100920000D0A004261756420526174653A203936BF
:1009300030300D0A004461746120426974733A20BA
:10094000380D0A005061726974793A202020206EB7
:100950006F6E650D0A0053746F7020426974733AAC
:1009600020310D0A00506C732073656E6420736F24
:100970006D65206D6573736167652C20286C6576E5
:09098000656C3A2034290D0A00CF
:10099000411106C622C4000873E0107C37057B00B5
:1009A00093050580114523A6A50A73F0107C224407
:1009B000B24041018280411106C622C40008231BB7
:1009C000A4FE231AB4FE3965130505C048411D81F4
:1009D0000D8981456301B5026F00400073E0107C12
:1009E0003965930505C0C8411375F5E7C8C173F0B3
:1009F000107C6F0040003965130505C008557D89DE
:100A0000835564FF6306B5046F00400073E0107CFB
:100A1000035664FF3965930505C088557D8A0199A1
:100A2000518D88D573F0107C97C06E00E780006B05
:100A30006F0040003965130505C0484105898145AF
:100A40006316B5006F0040006FF0DFFE6F004000DE
:100A5000035544FF8545630BB5006F004000035507
:100A600044FF89456316B5026F00400073E0107CB7
:100A7000035644FF3965930505C0C8410D8A1E061B
:100A80001375F5E7518DC8C173F0107C6F004000FD
:100A9000035544FF8D45631FB5026F00400073E0AE
:100AA000107C3965930505C02328B4FEC841137531
:100AB000F5E713650510C8C10565130515765920BE
:100AC000832504FFC84113650518C8C173F0107C65
:100AD0006F0040002244B24041018280411106C6AD
:100AE00022C4000873E0107C37057B009305058065
:100AF00003A5850A1365150023A4A50A114523A69D
:100B0000A50A05651305959D23A0A5081305702763
:100B100023A8A50A1305D04E23ACA50A37752600D5
:100B20001305153C23A2A50823A4A5080D651305EC
:100B3000951323AAA50A73F0107C2244B240410108
:100B40008280000031112EC8F325007C2EC6F325CB
:100B5000003001000B002566010073900530B2459E
:0A0B60007390057CC24551018280AC
:02000004007387
:06FFE800B70070008280EA
:10FFF000FFFFFFFFFFFFFFFFFFFFFFFFFFFFFFFF11
:040000050070000087
:00000001FF
