:0200000400708A
:1000000081400141814101428142014381430144D8
:1000100081440145814501468146014781470148A8
:10002000814801498149014A814A014B814B014C78
:10003000814C014D814D014E814E014F814FF9623E
:1000400073A002308542FE0263C3020001A0970242
:1000500000009382220473905230970191FF9381A4
:10006000617A170290FF1302D27D137202FC73258E
:1000700040F185456370B5001316150132921701E2
:1000800090FF130121786111EF00404DEF00400A0D
:100090006D7106C20AC40EC612C816CA1ACC1ECE8C
:1000A00022D026D22AD42ED632D836DA3ADC3EDE18
:1000B000C2C0C6C2CAC4CEC6D2C8D6CADACCDECE88
:1000C000E2D0E6D2EAD4EED6F2D8F6DAFADCFEDEF8
:1000D00073252034F32510340A86EF006022731054
:1000E000153489629382028073A0023092402241CB
:1000F000B2414242D2426243F243025492542255E8
:10010000B2554256D2566257F2570648964826498B
:10011000B649464AD64A664BF64B065C965C265D67
:10012000B65D465ED65E665FF65F51617300203055
:10013000411106C622C4000801452328A4FE232A33
:10014000A4FEEF00900C73700430EF00A07F032535
:1001500004FFB715100023A8A5C0B715100023A8E9
:10016000A5D0EF00F00201289928736004306F00D9
:1001700040006F000000411106C622C4000873E071
:10018000107C3965930505808845370600FD7D168E
:10019000718D88C588550566518D88D58845B70607
:1001A00040FFFD16758D88C5885513060680518D54
:1001B00088D573F0107C2244B24041018280411105
:1001C00006C622C40008C92E416513050501B705FE
:1001D000F0422328B4FE37067A449121832504FF98
:1001E00009651306058008469166232AD4FE558DBD
:1001F00008C608463D9908C641651305050237261D
:10020000F448130606402129032644FF0965930597
:10021000058188453D9988C58845518D88C573E01D
:10022000107C370570001305A5268965938505A008
:1002300088CD370570001305252B23A0A51873F072
:10024000107CB715100003A505C105660506518D84
:1002500023A8A5C009659305059088451365050485
:1002600088C52244B24041018280011106CE22CCD1
:100270002ACA2EC832C60010C1651386050048423E
:10028000050548C203850500136515002380A500F8
:1002900073E0107C0965930505900545C8C173F0AE
:1002A000107C3246C24552456244F24005617300FB
:1002B0002030011106CE22CC2ACA2EC832C6001028
:1002C000C165138685004842050548C2038585003F
:1002D000136515002384A50039659305858388512E
:1002E0000566518D88D1885113060680518D88D1BD
:1002F0003246C24552456244F240056173002030E7
:10030000011106CE22CC0010232AA4FE2328B4FE1D
:100310002326C4FE01456244F240056182804111FA
:1003200006C622C40008416513050500232AA4FE61
:100330006F004000032544FFC16593850504637188
:10034000B5026F004000832544FF014588C16F005E
:100350004000032544FF1105232AA4FE6FF09FFDF2
:100360002244B24041018280011106CE22CC00100D
:1003700037157000130505EA232AA4FE416513050D
:1003800005002328A4FE4165130505002326A4FECD
:100390006F004000032504FF8325C4FE6378B50287
:1003A0006F004000032544FF03050500832504FF7B
:1003B0002380A500032504FF05052328A4FE0325AB
:1003C00044FF0505232AA4FE6FF0DFFC6244F240DF
:1003D00005618280011106CE22CC00103715700015
:1003E000130505EA232AA4FE5165130505002328F9
:1003F000A4FE51651305051E2326A4FE6F004000D0
:10040000032504FF8325C4FE6378B5026F00400016
:10041000032544FF03050500832504FF2380A50071
:10042000032504FF05052328A4FE032544FF050535
:10043000232AA4FE6FF0DFFC6244F2400561828053
:10044000011106CE22CC00103715700013050508E7
:10045000232AA4FE130500002328A4FE1305000090
:100460002326A4FE6F004000032504FF8325C4FE5D
:100470006378B5026F004000032544FF03050500C3
:10048000832504FF2380A500032504FF05052328F9
:10049000A4FE032544FF0505232AA4FE6FF0DFFC1C
:1004A0006244F24005618280011106CE22CC001028
:1004B0003715700013050508232AA4FE05651305EA
:1004C00005802328A4FE0565130505802326A4FEC8
:1004D0006F004000032504FF8325C4FE6378B50246
:1004E0006F004000032544FF03050500832504FF3A
:1004F0002380A500032504FF05052328A4FE03256A
:1005000044FF0505232AA4FE6FF0DFFC6244F2409D
:1005100005618280411106C622C4000873E0107C88
:100520003965930505C013058006A8C173F0107CDA
:100530002244B24041018280411106C622C4000813
:1005400073E0107C3965930505C013058002A8C1CE
:1005500073F0107C2244B24041018280411106C6F2
:1005600022C40008453F73E0107CB96503A505C6A9
:100570001365150023A0A5C673F0107C4D33ED3331
:10058000913D7D3D1537974091FFE780A0A76D37DE
:100590002244B24041018280411106C622C40008B3
:1005A000096513070580C16523A8E500FD5654C3FE
:1005B000014548C710471366060110C71047136668
:1005C000060210C793850501C8C189659387058117
:1005D00041662320F602896513870582C16523A839
:1005E000E502D4C354C3C8C748C7944793E606017D
:1005F00094C7144793E6060114C7944793E606028E
:1006000094C7144793E6060214C71306060248C2AD
:1006100093850503C8C12244B24041018280011183
:1006200006CE22CC0010232AA4FE2328B4FE2326C3
:10063000C4FE032504FF832544FF88C50325C4FEAB
:10064000832544FFC8C5032504FF8325C4FE992BD9
:1006500011252324A4FE032584FE832544FF8C4119
:10066000C8C1032544FF0C410145C8C5832544FF8B
:1006700090410C4693E505010CC6832544FF90414B
:100680000C4693E505020CC6832544FF90410C46B9
:100690009166D58D0CC6832544FFC8C16244F240E3
:1006A00005618280411106C622C400086F00400027
:1006B0006F000000411106C622C400086F00400010
:1006C0006F000000411106C622C400086F00400000
:1006D0006F000000411106C622C400086F004000F0
:1006E0006F000000411106C622C400086F004000E0
:1006F0006F000000411106C622C400086F004000D0
:100700006F000000411106C622C400086F004000BF
:100710006F000000411106C622C400086F004000AF
:100720006F000000411106C622C400086F0040009F
:100730006F000000411106C622C400086F0040008F
:100740006F000000411106C622C400086F0040007F
:100750006F000000411106C622C400086F0040006F
:100760006F000000411106C622C400086F0040005F
:100770006F000000411106C622C400086F0040004F
:100780006F000000411106C622C400086F0040003F
:100790006F000000411106C622C400086F0040002F
:1007A0006F000000411106C622C400086F0040001F
:1007B0006F000000411106C622C400086F0040000F
:1007C0006F000000411106C622C400086F004000FF
:1007D0006F000000411106C622C400086F004000EF
:1007E0006F000000411106C622C400086F004000DF
:1007F0006F000000411106C622C400086F004000CF
:100800006F000000411106C622C400086F004000BE
:100810006F000000411106C622C400086F004000AE
:100820006F000000411106C622C400086F0040009E
:100830006F000000411106C622C400086F0040008E
:100840006F000000411106C622C400086F0040007E
:100850006F000000411106C622C400086F0040006E
:100860006F000000411106C622C400086F0040005E
:100870006F000000411106C622C400086F0040004E
:100880006F000000411106C622C400086F0040003E
:100890006F000000411106C622C400086F0040002E
:1008A0006F000000411106C622C400086F0040001E
:1008B0006F000000411106C622C400086F0040000E
:1008C0006F000000411106C622C400086F004000FE
:1008D0006F000000411106C622C400086F004000EE
:1008E0006F000000411106C622C400086F004000DE
:1008F0006F000000411106C622C400086F004000CE
:100900006F000000411106C622C400086F004000BD
:100910006F000000411106C622C400086F004000AD
:100920006F000000411106C622C400086F0040009D
:100930006F000000411106C622C400086F0040008D
:100940006F000000411106C622C400087370043015
:10095000096593050590014588C588C988CD88D16A
:1009600088D588D988DDA8C1A8C5A8C9A8CDA8D12F
:10097000C8C5C8C9C8CDC8D1C8D5C8D9C8DDE8C19F
:10098000E8C5E8C9E8CDE8D12244B24041018280FF
:10099000011106CE22CC0010371570001305C5CD0D
:1009A0002328A4FE0965130505A02326A4FE73E0F1
:1009B000107C0145231BA4FE6F004000831564FFDB
:1009C0001305F006634BB5026F004000032504FFDA
:1009D000930545002328B4FE08418325C4FE1386F1
:1009E00045002326C4FE88C16F004000031564FF44
:1009F0000505231BA4FE6FF07FFC73F0107C736071
:100A000004306244F24005618280411106C622C46E
:100A1000000831286924352829458D45973091FFF4
:100A2000E780A0608D282244B240410182804111BC
:100A300006C622C4000873E0107C3965930505C022
:100A400013058006A8C173F0107C2244B240410116
:100A50008280411106C622C4000873E0107C39650B
:100A6000930505C0C8511375F5EFC8D1C8517999E0
:100A7000C8D1C8510966518DC8D1C8511166518D70
:100A8000C8D1C85113650540C8D173F0107C224409
:100A9000B24041018280411106C622C4000873E0C1
:100AA000107C3966930506C0094588CD032506C02C
:100AB0007199136525002320A6C08845136585001C
:100AC00088C588451365250088C5C8491365150084
:100AD000C8C9C84913652500C8C9C8491365450078
:100AE000C8C9C84913650510C8C9C8491365052098
:100AF000C8C9C84913650540C8C9C845136505106C
:100B0000C8C5C84513651500C8C5C8451365250087
:100B1000C8C5C84513654500C8C5C84513658500E7
:100B2000C8C5C84513650501C8C5C8451365050294
:100B3000C8C5C84513650504C8C5C8490966518DAF
:100B4000C8C988451365150088C588451365050122
:100B500088C588451365054088C588451365051017
:100B600088C588451365052088C588451166518D5F
:100B700088C588491365051088C98849136505200B
:100B800088C9C845518DC8C5C8452166518DC8C59D
:100B900088451365450088C573F0107C2244B24037
:100BA00041018280370700809302F00FB347B50000
:100BB000F98F13161500618293961500E18229CEF4
:100BC000BDC6630F56046389560636962205598DB5
:100BD000A205D98DB306B5023335B502B336D000C0
:100BE000558D6344050006057D16130616F8634807
:100BF0000604FD12635F56009316850121815E068F
:100C0000329563D606000505860691E279995D8DD9
:100C100082803705807FE5BF638D56003E858280E8
:100C2000260501E9E39756FEA60581E5DDB7E31742
:100C300056FE3705C07F8280A605E5FDD9BF0506B3
:100C400071FE2185930215000905E39902FC370521
:100C5000800075BF9357F541131615009355860113
:100C6000938515F863CF0500B70600807D470D8F8B
:100C7000635BE0002205558D3355E5003D8D1D8DEC
:100C800082800145828013C7F6FFB70500FF63F33A
:100C9000C500798D758D634305003A85828037459F
:100CA0007A00834515BF898985E973E0107C832527
:100CB000058E17D690FF1306E6F44CCE8325458E9D
:100CC0000CD28325858E39662326B6C80325C58EAA
:100CD0002328A6C873F0107C82800000A406700050
:100CE000B406700014097000C4067000D4067000C9
:100CF000E4067000F406700004077000140770002A
:100D00002407700034077000440770001409700055
:100D10001409700014097000140970005407700061
:100D20006407700074077000840770001409700075
:100D30001409700014097000140970009407700001
:100D400094077000140970001409700014097000F1
:100D5000140970001409700014097000A4077000D1
:100D6000140970001409700014097000140970004F
:100D7000140970001409700014097000B4077000A1
:100D8000C407700014097000140970001409700081
:100D9000140970001409700014097000D407700061
:100DA000E4077000F4077000040870001408700075
:100DB00024087000140970001409700034087000D1
:100DC00014097000140970001409700014097000EF
:100DD00014097000140970001409700044087000B0
:100DE0005408700064087000740870008408700073
:100DF0009408700014097000140970001409700040
:100E000014097000A4087000B4087000C4087000D1
:100E1000D4087000E4087000F40870001409700031
:100E2000140970001409700014097000140970008E
:100E3000140970001409700014097000040970008E
:100E4000140970001409700014097000140970006E
:100E5000140970001409700014097000240970004E
:100E6000140970001409700014097000140970004E
:100E7000140970001409700014097000340970001E
:100E8000140970001409700014097000140970002E
:0C0E9000140970001409700014097000AF
:100EA000411106C622C4000873E0107C37057B00A0
:100EB00093050580114523A6A50A73F0107C2244F2
:100EC000B24041018280411106C622C40008231BA2
:100ED000A4FE231AB4FE3965130505C048411D81DF
:100EE0000D8981456301B5026F00400073E0107CFD
:100EF0003965930505C0C8411375F5E7C8C173F09E
:100F0000107C6F0040003965130505C008557D89C8
:100F1000835564FF6306B5046F00400073E0107CE6
:100F2000035664FF3965930505C088557D8A01998C
:100F3000518D88D573F0107C97D06E00E780609952
:100F40006F0040003965130505C04841058981459A
:100F50006316B5006F0040006FF0DFFE6F004000C9
:100F6000035544FF8545630BB5006F0040000355F2
:100F700044FF89456316B5026F00400073E0107CA2
:100F8000035644FF3965930505C0C8410D8A1E0606
:100F90001375F5E7518DC8C173F0107C6F004000E8
:100FA000035544FF8D45631FB5026F00400073E099
:100FB000107C3965930505C02328B4FEC84113751C
:100FC000F5E713650510C8C10565130515765920A9
:100FD000832504FFC84113650518C8C173F0107C50
:100FE0006F0040002244B24041018280411106C698
:100FF00022C4000873E0107C37057B009305058050
:1010000003A5850A1365150023A4A50A114523A687
:10101000A50A05651305959D23A0A508130570274E
:1010200023A8A50A1305D04E23ACA50A37752600C0
:101030001305153C23A2A50823A4A5080D651305D7
:10104000951323AAA50A73F0107C2244B2404101F3
:101050008280000031112EC8F325007C2EC6F325B6
:10106000003001000B002566010073900530B24589
:0A1070007390057CC2455101828097
:02000004007387
:06FFE800B70070008280EA
:10FFF000FFFFFFFFFFFFFFFFFFFFFFFFFFFFFFFF11
:040000050070000087
:00000001FF
