:0200000400708A
:1000000081400141814101428142014381430144D8
:1000100081440145814501468146014781470148A8
:10002000814801498149014A814A014B814B014C78
:10003000814C014D814D014E814E014F814FF9623E
:1000400073A002308542FE0263C3020001A0970242
:1000500000009382220473905230970191FF9381A4
:10006000617A170290FF1302D27D137202FC73258E
:1000700040F185456370B5001316150132921701E2
:1000800090FF130121786111EF00E06AEF00A00AF0
:100090006D7106C20AC40EC612C816CA1ACC1ECE8C
:1000A00022D026D22AD42ED632D836DA3ADC3EDE18
:1000B000C2C0C6C2CAC4CEC6D2C8D6CADACCDECE88
:1000C000E2D0E6D2EAD4EED6F2D8F6DAFADCFEDEF8
:1000D00073252034F32510340A86EF000040731096
:1000E000153489629382028073A0023092402241CB
:1000F000B2414242D2426243F243025492542255E8
:10010000B2554256D2566257F2570648964826498B
:10011000B649464AD64A664BF64B065C965C265D67
:10012000B65D465ED65E665FF65F51617300203055
:10013000732045308280411106C622C40008014563
:100140002328A4FE232AA4FEEF005020974091FF0D
:10015000E7800000EF00501873700430EF00700B60
:10016000032504FFB715100023A8A5C0B71510007C
:1001700023A8A5D0EF00B00E096513050558A920E6
:100180007360043037157000130525D2112437151C
:1001900070001305C5D4ED2A371570001305E5D599
:1001A000C52A371570001305D5D6DD223715700026
:1001B0001305F5D7F12A37157000130595D4C92A10
:1001C0006F0040006F000000797106D622D400183D
:1001D000232AA4FE81452328B4FE2326B4FE23242B
:1001E000B4FE2322B4FE2311B4FE3965130505C005
:1001F00010557D8A2328C4FE50411D820D8A232676
:10020000C4FE084D3D892324A4FE032584FE630B10
:10021000B5006F004000032584FE06052324A4FEDC
:100220006F00E00005452324A4FE6F004000032575
:10023000C4FE232EA4FC89456362B5026F00400012
:100240000325C4FD8945630CB5026F0040000325FA
:10025000C4FD8D456306B5046F008006032504FFC9
:10026000B725B700938505B03305B502098183250D
:1002700084FE3355B5022322A4FE6F0060040325DB
:1002800004FFB725B700938505B03305B502058196
:10029000832584FE3355B5022322A4FE6F0040025D
:1002A000032504FFB725B700938505B03305B502D4
:1002B000832584FE3355B5022322A4FE6F0040003F
:1002C000032544FE832544FF8E053355B5027D1575
:1002D0002311A4FE39658325050093F5F5F7232046
:1002E000B5008325050093F5F5FB2320B500832594
:1002F000050093F5F5FD2320B5008325050093E562
:1003000075002320B50093050500232CB4FCC841DB
:1003100013652500C8C1C84113651500C8C1034550
:1003200034FE88C5034524FEC8C5884913651500F9
:1003300088C988491365250088C973E0107C370592
:1003400070001305453F8965938505A023A0A5107E
:10035000370570001305654723A2A51073F0107CC4
:10036000096593050590A84513651500A8C5A8451E
:1003700013652500A8C5130500105D3B832584FD8A
:10038000C84113650502C8C12254B250456182803C
:10039000411106C622C40008232AA4FE6F004000B3
:1003A000032544FF0305050081456301B5046F0083
:1003B00040006F00400039651305050008491D81A4
:1003C000058981456316B5006F0040006FF0BFFEE0
:1003D000032544FF93051500232AB4FE03050500F9
:1003E000B9659385050088D16FF09FFB2244B24028
:1003F000410182805D7186C696C49AC29EC022DE8B
:100400002ADC2EDA32D836D63AD43ED242D046CE84
:1004100072CC76CA7AC87EC6800839651305050095
:1004200008491D81058981456303B5026F004000BD
:10043000396513050500484D1375F50F85200965CD
:100440009305059013050010C8C16F004000B24F1E
:10045000424FD24E624EF248025892572257B2563D
:100460004256D2556255725486431643A642B64050
:10047000616173002030411106C622C42AC22EC019
:10048000000809659305059013050010C8C1824551
:1004900012452244B240410173002030411106C68A
:1004A00022C40008A30BA4FE6F00400039651305A9
:1004B000050008491D81058981456316B5006F0057
:1004C00040006FF0BFFE034574FFB96593850500DA
:1004D00088D12244B24041018280011106CE22CC53
:1004E0000010232AA4FE2328B4FE2326C4FE0145BF
:1004F0006244F24005618280411106C622C40008B0
:10050000416513050500232AA4FE6F004000032562
:1005100044FFC165938505006371B5026F0040001B
:10052000832544FF014588C16F004000032544FF37
:100530001105232AA4FE6FF09FFD2244B240410121
:100540008280011106CE22CC0010371570001305F1
:1005500005F5232AA4FE4165130505002328A4FE02
:100560004165130505002326A4FE6F004000032506
:1005700004FF8325C4FE6378B5026F0040000325A5
:1005800044FF03050500832504FF2380A500032500
:1005900004FF05052328A4FE032544FF0505232A9F
:1005A000A4FE6FF0DFFC6244F2400561828001111D
:1005B00006CE22CC001037157000130505F5232A4E
:1005C000A4FE5165130505002328A4FE51651305FB
:1005D000051E2326A4FE6F004000032504FF83258B
:1005E000C4FE6378B5026F004000032544FF030595
:1005F0000500832504FF2380A500032504FF0505CE
:100600002328A4FE032544FF0505232AA4FE6FF03A
:10061000DFFC6244F24005618280011106CE22CCEB
:1006200000103715700013050513232AA4FE1305C7
:1006300000002328A4FE130500002326A4FE6F005B
:100640004000032504FF8325C4FE6378B5026F00D4
:100650004000032544FF03050500832504FF238094
:10066000A500032504FF05052328A4FE032544FF58
:100670000505232AA4FE6FF0DFFC6244F240056109
:100680008280011106CE22CC0010371570001305B0
:100690000513232AA4FE0565130505802328A4FE5F
:1006A0000565130505802326A4FE6F004000032581
:1006B00004FF8325C4FE6378B5026F004000032564
:1006C00044FF03050500832504FF2380A5000325BF
:1006D00004FF05052328A4FE032544FF0505232A5E
:1006E000A4FE6FF0DFFC6244F2400561828041119C
:1006F00006C622C4000873E0107C3965930505C066
:1007000013058006A8C173F0107C2244B240410159
:100710008280411106C622C4000873E0107C39654E
:10072000930505C013058002A8C173F0107C224414
:10073000B24041018280411106C622C40008453FF3
:1007400073E0107CB96503A505C61365150023A0E9
:10075000A5C673F0107C4D33ED33913D7D3D1537CB
:10076000974091FFE780008A6D372244B2404101F3
:100770008280411106C622C400086F0040006F004D
:100780000000411106C622C400086F0040006F003F
:100790000000411106C622C400086F0040006F002F
:1007A0000000411106C622C400086F0040006F001F
:1007B0000000411106C622C400086F0040006F000F
:1007C0000000411106C622C400086F0040006F00FF
:1007D0000000411106C622C400086F0040006F00EF
:1007E0000000411106C622C400086F0040006F00DF
:1007F0000000411106C622C400086F0040006F00CF
:100800000000411106C622C400086F0040006F00BE
:100810000000411106C622C400086F0040006F00AE
:100820000000411106C622C400086F0040006F009E
:100830000000411106C622C400086F0040006F008E
:100840000000411106C622C400086F0040006F007E
:100850000000411106C622C400086F0040006F006E
:100860000000411106C622C400086F0040006F005E
:100870000000411106C622C400086F0040006F004E
:100880000000411106C622C400086F0040006F003E
:100890000000411106C622C400086F0040006F002E
:1008A0000000411106C622C400086F0040006F001E
:1008B0000000411106C622C400086F0040006F000E
:1008C0000000411106C622C400086F0040006F00FE
:1008D0000000411106C622C400086F0040006F00EE
:1008E0000000411106C622C400086F0040006F00DE
:1008F0000000411106C622C400086F0040006F00CE
:100900000000411106C622C400086F0040006F00BD
:100910000000411106C622C400086F0040006F00AD
:100920000000411106C622C400086F0040006F009D
:100930000000411106C622C400086F0040006F008D
:100940000000411106C622C400086F0040006F007D
:100950000000411106C622C400086F0040006F006D
:100960000000411106C622C400086F0040006F005D
:100970000000411106C622C400086F0040006F004D
:100980000000411106C622C400086F0040006F003D
:100990000000411106C622C400086F0040006F002D
:1009A0000000411106C622C400086F0040006F001D
:1009B0000000411106C622C400086F0040006F000D
:1009C0000000411106C622C400086F0040006F00FD
:1009D0000000411106C622C400086F0040006F00ED
:1009E0000000411106C622C400086F0040006F00DD
:1009F0000000411106C622C400086F0040006F00CD
:100A00000000411106C622C400086F0040006F00BC
:100A10000000411106C622C4000873700430096545
:100A200093050590014588C588C988CD88D188D5AA
:100A300088D988DDA8C1A8C5A8C9A8CDA8D1C8C52E
:100A4000C8C9C8CDC8D1C8D5C8D9C8DDE8C1E8C5AE
:100A5000E8C9E8CDE8D12244B240410182800111C9
:100A600006CE22CC001037157000130505D92328B7
:100A7000A4FE0965130505A02326A4FE73E0107CDF
:100A80000145231BA4FE6F004000831564FF13057E
:100A9000F006634BB5026F004000032504FF930589
:100AA00045002328B4FE08418325C4FE1386450073
:100AB0002326C4FE88C16F004000031564FF0505AE
:100AC000231BA4FE6FF07FFC73F0107C7360043076
:100AD0006244F24005618280411106C622C40008CA
:100AE00029202244B24041018280411106C622C41D
:100AF000000873E0107C3965930505808859370636
:100B000000F07D16718D88D9885937060020518DE7
:100B100088D9C84D37060003518DC8CDC841370666
:100B200000FD7D16718D37060001518DC8C1C84189
:100B3000370600F47D16718D37060004518DC8C14B
:100B400073F0107C2244B24041018280411106C6FC
:100B500022C400083128412A352829458D4597307F
:100B600091FFE780804C8D282244B2404101828071
:100B7000411106C622C4000873E0107C3965930554
:100B800005C013058006A8C173F0107C2244B24052
:100B900041018280411106C622C4000873E0107C26
:100BA0003965930505C0C8511375F5EFC8D1C85113
:100BB0007999C8D1C8510966518DC8D1C8511166FB
:100BC000518DC8D1C85113650540C8D173F0107C50
:100BD0002244B24041018280411106C622C400086D
:100BE00073E0107C3966930506C0094588CD03255E
:100BF00006C07199136525002320A6C0884513659A
:100C0000850088C588451365250088C5C8491365D2
:100C10001500C8C9C84913652500C8C9C849136566
:100C20004500C8C9C84913650510C8C9C849136536
:100C30000520C8C9C84913650540C8C9C84513651A
:100C40000510C8C5C84513651500C8C5C845136556
:100C50002500C8C5C84513654500C8C5C845136506
:100C60008500C8C5C84513650501C8C5C8451365D5
:100C70000502C8C5C84513650504C8C5C849096645
:100C8000518DC8C988451365150088C58845136509
:100C9000050188C588451365054088C588451365E5
:100CA000051088C588451365052088C588451166E7
:100CB000518D88C588491365051088C98849136511
:100CC000052088C9C845518DC8C5C8452166518DC4
:100CD000C8C588451365450088C573F0107C22445B
:100CE000B2404101828037457A00834515BF89892A
:100CF00085E973E0107C8325058E17D690FF1306D7
:100D000066F04CCE8325458E0CD28325858E3966C0
:100D10002326B6C80325C58E2328A6C873F0107CE9
:100D200082802D2D2D2D2D2D2D2D2D2073636920AD
:100D3000696E746572727570742074657374202D99
:100D40002D2D2D2D2D2D2D2D2D0D0A00426175647B
:100D500020526174653A20393630300D0A00446102
:100D6000746120426974733A20380D0A0050617230
:100D70006974793A202020206E6F6E650D0A005349
:100D8000746F7020426974733A20310D0A000000BC
:100D90007207700082077000E2097000920770000D
:100DA000A2077000B2077000C2077000D20770007F
:100DB000E2077000F207700002087000120870006D
:100DC000E2097000E2097000E2097000E2097000B7
:100DD000220870003208700042087000520870004B
:100DE000E2097000E2097000E2097000E209700097
:100DF0006208700062087000E2097000E209700089
:100E0000E2097000E2097000E2097000E209700076
:100E100072087000E2097000E2097000E2097000D7
:100E2000E2097000E2097000E2097000E209700056
:100E30008208700092087000E2097000E2097000F8
:100E4000E2097000E2097000E2097000E209700036
:100E5000A2087000B2087000C2087000D2087000CA
:100E6000E2087000F2087000E2097000E209700008
:100E700002097000E2097000E2097000E2097000E6
:100E8000E2097000E2097000E2097000E2097000F6
:100E900012097000220970003209700042097000C6
:100EA0005209700062097000E2097000E2097000E6
:100EB000E2097000E2097000720970008209700096
:100EC00092097000A2097000B2097000C209700096
:100ED000E2097000E2097000E2097000E2097000A6
:100EE000E2097000E2097000E2097000E209700096
:100EF000D2097000E2097000E2097000E209700096
:100F0000E2097000E2097000E2097000E209700075
:100F1000F2097000E2097000E2097000E209700055
:100F2000E2097000E2097000E2097000E209700055
:100F3000020A7000E2097000E2097000E209700024
:100F4000E2097000E2097000E2097000E209700035
:100F5000411106C622C4000873E0107C37057B00EF
:100F600093050580114523A6A50A73F0107C224441
:100F7000B24041018280411106C622C40008231BF1
:100F8000A4FE231AB4FE3965130505C048411D812E
:100F90000D8981456301B5026F00400073E0107C4C
:100FA0003965930505C0C8411375F5E7C8C173F0ED
:100FB000107C6F0040003965130505C008557D8918
:100FC000835564FF6306B5046F00400073E0107C36
:100FD000035664FF3965930505C088557D8A0199DC
:100FE000518D88D573F0107C97D06E00E78080AD6E
:100FF0006F0040003965130505C0484105898145EA
:101000006316B5006F0040006FF0DFFE6F00400018
:10101000035544FF8545630BB5006F004000035541
:1010200044FF89456316B5026F00400073E0107CF1
:10103000035644FF3965930505C0C8410D8A1E0655
:101040001375F5E7518DC8C173F0107C6F00400037
:10105000035544FF8D45631FB5026F00400073E0E8
:10106000107C3965930505C02328B4FEC84113756B
:10107000F5E713650510C8C10565130515765920F8
:10108000832504FFC84113650518C8C173F0107C9F
:101090006F0040002244B24041018280411106C6E7
:1010A00022C4000873E0107C37057B00930505809F
:1010B00003A5850A1365150023A4A50A114523A6D7
:1010C000A50A05651305959D23A0A508130570279E
:1010D00023A8A50A1305D04E23ACA50A3775260010
:1010E0001305153C23A2A50823A4A5080D65130527
:1010F000951323AAA50A73F0107C2244B240410143
:101100008280000031112EC8F325007C2EC6F32505
:10111000003001000B002566010073900530B245D8
:0A1120007390057CC24551018280E6
:02000004007387
:06FFE800B70070008280EA
:10FFF000FFFFFFFFFFFFFFFFFFFFFFFFFFFFFFFF11
:040000050070000087
:00000001FF
