:02000004007C7E
:1000000081400141814101428142014381430144D8
:1000100081440145814501468146014781470148A8
:10002000814801498149014A814A014B814B014C78
:10003000814C014D814D014E814E014F814FF9623E
:1000400073A002308542FE0263C3020001A0970242
:1000500000009382220473905230970185FF9381B0
:10006000617A170284FF1302D27D137202FC73259A
:1000700040F185456370B5001316150132921701E2
:1000800084FF130121786111EF00B07AEF00204E58
:100090006D7106C20AC40EC612C816CA1ACC1ECE8C
:1000A00022D026D22AD42ED632D836DA3ADC3EDE18
:1000B000C2C0C6C2CAC4CEC6D2C8D6CADACCDECE88
:1000C000E2D0E6D2EAD4EED6F2D8F6DAFADCFEDEF8
:1000D00073252034F32510340A86EF003050731056
:1000E000153489629382028073A0023092402241CB
:1000F000B2414242D2426243F243025492542255E8
:10010000B2554256D2566257F2570648964826498B
:10011000B649464AD64A664BF64B065C965C265D67
:10012000B65D465ED65E665FF65F51617300203055
:10018000411106C622C4000841658325050837C50C
:100190005B49130505A0EF009078EF10E00F2D6686
:1001A00093050600C8C90145C8C588C903250600CE
:1001B0007199136525002320A600032506006D997B
:1001C0002320A600032506005D992320A600032511
:1001D0000600136505032320A60003250600F97613
:1001E0001387F63F798D2320A6000325060013759B
:1001F000F5C72320A60003250600FD16758D2320D4
:10020000A60003250600D176FD16758DA166558DD5
:100210002320A60003D54188C8D1C8554D99136540
:100220004500C8D5C855719913652500C8D58859AA
:100230001375F5F31365050488D988591375F5FC12
:100240001365050288D92244B240410182804111E0
:1002500006C622C400084165B7853B452320B50882
:100260008325050837C5DB48130505A0EF00306B73
:10027000EF1080022392A1882244B2404101828083
:10028000411106C622C400083565130505400C4D12
:1002900023A4B1886845158105892396A188224445
:1002A000B24041018280411106C622C40008356572
:1002B000130505400C4D23A4B1886845158193753D
:1002C00015002396B18803D5C18885456319B5000B
:1002D0006F004000054523A8A1886F00A0017D554F
:1002E00023A8A18803A581881345F5FF23A4A1882D
:1002F0006F00400003A5018983A581883305B502FD
:100300009305C0123305B5020985EF00107C23AABE
:10031000A1882244B24041018280411106C622C414
:100320000008356593050540884D23A4A188E8455C
:100330001581137615002396C188EC4D23ACB18846
:1003400003D5C18885456319B5006F004000054598
:1003500023A8A1886F00E0017D5523A8A18803A6EA
:1003600081880565130505FA118D23A4A1886F0006
:10037000400003A50189B565938505408C5133057F
:10038000B5029305C003B305B502139525002E955C
:1003900083A581898A053355B502EF00707923AAB8
:1003A000A18803A58188930580163305B502B7554A
:1003B0006210938535DD3315B5029355F50121851E
:1003C0002E95EF00907023AEA1882244B2404101E7
:1003D0008280411106C622C4000873E0107C356596
:1003E000930505407D5588C50566130586BB88D1F4
:1003F000C855D176FD16758D9166558DC8D5C855F1
:1004000013060680518DC8D588593166518D88D91B
:1004100088590D66518D88D988591365850088D90A
:1004200088591365450088D988591365250088D9EE
:1004300073F0107C2244B24041018280411106C613
:1004400022C4000873E0107C3565930505407D5596
:1004500088C505651305057788D1C85551767D1681
:10046000718DC8D5C8557D761306F67F718DC8D5B8
:1004700088593166518D88D988590D66518D88D932
:1004800088591365850088D988591365450088D92E
:1004900088591365250088D973F0107C2244B24036
:1004A00041018280411106C622C4000873E0107C1D
:1004B0003565930505400565130605FA90C51305D6
:1004C000057788D1C85551767D16718DC8D5C85528
:1004D0007D761306F67F718DC8D588593166518DAA
:1004E00088D988590D66518D88D98859136585003A
:1004F00088D988591365450088D98859136525001E
:1005000088D9C859419913651500C8D9C8591375B8
:10051000F5F813650501C8D9C8592166518DC8D9A8
:1005200073F0107C2244B24041018280411106C622
:1005300022C4000873E0107C396583250580757638
:100540007D16F18D2320B58093050580C851136574
:100550000504C8D1396593058583C845136505042D
:10056000C8C573F0107C2244B24041018280011161
:1005700006CE22CC001001452324A4FE232AA4FE8B
:100580003127AD234D2B5D378925032584FEB71513
:1005900010002328B4FE23A8A5C0B715100023A877
:1005A000A5D0952D9D2873E0107C37057C001305A0
:1005B00065648965938505A088CD73F0107C413909
:1005C00073E0107C3965930505C02326B4FE884589
:1005D0006D9988C573F0107C65368325C4FE73E081
:1005E000107C88451365450088C573F0107CD533B1
:1005F000832504FF03A505C11365150023A8A5C025
:1006000009659305059088451365050488C57360E1
:1006100004306F0040006F000000411106C622C484
:100620000008852A1385818AB705F04237067A4487
:10063000CD2209659305058088453D9988C52244EA
:10064000B240410182805D7186C696C49AC29EC046
:1006500022DE2ADC2EDA32D836D63AD43ED242D046
:1006600046CE72CC76CA7AC87EC6800883A5018A37
:10067000850523A0B18A03A5018A9355350013058A
:1006800000276367B5006F004000DD3E6F00400843
:1006900003A5018A93554500130500276368B5003B
:1006A0006F004000613B01316F0040064165232A25
:1006B000A4FAB70570422320B5088325050837C57D
:1006C000DB48130505A0EF009025EF00F03CAA855C
:1006D000032544FB232CC4FA2392B1888325050803
:1006E00037C55B49130505A0EF007023EF00D03A32
:1006F0002A86032584FBAD6593850500D0C903D503
:100700004188C8D1453311396F0040006F00400067
:1007100003A54189C16583A50508EF009030814597
:100720006317B5026F00400003A5818883A5818906
:100730004D8D8145630DB5006F004000396593050F
:10074000858388491365050488C96F006001396590
:1007500093058583C84513650504C8C56F0040002F
:100760000965930505900545C8C1B24F424FD24E69
:10077000624EF248025892572257B2564256D2550C
:100780006255725486431643A642B64061617300B7
:100790002030411106C622C40008096513070580F0
:1007A00023A4E18AFD5654C3014548C71047136688
:1007B000060110C710471366060210C79385818A89
:1007C000C8C189659387058123ACF18A8965138740
:1007D000058223A4E18CD4C354C3C8C748C7944737
:1007E00093E6060194C7144793E6060114C794479D
:1007F00093E6060294C7144793E6060214C71386CD
:10080000818B48C29385818CC8C12244B24041018A
:100810008280011106CE22CC0010232AA4FE2328B8
:10082000B4FE2326C4FE032504FF832544FF88C5A8
:100830000325C4FE832544FFC8C5032504FF832583
:10084000C4FEEF00D002EF0090202324A4FE032575
:1008500084FE832544FF8C41C8C1032544FF0C411D
:100860000145C8C5832544FF90410C4693E5050129
:100870000CC6832544FF90410C4693E505020CC647
:10088000832544FF90410C469166D58D0CC6832587
:1008900044FFC8C16244F24005618280411106C62E
:1008A00022C400086F0040006F000000411106C61E
:1008B00022C400086F0040006F000000411106C60E
:1008C00022C400086F0040006F000000411106C6FE
:1008D00022C400086F0040006F000000411106C6EE
:1008E00022C400086F0040006F000000411106C6DE
:1008F00022C400086F0040006F000000411106C6CE
:1009000022C400086F0040006F000000411106C6BD
:1009100022C400086F0040006F000000411106C6AD
:1009200022C400086F0040006F000000411106C69D
:1009300022C400086F0040006F000000411106C68D
:1009400022C400086F0040006F000000411106C67D
:1009500022C400086F0040006F000000411106C66D
:1009600022C400086F0040006F000000411106C65D
:1009700022C400086F0040006F000000411106C64D
:1009800022C400086F0040006F000000411106C63D
:1009900022C400086F0040006F000000411106C62D
:1009A00022C400086F0040006F000000411106C61D
:1009B00022C400086F0040006F000000411106C60D
:1009C00022C400086F0040006F000000411106C6FD
:1009D00022C400086F0040006F000000411106C6ED
:1009E00022C400086F0040006F000000411106C6DD
:1009F00022C400086F0040006F000000411106C6CD
:100A000022C400086F0040006F000000411106C6BC
:100A100022C400086F0040006F000000411106C6AC
:100A200022C400086F0040006F000000411106C69C
:100A300022C400086F0040006F000000411106C68C
:100A400022C400086F0040006F000000411106C67C
:100A500022C400086F0040006F000000411106C66C
:100A600022C400086F0040006F000000411106C65C
:100A700022C400086F0040006F000000411106C64C
:100A800022C400086F0040006F000000411106C63C
:100A900022C400086F0040006F000000411106C62C
:100AA00022C400086F0040006F000000411106C61C
:100AB00022C400086F0040006F000000411106C60C
:100AC00022C400086F0040006F000000411106C6FC
:100AD00022C400086F0040006F000000411106C6EC
:100AE00022C400086F0040006F000000411106C6DC
:100AF00022C4000873E0107CB96513860580085A8B
:100B00001365150008DA085A1365250008DA03A5ED
:100B1000058071991365150023A0A58003A50580A4
:100B20004D991365450023A0A58073F0107C2244E5
:100B3000B24041018280411106C622C4000873E020
:100B4000107CB96513860580085AFD76FD16758DF3
:100B500008DA085AC176FD16758D08DA085A8176CA
:100B6000FD16758D08DA085A1375F5F708DA084E80
:100B7000B70600FDFD16758D08CE484E719948CE1A
:100B8000484E4D9948CE084ED176FD16758D08CE4B
:100B900003A50580B7060003558D23A0A580484214
:100BA00071991365250048C248424D991365850027
:100BB00048C203A505803166518D23A0A58073F03E
:100BC000107C2244B24041018280411106C622C4F9
:100BD000000873700430096593050590014588C5C8
:100BE00088C988CD88D188D588D988DDA8C1A8C50D
:100BF000A8C9A8CDA8D1C8C5C8C9C8CDC8D1C8D5AD
:100C0000C8D9C8DDE8C1E8C5E8C9E8CDE8D12244C3
:100C1000B24041018280011106CE22CC001037156E
:100C20007C001305453C2328A4FE0965130505A097
:100C30002326A4FE73E0107C0145231BA4FE6F0055
:100C40004000831564FF1305F006634BB5026F0087
:100C50004000032504FF930545002328B4FE084106
:100C60008325C4FE138645002326C4FE88C16F0079
:100C70004000031564FF0505231BA4FE6FF07FFCF5
:100C800073F0107C6244F24005618280411106C617
:100C900022C400080520C52D8120654505468D46E6
:100CA000B285971085FFE780E0358D282244B24059
:100CB00041018280411106C622C4000873E0107C05
:100CC0003965930505C013058006A8C173F0107C33
:100CD0002244B24041018280411106C622C400086C
:100CE00073E0107C3965930505C0C8511375F5EFA5
:100CF000C8D1C8517999C8D1C8510966518DC8D198
:100D0000C8511166518DC8D1C85113650540C8D16D
:100D100073F0107C2244B24041018280411106C62A
:100D200022C4000873E0107C3966930506C00945AB
:100D300088CD032506C07199136525002320A6C020
:100D400088451365850088C5C84913651500C8C95D
:100D5000C84913652500C8C9C84913650510C8C925
:100D6000C84913650520C8C9C84913650540C8C9E5
:100D7000C84513650510C8C5C84513651500C8C525
:100D8000C84513652500C8C5C84513654500C8C5D5
:100D9000C84513658500C8C5C8490966518DC8C9CD
:100DA00088451365150088C588451365050188C504
:100DB00088451365054088C588451365051088C5B5
:100DC000C8451166518DC8C588451365450088C55D
:100DD00073F0107C2244B24041018280011106CEA2
:100DE00022CC0010232AA4FE2328B4FE2326C4FE0E
:100DF00001456244F24005618280411106C622C469
:100E0000000813850188232AA4FE6F0040000325F3
:100E100044FF9385818D6371B5026F004000832587
:100E200044FF014588C16F004000032544FF1105C0
:100E3000232AA4FE6FF0BFFD2244B240410182800C
:100E4000011106CE22CC001037157C001305056970
:100E5000232AA4FE4165130505002328A4FE13855B
:100E600001852326A4FE6F004000032504FF83258F
:100E7000C4FE6378B5026F004000032544FF0305FC
:100E80000500832504FF2380A500032504FF050535
:100E90002328A4FE032544FF0505232AA4FE6FF0A2
:100EA000DFFC6244F24005618280011106CE22CC53
:100EB000001037157C001305056E232AA4FE496532
:100EC000130505002328A4FE49651305051E2326E6
:100ED000A4FE6F004000032504FF8325C4FE637851
:100EE000B5026F004000032544FF0305050083257C
:100EF00004FF2380A500032504FF05052328A4FE85
:100F0000032544FF0505232AA4FE6FF0DFFC62449D
:100F1000F24005618280011106CE22CC00103725F7
:100F20007C001305058C232AA4FE1305000023284A
:100F3000A4FE130500002326A4FE6F004000032535
:100F400004FF8325C4FE6378B5026F0040000325CB
:100F500044FF03050500832504FF2380A500032526
:100F600004FF05052328A4FE032544FF0505232AC5
:100F7000A4FE6FF0DFFC6244F24005618280011143
:100F800006CE22CC001037257C001305058C232AC1
:100F9000A4FE0565130505802328A4FE0565130539
:100FA00005802326A4FE6F004000032504FF83254F
:100FB000C4FE6378B5026F004000032544FF0305BB
:100FC0000500832504FF2380A500032504FF0505F4
:100FD0002328A4FE032544FF0505232AA4FE6FF061
:100FE000DFFC6244F24005618280411106C622C4E2
:100FF000000873E0107C3965930505C01305800671
:10100000A8C173F0107C2244B2404101828041119A
:1010100006C622C4000873E0107C3965930505C03C
:1010200013058002A8C173F0107C2244B240410134
:101030008280411106C622C40008453F73E0107C3F
:10104000B96503A505C61365150023A0A5C673F0F1
:10105000107C6533F533913D7D3D153797F084FF66
:10106000E780A0FC6D372244B240410182803707FF
:1010700000809302F00FB347B500F98F13161500E7
:10108000618293961500E18229CEBDC6630F560496
:101090006389560636962205598DA205D98DB30669
:1010A000B5023335B502B336D000558D6344050023
:1010B00006057D16130616F863480604FD12635FE5
:1010C00056009316850121815E06329563D606008F
:1010D0000505860691E279995D8D82803705807FCE
:1010E000E5BF638D56003E858280260501E9E397C2
:1010F00056FEA60581E5DDB7E31756FE3705C07F2E
:101100008280A605E5FDD9BF050671FE2185930203
:1011100015000905E39902FC3705800075BF9302AD
:10112000F00F13171500618393971500E183334384
:10113000B5001353F3017E035DCFF9CB6305570C64
:10114000638D570C1D8F970200009382E24393D664
:10115000F50093F6C60F96969C4213D68741939658
:10116000F500E18293F216008582938606FC96963E
:101170003306D602A207A1833E96A205A181B70736
:101180008000DD8DB386C502220521815D8DB39778
:10119000C602B332B5003315550033075740935696
:1011A0004601858A93C616002E061D8E158E0A05E9
:1011B000B317A6021306E7075A050D8DB386B702CB
:1011C0009302E00F637F56003385A640B3220500EB
:1011D000969713F5170085833E955E0632951A950E
:1011E00082801A85634556003703807F1A95828076
:1011F0003705807FE5BF89C763935702A60585C180
:101200003705C07F8280260565FDE39357FECDBF7D
:10121000E31057FE26056DF5E1BFA605F5F11A8529
:101220008280370600FF931615006360D6029396FE
:101230001500636CD6003366B500060609C60D8D31
:101240003335A00082800145828005458280935716
:10125000F5411316150093558601938515F863CF54
:101260000500B70600807D470D8F635BE000220517
:10127000558D3355E5003D8D1D8D82800145828061
:1012800013C7F6FFB70500FF63F3C500798D758DB1
:10129000634305003A8582806357A00293151500C9
:1012A000E181938515F863C00502B305B040FD05E3
:1012B00063C905002205B7060080558D3355B5007A
:1012C00082807D558280014582801356F501220679
:1012D0001306D60929CD9356F541B345D500958D12
:1012E00093D6050199E2C205411693D6850199E28C
:1012F000A205611693D6C50199E29205711693D69F
:10130000E50199E28A05791663C4050086057D1614
:101310005E0613D58500DE0533A30500AE959A95CC
:1013200063D60500AE95B335B0002E953295828018
:1013300031C91306D0099356050199E242054116B9
:101340009356850199E2220561169356C50199E2EB
:10135000120571169356E50199E20A057916634460
:10136000050006057D165E0693157501218133A3E0
:101370000500AE959A9563D60500AE95B335B000DD
:101380002E953295828037357A00834515FF8989FD
:1013900085E973E0107C832505FC39662326B6C8F1
:1013A000832545FC97D684FF9386C685CCCE8325BE
:1013B00085FC8CD20325C5FC2322A6C673F0107CC5
:1013C000828000009C087C00AC087C00BC0A7C0089
:1013D000BC087C00CC087C00DC087C00EC087C00AD
:1013E000FC087C000C097C001C097C002C097C009A
:1013F0003C097C00BC0A7C00BC0A7C00BC0A7C0066
:10140000BC0A7C004C097C005C097C006C097C00F7
:101410007C097C00BC0A7C00BC0A7C00BC0A7C0005
:10142000BC0A7C008C097C00BC0A7C00BC0A7C00E5
:10143000BC0A7C00BC0A7C00BC0A7C00BC0A7C00A4
:10144000BC0A7C009C097C00BC0A7C00BC0A7C00B5
:10145000BC0A7C00BC0A7C00BC0A7C00BC0A7C0084
:10146000BC0A7C00AC097C00BC097C00BC0A7C0086
:10147000BC0A7C00BC0A7C00BC0A7C00BC0A7C0064
:10148000BC0A7C00CC097C00DC097C00EC097C00F7
:10149000FC097C00BC0A7C00BC0A7C00BC0A7C0005
:1014A000BC0A7C000C0A7C001C0A7C00BC0A7C0084
:1014B000BC0A7C00BC0A7C00BC0A7C00BC0A7C0024
:1014C000BC0A7C002C0A7C003C0A7C00BC0A7C0024
:1014D000BC0A7C00BC0A7C00BC0A7C00BC0A7C0004
:1014E000BC0A7C00BC0A7C00BC0A7C004C0A7C0064
:1014F0005C0A7C006C0A7C007C0A7C008C0A7C0004
:101500009C0A7C00BC0A7C00BC0A7C00BC0A7C00F3
:10151000BC0A7C00BC0A7C00BC0A7C00BC0A7C00C3
:10152000BC0A7C00AC0A7C00BC0A7C00BC0A7C00C3
:10153000BC0A7C00BC0A7C00BC0A7C00BC0A7C00A3
:10154000BC0A7C00CC0A7C00BC0A7C00BC0A7C0083
:10155000BC0A7C00BC0A7C00BC0A7C00BC0A7C0083
:10156000BC0A7C00DC0A7C00BC0A7C00BC0A7C0053
:10157000BC0A7C00BC0A7C00BC0A7C00BC0A7C0063
:10158000BC0A7C0040E00F8233A20F8604660F89FC
:101590009D2B0F8DEBF20E90DBBB0E935B860E97AF
:1015A0005A520E99C81F0E9C96EE0D9FB6BE0DA204
:1015B0001B900DA4B8620DA681360DA96A0B0DAB68
:1015C00069E10CAD72B80CAF7E900CB181690CB3BF
:1015D00073430CB54C1E0CB703FA0BB891D60BBA7B
:1015E000EEB30BBC14920BBDFC700BBF9E500BC036
:1015F000F6300BC1FD110BC3AEF30AC403D60AC506
:10160000F7B80AC7859C0AC8A8800AC95C650ACAD7
:101610009D4A0ACB66300ACCB3160ACD81FD09CEAD
:10162000CBE409CF8ECC09D0C7B409D1729D09D2C1
:101630008D8609D3137009D3025A09D4584409D5A9
:10164000112F09D62B1A09D7A40509D778F108D884
:10165000A5DD08D92ACA08D903B708DA30A408DBFF
:10166000AC9108DB787F08DC906D08DCF35B08DD6B
:10167000A04A08DE933908DECC2808DF491808DFC5
:04168000080808E06E
:1016900031112EC8F325007C2EC6F3250030010041
:1016A0000B002566010073900530B2457390057CF0
:1016B000C24551018280411106C622C4000873E070
:1016C000107C37057B0093050580114523A6A50AEC
:0C16D00073F0107C2244B2404101828083
:1016E000011106CE22CC0010231BA4FE231AB4FE47
:1016F0002319C4FE2318D4FE3965130505C04841DB
:101700001D810D8981456301B5026F00400073E0C2
:10171000107C3965930505C0C8411375F5E7C8C14C
:1017200073F0107C6F0040003965130505C0085543
:1017300019813D89835544FF6306B5026F0040005F
:1017400073E0107C035644FF3965930505C0885546
:101750003D8A1A061375F5C3518D88D573F0107C38
:101760006F0040003965130505C0085529813D8982
:10177000835524FF6308B5026F00400073E0107CBE
:10178000035624FF3965930505C088553D8A2A060E
:10179000F1769386F63F758D518D88D573F0107C68
:1017A0006F0040003965130505C008551375F50332
:1017B000835564FF6306B5026F00400073E0107C40
:1017C000035664FF3965930505C088551376F60303
:1017D000137505FC518D88D573F0107C6F004000A7
:1017E000035504FF8545630BB5006F0040000355AA
:1017F00004FF89456316B5026F00400073E0107C5A
:10180000035604FF3965930505C0C8410D8A1E06BD
:101810001375F5E7518DC8C173F0107C6F0040005F
:10182000035504FF8D456310B5046F00400073E05D
:10183000107C3965930505C02326B4FEC841137595
:10184000F5E713650510C8C1056513051576EFD0DA
:101850003FE98325C4FEC84113650518C8C173F06C
:10186000107C6F0040006F0040003965130505C013
:101870004841058981456316B5006F0040006FF04F
:10188000DFFE6244F24005618280411106C622C437
:10189000000873E0107C37057B009305058003A5E5
:1018A000850A1365150023A4A50A114523A6A50AD8
:0C18B00073F0107C2244B24041018280A1
:02000004007D7D
:06FFE000B7007C008280E6
:10FFF000FFFFFFFFFFFFFFFFFFFFFFFFFFFFFFFF11
:04000005007C00007B
:00000001FF
