:0200000400708A
:1000000081400141814101428142014381430144D8
:1000100081440145814501468146014781470148A8
:10002000814801498149014A814A014B814B014C78
:10003000814C014D814D014E814E014F814FF9623E
:1000400073A002308542FE0263C3020001A0970242
:1000500000009382220473905230970191FF9381A4
:10006000617A170290FF1302D27D137202FC73258E
:1000700040F185456370B5001316150132921701E2
:1000800090FF130121786111EF00606CEF00E03AFE
:100090006D7106C20AC40EC612C816CA1ACC1ECE8C
:1000A00022D026D22AD42ED632D836DA3ADC3EDE18
:1000B000C2C0C6C2CAC4CEC6D2C8D6CADACCDECE88
:1000C000E2D0E6D2EAD4EED6F2D8F6DAFADCFEDEF8
:1000D00073252034F32510340A86EF00A0417310F5
:1000E000153489629382028073A0023092402241CB
:1000F000B2414242D2426243F243025492542255E8
:10010000B2554256D2566257F2570648964826498B
:10011000B649464AD64A664BF64B065C965C265D67
:10012000B65D465ED65E665FF65F51617300203055
:10013000411106C622C4000873E0107C05658325C2
:100140000540DD992320B5408325054093E5450012
:100150002320B54093050540C84D13650502C8CD61
:10016000C84D1375F5FBC8CDC84D0199C8CD885948
:100170001365150088D988591365250088D98859D1
:100180001365450088D988591365850088D9885931
:100190001365050188D988591365050288D98859DE
:1001A0001365050488D988591365050888D9E84579
:1001B0001375F5C3E8C5E8491375F5C31365050460
:1001C000E8C9E84D1375F5C313650508E8CDE85196
:1001D0001375F5C31365050CE8D1E8551375F5C320
:1001E00013650510E8D5E8591375F5C313650514B3
:1001F000E8D9E85D1375F5C313650518E8DD03A5B7
:1002000045081375F5C31365051C23A2A508E84529
:1002100041769306F67F758D0D6613060680518D27
:10022000E8C5E849758D518DE8C9E84D758D518D4A
:10023000E8CDE851758D518DE8D1E855758D518D1A
:10024000E8D5E859758D518DE8D9E85D758D518DEA
:10025000E8DD03A54508758D518D23A2A508E84565
:100260000199E8C5E8490199E8C9E84D0199E8CD47
:10027000E8510199E8D1E8550199E8D5E859019983
:10028000E8D9E85D0199E8DD03A54508019923A2B5
:10029000A50873F0107C2244B24041018280011114
:1002A00006CE22CC2ACA2EC832C600106F004000EB
:1002B0000565032505403581058981456306B5003F
:1002C0006F0040006FF0DFFE05658325C54941667C
:1002D0002320B6001305C5490C45130606004CC281
:1002E0000C490CC60C4D4CC60C510CCA0C554CCAD2
:1002F0000C590CCE0C5D4CCE5041C16523A0C502FB
:10030000504593850502D0C1504990C5504DD0C588
:10031000505190C95055D0C9505990CD485DC8CD65
:1003200073E0107C056593050540C84513654500DD
:10033000C8C5C84913654500C8C909659305059036
:1003400013050020C8C173F0107C3246C2455245E7
:100350006244F240056173002030411106C622C498
:100360000008AD6693850600056613050677C8C9C3
:100370001305007DC8D1130586BB88D5014588C902
:10038000C8C5C8551375F5F313650504C8D5C85518
:100390001375F5FC13650502C8D588597D771307D9
:1003A000F73F798D1365054088D988591375F5CFC6
:1003B0001365052088D903A50600719913652500EA
:1003C00023A0A60003A506006D9923A0A60003A5FF
:1003D00006005D9923A0A60003A506001375F5FC91
:1003E0001365050123A0A60003A506001375F5FB00
:1003F00023A0A60003A506001375F5C723A0A60039
:1004000003A5060079771307F73F798D23A0A6008F
:10041000E8511375F58F13650520E8D1E8511306EF
:100420000680518DE8D1A8551375F5CF13650510D9
:10043000A8D52244B24041018280011106CE22CCCF
:10044000001001452324A4FE232AA4FEB92F9740BF
:1004500091FFE780E0CF032584FE73700430B71569
:1004600010002326B4FE23A8A5C0B715100023A8AA
:10047000A5D07D2D8D2D992E092E8325C4FE73E0E8
:10048000107C09651306059041657D1548C2370546
:1004900070001305E5298966938606A023A4A61299
:1004A000284A1365450028CA73F0107C03A505C1CE
:1004B0001365052023A8A5C073E0107C396593055A
:1004C00005C02328B4FE88456D9988C573F0107C5B
:1004D0006935832504FF73E0107C8845136545006A
:1004E00088C573F0107CA931736004306F00400040
:1004F0006F000000011106CE22CC0010232AA4FEBA
:100500002328B4FE2326C4FE01456244F24005615F
:100510008280411106C622C400084165130505000A
:10052000232AA4FE6F004000032544FF9385018425
:100530006371B5026F004000832544FF014588C107
:100540006F004000032544FF1105232AA4FE6FF02D
:10055000BFFD2244B24041018280011106CE22CC6F
:10056000001037157000130505F4232AA4FE416519
:10057000130505002328A4FE416513050500232665
:10058000A4FE6F004000032504FF8325C4FE6378AA
:10059000B5026F004000032544FF030505008325D5
:1005A00004FF2380A500032504FF05052328A4FEDE
:1005B000032544FF0505232AA4FE6FF0DFFC6244F7
:1005C000F24005618280011106CE22CC0010371561
:1005D0007000130505F4232AA4FE516513050500D8
:1005E0002328A4FE51651305051E2326A4FE6F00D3
:1005F0004000032504FF8325C4FE6378B5026F0025
:100600004000032544FF03050500832504FF2380E4
:10061000A500032504FF05052328A4FE032544FFA8
:100620000505232AA4FE6FF0DFFC6244F240056159
:100630008280011106CE22CC001037157000130500
:100640000512232AA4FE130500002328A4FE130587
:1006500000002326A4FE6F004000032504FF83252D
:10066000C4FE6378B5026F004000032544FF030514
:100670000500832504FF2380A500032504FF05054D
:100680002328A4FE032544FF0505232AA4FE6FF0BA
:10069000DFFC6244F24005618280011106CE22CC6B
:1006A00000103715700013050512232AA4FE0565F6
:1006B000130505802328A4FE056513050580232660
:1006C000A4FE6F004000032504FF8325C4FE637869
:1006D000B5026F004000032544FF03050500832594
:1006E00004FF2380A500032504FF05052328A4FE9D
:1006F000032544FF0505232AA4FE6FF0DFFC6244B6
:10070000F24005618280411106C622C4000873E0F0
:10071000107C3965930505C013058006A8C173F0E8
:10072000107C2244B24041018280411106C622C49D
:10073000000873E0107C3965930505C0130580023D
:10074000A8C173F0107C2244B24041018280411163
:1007500006C622C40008453F73E0107CB96503A5B6
:1007600005C61365150023A0A5C673F0107C55338C
:10077000ED33913D7D3D1537974091FFE7808088AF
:100780006D372244B24041018280411106C622C425
:10079000000873E0107C856503A505401166518D46
:1007A00023A0A54073F0107C6F0040000565032571
:1007B00005401181058981456316B5006F00400031
:1007C0006FF0DFFE2244B24041018280411106C633
:1007D00022C4000873E0107C396593050580C84584
:1007E0001375F5FC13650502C8C5C8451375F5CF2B
:1007F00013650520C8C5C84575767D16718D0966D7
:10080000518DC8C5C8453706D0FF7D16718D370696
:100810002000518DC8C5C845370600FD7D16718D75
:1008200037060002518DC8C5C845370600D07D1671
:10083000718D37060020518DC8C573F0107C22449D
:10084000B24041018280411106C622C400086F00F7
:1008500040006F000000411106C622C400086F006E
:1008600040006F000000411106C622C400086F005E
:1008700040006F000000411106C622C400086F004E
:1008800040006F000000411106C622C400086F003E
:1008900040006F000000411106C622C400086F002E
:1008A00040006F000000411106C622C400086F001E
:1008B00040006F000000411106C622C400086F000E
:1008C00040006F000000411106C622C400086F00FE
:1008D00040006F000000411106C622C400086F00EE
:1008E00040006F000000411106C622C400086F00DE
:1008F00040006F000000411106C622C400086F00CE
:1009000040006F000000411106C622C400086F00BD
:1009100040006F000000411106C622C400086F00AD
:1009200040006F000000411106C622C400086F009D
:1009300040006F000000411106C622C400086F008D
:1009400040006F000000411106C622C400086F007D
:1009500040006F000000411106C622C400086F006D
:1009600040006F000000411106C622C400086F005D
:1009700040006F000000411106C622C400086F004D
:1009800040006F000000411106C622C400086F003D
:1009900040006F000000411106C622C400086F002D
:1009A00040006F000000411106C622C400086F001D
:1009B00040006F000000411106C622C400086F000D
:1009C00040006F000000411106C622C400086F00FD
:1009D00040006F000000411106C622C400086F00ED
:1009E00040006F000000411106C622C400086F00DD
:1009F00040006F000000411106C622C400086F00CD
:100A000040006F000000411106C622C400086F00BC
:100A100040006F000000411106C622C400086F00AC
:100A200040006F000000411106C622C400086F009C
:100A300040006F000000411106C622C400086F008C
:100A400040006F000000411106C622C400086F007C
:100A500040006F000000411106C622C400086F006C
:100A600040006F000000411106C622C400086F005C
:100A700040006F000000411106C622C400086F004C
:100A800040006F000000411106C622C400086F003C
:100A900040006F000000411106C622C400086F002C
:100AA00040006F000000411106C622C400086F001C
:100AB00040006F000000411106C622C400086F000C
:100AC00040006F000000411106C622C400086F00FC
:100AD00040006F000000411106C622C400086F00EC
:100AE00040006F000000411106C622C4000873E0F8
:100AF000107CB96513860580085A1365150008DA5D
:100B0000085A1365250008DA03A505807199136555
:100B1000150023A0A58003A505804D991365450008
:100B200023A0A58073F0107C2244B2404101828052
:100B3000011106CE22CC001037157000130505D820
:100B40002328A4FE0965130505A02326A4FE73E04F
:100B5000107C0145231BA4FE6F004000831564FF39
:100B60001305F006634BB5026F004000032504FF38
:100B7000930545002328B4FE08418325C4FE13864F
:100B800045002326C4FE88C16F004000031564FFA2
:100B90000505231BA4FE6FF07FFC73F0107C7360CF
:100BA00004306244F24005618280411106C622C4CD
:100BB00000083128412A352829458D45973091FF75
:100BC000E780A0468D282244B24041018280411135
:100BD00006C622C4000873E0107C3965930505C081
:100BE00013058006A8C173F0107C2244B240410175
:100BF0008280411106C622C4000873E0107C39656A
:100C0000930505C0C8511375F5EFC8D1C85179993E
:100C1000C8D1C8510966518DC8D1C8511166518DCE
:100C2000C8D1C85113650540C8D173F0107C224467
:100C3000B24041018280411106C622C4000873E01F
:100C4000107C3966930506C0094588CD032506C08A
:100C50007199136525002320A6C08845136585007A
:100C600088C588451365250088C5C84913651500E2
:100C7000C8C9C84913652500C8C9C84913654500D6
:100C8000C8C9C84913650510C8C9C84913650520F6
:100C9000C8C9C84913650540C8C9C84513650510CA
:100CA000C8C5C84513651500C8C5C84513652500E6
:100CB000C8C5C84513654500C8C5C8451365850046
:100CC000C8C5C84513650501C8C5C84513650502F3
:100CD000C8C5C84513650504C8C5C8490966518D0E
:100CE000C8C988451365150088C588451365050181
:100CF00088C588451365054088C588451365051076
:100D000088C588451365052088C588451166518DBD
:100D100088C588491365051088C988491365052069
:100D200088C9C845518DC8C5C8452166518DC8C5FB
:100D300088451365450088C573F0107C2244B24095
:100D40004101828037457A00834515BF898985E94D
:100D500073E0107C8325058E17D690FF130686EA74
:100D60004CCE8325458E0CD28325858E396623266D
:100D7000B6C80325C58E2328A6C873F0107C8280D0
:100D80004608700056087000B60A700066087000C9
:100D9000760870008608700096087000A60870003B
:100DA000B6087000C6087000D6087000E60870002B
:100DB000B60A7000B60A7000B60A7000B60A700073
:100DC000F608700006097000160970002609700008
:100DD000B60A7000B60A7000B60A7000B60A700053
:100DE0003609700036097000B60A7000B60A700045
:100DF000B60A7000B60A7000B60A7000B60A700033
:100E000046097000B60A7000B60A7000B60A700093
:100E1000B60A7000B60A7000B60A7000B60A700012
:100E20005609700066097000B60A7000B60A7000B4
:100E3000B60A7000B60A7000B60A7000B60A7000F2
:100E4000760970008609700096097000A609700086
:100E5000B6097000C6097000B60A7000B60A7000C4
:100E6000D6097000B60A7000B60A7000B60A7000A3
:100E7000B60A7000B60A7000B60A7000B60A7000B2
:100E8000E6097000F6097000060A7000160A700084
:100E9000260A7000360A7000B60A7000B60A7000A2
:100EA000B60A7000B60A7000460A7000560A700052
:100EB000660A7000760A7000860A7000960A700052
:100EC000B60A7000B60A7000B60A7000B60A700062
:100ED000B60A7000B60A7000B60A7000B60A700052
:100EE000A60A7000B60A7000B60A7000B60A700052
:100EF000B60A7000B60A7000B60A7000B60A700032
:100F0000C60A7000B60A7000B60A7000B60A700011
:100F1000B60A7000B60A7000B60A7000B60A700011
:100F2000D60A7000B60A7000B60A7000B60A7000E1
:100F3000B60A7000B60A7000B60A7000B60A7000F1
:100F4000411106C622C4000873E0107C37057B00FF
:100F500093050580114523A6A50A73F0107C224451
:100F6000B24041018280411106C622C40008231B01
:100F7000A4FE231AB4FE3965130505C048411D813E
:100F80000D8981456301B5026F00400073E0107C5C
:100F90003965930505C0C8411375F5E7C8C173F0FD
:100FA000107C6F0040003965130505C008557D8928
:100FB000835564FF6306B5046F00400073E0107C46
:100FC000035664FF3965930505C088557D8A0199EC
:100FD000518D88D573F0107C97D06E00E78060B398
:100FE0006F0040003965130505C0484105898145FA
:100FF0006316B5006F0040006FF0DFFE6F00400029
:10100000035544FF8545630BB5006F004000035551
:1010100044FF89456316B5026F00400073E0107C01
:10102000035644FF3965930505C0C8410D8A1E0665
:101030001375F5E7518DC8C173F0107C6F00400047
:10104000035544FF8D45631FB5026F00400073E0F8
:10105000107C3965930505C02328B4FEC84113757B
:10106000F5E713650510C8C1056513051576592008
:10107000832504FFC84113650518C8C173F0107CAF
:101080006F0040002244B24041018280411106C6F7
:1010900022C4000873E0107C37057B0093050580AF
:1010A00003A5850A1365150023A4A50A114523A6E7
:1010B000A50A05651305959D23A0A50813057027AE
:1010C00023A8A50A1305D04E23ACA50A3775260020
:1010D0001305153C23A2A50823A4A5080D65130537
:1010E000951323AAA50A73F0107C2244B240410153
:1010F0008280000031112EC8F325007C2EC6F32516
:10110000003001000B002566010073900530B245E8
:0A1110007390057CC24551018280F6
:02000004007387
:06FFE800B70070008280EA
:10FFF000FFFFFFFFFFFFFFFFFFFFFFFFFFFFFFFF11
:040000050070000087
:00000001FF
