:02000004007C7E
:1000000081400141814101428142014381430144D8
:1000100081440145814501468146014781470148A8
:10002000814801498149014A814A014B814B014C78
:10003000814C014D814D014E814E014F814FF9623E
:1000400073A002308542FE0263C3020001A0970242
:1000500000009382220473905230970185FF9381B0
:10006000617A170284FF1302D27D137202FC73259A
:1000700040F185456370B5001316150132921701E2
:1000800084FF130121786111EF005008EF00400F49
:100090006D7106C20AC40EC612C816CA1ACC1ECE8C
:1000A00022D026D22AD42ED632D836DA3ADC3EDE18
:1000B000C2C0C6C2CAC4CEC6D2C8D6CADACCDECE88
:1000C000E2D0E6D2EAD4EED6F2D8F6DAFADCFEDEF8
:1000D00073252034F32510340A86EF00C05D7310B9
:1000E000153489629382028073A0023092402241CB
:1000F000B2414242D2426243F243025492542255E8
:10010000B2554256D2566257F2570648964826498B
:10011000B649464AD64A664BF64B065C965C265D67
:10012000B65D465ED65E665FF65F51617300203055
:10018000011106CE22CC00100145232AA4FEE92647
:10019000972085FFE780A001B12609651305055862
:1001A0006D2837157C0013054598D92C37157C0030
:1001B0001305D59AF12437157C001305F59BC92446
:1001C00037157C001305E59C652C37157C0013055D
:1001D000059E7D2437157C00130505A15524371590
:1001E0007C001305F59E692C6F00400039651305EE
:1001F0000500085521817D899145631EB5046F0076
:1002000040000145A307A4FE6F0040008345F4FEB3
:100210000D456348B5026F004000396513050500C0
:10022000484D0346F4FE930504FFB2952380A500D4
:100230006F0040000305F4FE0505A307A4FE6FF060
:10024000FFFC130504FF2D2C37157C00130505A1B9
:10025000052C6F0040006FF07FF9797106D622D42B
:100260000018232AA4FE8145232AB4FC2328B4FEC7
:100270002326B4FE2324B4FE2322B4FE2320B4FE9E
:10028000232EB4FC231DB4FC3965130505C010559D
:100290001376F6032326C4FE105519823D8A2328BF
:1002A000C4FE105529823D8A2324C4FE50411D827C
:1002B0000D8A2322C4FE084D3D892320A4FE032578
:1002C00004FE630BB5006F004000032504FE060525
:1002D0002320A4FE6F00E00005452320A4FE6F004C
:1002E0004000032544FE2328A4FC89456362B5022F
:1002F0006F004000032504FD8945630BB5046F00C2
:100300004000032504FD8D456304B5086F00200CF3
:100310000325C4FEB725B700938505B03305B502A4
:10032000B795BA0A938505502E95832504FF850558
:100330003355B502832584FE85053355B502098101
:10034000832504FE3355B502232EA4FC6F0020083C
:100350000325C4FEB725B700938505B03305B50264
:10036000B795BA0A938505502E95832504FF850518
:100370003355B502832584FE85053355B5020581C5
:10038000832504FE3355B502232EA4FC6F00200400
:100390000325C4FEB725B700938505B03305B50224
:1003A000B795BA0A938505502E95832504FF8505D8
:1003B0003355B502832584FE85053355B502832563
:1003C00004FE3355B502232EA4FC6F004000032524
:1003D000C4FD832544FF8E053355B5027D15231DCD
:1003E000A4FC39658325050093F5F5F72320B500B6
:1003F0008325050093F5F5FB2320B5008325050033
:1004000093F5F5FD2320B5008325050093E57500E0
:100410002320B50093050500C84113652500C8C118
:10042000C84113651500C8C10345B4FD88C503451F
:10043000A4FDC8C5C8512166518DC8D1C8511166E7
:10044000518DC8D1C8510966518DC8D1C8511365A5
:100450000504C8D18855518D88D588551365050484
:1004600088D5885501991365450088D50145C8D5BB
:10047000C84113650502C8C12254B250456182804B
:10048000411106C622C40008232AA4FE6F004000C2
:10049000032544FF0305050081456301B5046F0092
:1004A00040006F00400039651305050008491D81B3
:1004B000058981456316B5006F0040006FF0BFFEEF
:1004C000032544FF93051500232AB4FE0305050008
:1004D000B9659385050088D16FF09FFB2244B24037
:1004E00041018280411106C622C40008292022440D
:1004F000B24041018280411106C622C4000873E067
:10050000107C3965930505808859370600F07D1603
:10051000718D88D9885937060020518D88D9C84DEA
:1005200037060003518DC8CDC841370600FD7D1642
:10053000718D37060001518DC8C1C841370600F4DE
:100540007D16718D37060004518DC8C173F0107C83
:100550002244B24041018280411106C622C40008F3
:100560000520DD268120654505468D46B28597200C
:1005700085FFE78020A98D282244B2404101828076
:10058000411106C622C4000873E0107C396593054A
:1005900005C013058006A8C173F0107C2244B24048
:1005A00041018280411106C622C4000873E0107C1C
:1005B0003965930505C0C8511375F5EFC8D1C85109
:1005C0007999C8D1C8510966518DC8D1C8511166F1
:1005D000518DC8D1C85113650540C8D173F0107C46
:1005E0002244B24041018280411106C622C4000863
:1005F00073E0107C396593050580C84113650503D8
:10060000C8C13966930506C0094588CD032506C0D3
:100610007199136525002320A6C0884513658500C0
:1006200088C5C84913651500C8C9C84913652500A0
:10063000C8C9C84913650510C8C9C849136505204C
:10064000C8C9C84913650540C8C9C8451365051020
:10065000C8C5C84513651500C8C5C845136525003C
:10066000C8C5C84513654500C8C5C845136585009C
:10067000C8C5C8490966518DC8C9884513651500A4
:1006800088C588451365050188C5884513650540FB
:1006900088C588451365051088C5C8451166518D04
:1006A000C8C588451365450088C573F0107C224491
:1006B000B24041018280011106CE22CC0010232AD3
:1006C000A4FE2328B4FE2326C4FE01456244F24062
:1006D00005618280411106C622C400081385018885
:1006E000232AA4FE6F004000032544FF9385018563
:1006F0006371B5026F004000832544FF014588C146
:100700006F004000032544FF1105232AA4FE6FF06B
:10071000BFFD2244B24041018280011106CE22CCAD
:10072000001037157C00130505A2232AA4FE41659D
:10073000130505002328A4FE138501852326A4FEA6
:100740006F004000032504FF8325C4FE6378B502D3
:100750006F004000032544FF03050500832504FFC7
:100760002380A500032504FF05052328A4FE0325F7
:1007700044FF0505232AA4FE6FF0DFFC6244F2402B
:1007800005618280011106CE22CC001037157C0055
:10079000130505A7232AA4FE496513050500232890
:1007A000A4FE49651305051E2326A4FE6F00400024
:1007B000032504FF8325C4FE6378B5026F00400063
:1007C000032544FF03050500832504FF2380A500BE
:1007D000032504FF05052328A4FE032544FF050582
:1007E000232AA4FE6FF0DFFC6244F24005618280A0
:1007F000011106CE22CC001037157C00130505C56B
:10080000232AA4FE130500002328A4FE13050000DC
:100810002326A4FE6F004000032504FF8325C4FEA9
:100820006378B5026F004000032544FF030505000F
:10083000832504FF2380A500032504FF0505232845
:10084000A4FE032544FF0505232AA4FE6FF0DFFC68
:100850006244F24005618280011106CE22CC001074
:1008600037157C00130505C5232AA4FE056513056D
:1008700005802328A4FE0565130505802326A4FE14
:100880006F004000032504FF8325C4FE6378B50292
:100890006F004000032544FF03050500832504FF86
:1008A0002380A500032504FF05052328A4FE0325B6
:1008B00044FF0505232AA4FE6FF0DFFC6244F240EA
:1008C00005618280411106C622C4000873E0107CD5
:1008D0003965930505C013058006A8C173F0107C27
:1008E0002244B24041018280411106C622C4000860
:1008F00073E0107C3965930505C013058002A8C11B
:1009000073F0107C2244B24041018280411106C63E
:1009100022C40008453F73E0107CB96503A505C6F5
:100920001365150023A0A5C673F0107C6533F5335D
:10093000913D7D3D153797F084FFE780006F6D375F
:100940002244B2404101828037357A00834515FF49
:10095000898985E973E0107C832505FC39662326A7
:10096000B6C8832545FC97D684FF9386A629CCCEAE
:10097000832585FC8CD20325C5FC2322A6C673F0F3
:10098000107C82802D2D2D2D2D2D2D2D2D2D2D20CA
:10099000736369206669666F2074657374202D2DFA
:1009A0002D2D2D2D2D2D2D2D2D2D0D0A0042617556
:1009B0006420526174653A20393630300D0A0044A3
:1009C00061746120426974733A20380D0A005061E5
:1009D000726974793A202020206E6F6E650D0A00CE
:1009E00053746F7020426974733A20310D0A0050BD
:1009F0006C732073656E6420736F6D65206D657315
:100A0000736167652C20286C6576656C3A20342903
:030A10000D0A00CC
:100A200031112EC8F325007C2EC6F32500300100BD
:100A30000B002566010073900530B2457390057C6C
:100A4000C24551018280411106C622C4000873E0EC
:100A5000107C37057B0093050580114523A6A50A68
:0C0A600073F0107C2244B24041018280FF
:100A7000011106CE22CC0010231BA4FE231AB4FEC3
:100A80002319C4FE2318D4FE3965130505C0484157
:100A90001D810D8981456301B5026F00400073E03F
:100AA000107C3965930505C0C8411375F5E7C8C1C9
:100AB00073F0107C6F0040003965130505C00855C0
:100AC00019813D89835544FF6306B5026F004000DC
:100AD00073E0107C035644FF3965930505C08855C3
:100AE0003D8A1A061375F5C3518D88D573F0107CB5
:100AF0006F0040003965130505C0085529813D89FF
:100B0000835524FF6308B5026F00400073E0107C3A
:100B1000035624FF3965930505C088553D8A2A068A
:100B2000F1769386F63F758D518D88D573F0107CE4
:100B30006F0040003965130505C008551375F503AE
:100B4000835564FF6306B5026F00400073E0107CBC
:100B5000035664FF3965930505C088551376F6037F
:100B6000137505FC518D88D573F0107C6F00400023
:100B7000035504FF8545630BB5006F004000035526
:100B800004FF89456316B5026F00400073E0107CD6
:100B9000035604FF3965930505C0C8410D8A1E063A
:100BA0001375F5E7518DC8C173F0107C6F004000DC
:100BB000035504FF8D456310B5046F00400073E0DA
:100BC000107C3965930505C02326B4FEC841137512
:100BD000F5E713650510C8C1056513051576EFD057
:100BE0003FE98325C4FEC84113650518C8C173F0E9
:100BF000107C6F0040006F0040003965130505C090
:100C00004841058981456316B5006F0040006FF0CB
:100C1000DFFE6244F24005618280411106C622C4B3
:100C2000000873E0107C37057B009305058003A561
:100C3000850A1365150023A4A50A114523A6A50A54
:0C0C400073F0107C2244B240410182801D
:02000004007D7D
:06FFE000B7007C008280E6
:10FFF000FFFFFFFFFFFFFFFFFFFFFFFFFFFFFFFF11
:04000005007C00007B
:00000001FF
