:02000004007C7E
:1000000081400141814101428142014381430144D8
:1000100081440145814501468146014781470148A8
:10002000814801498149014A814A014B814B014C78
:10003000814C014D814D014E814E014F814FF9623E
:1000400073A002308542FE0263C3020001A0970242
:1000500000009382220473905230970185FF9381B0
:10006000617A170284FF1302D27D137202FC73259A
:1000700040F185456370B5001316150132921701E2
:1000800084FF130121786111EF00303AEF00A00FD7
:100090006D7106C20AC40EC612C816CA1ACC1ECE8C
:1000A00022D026D22AD42ED632D836DA3ADC3EDE18
:1000B000C2C0C6C2CAC4CEC6D2C8D6CADACCDECE88
:1000C000E2D0E6D2EAD4EED6F2D8F6DAFADCFEDEF8
:1000D00073252034F32510340A86EF00B00F731017
:1000E000153489629382028073A0023092402241CB
:1000F000B2414242D2426243F243025492542255E8
:10010000B2554256D2566257F2570648964826498B
:10011000B649464AD64A664BF64B065C965C265D67
:10012000B65D465ED65E665FF65F51617300203055
:10018000732045308280411106C622C40008014513
:100190002328A4FE232AA4FEF525972085FFE780C7
:1001A0000001BD25737004305D23032504FFB715DE
:1001B000100023A8A5C0B715100023A8A5D0F12BC7
:1001C0000965130505583920736004306F0040003D
:1001D0006F000000397106DE22DC8000232AA4FEB5
:1001E0008145232AB4FC2328B4FE2326B4FE23240D
:1001F000B4FE2322B4FE2320B4FE232EB4FC231D20
:10020000B4FC3965130505C010551376F603232693
:10021000C4FE105519823D8A2328C4FE1055298238
:100220003D8A2324C4FE50411D820D8A2322C4FE30
:10023000084D3D892320A4FE032504FE630BB50071
:100240006F004000032504FE06052320A4FE6F0076
:10025000E00005452320A4FE6F004000032544FE76
:100260002328A4FC89456362B5026F004000032582
:1002700004FD8945630BB5046F004000032504FDB0
:100280008D456304B5086F00200C0325C4FEB72517
:10029000B700938505B03305B502B795BA0A9385C3
:1002A00005502E95832504FF85053355B50283251A
:1002B00084FE85053355B5020981832504FE335537
:1002C000B502232EA4FC6F0020080325C4FEB72529
:1002D000B700938505B03305B502B795BA0A938583
:1002E00005502E95832504FF85053355B5028325DA
:1002F00084FE85053355B5020581832504FE3355FB
:10030000B502232EA4FC6F0020040325C4FEB725EC
:10031000B700938505B03305B502B795BA0A938542
:1003200005502E95832504FF85053355B502832599
:1003300084FE85053355B502832504FE3355B50289
:10034000232EA4FC6F0040000325C4FD832544FF39
:100350008E053355B5027D15231DA4FC3965832513
:10036000050093F5F5F72320B5008325050093F5E7
:10037000F5FB2320B5008325050093F5F5FD23202B
:10038000B5008325050093E575002320B50093058E
:1003900005002326B4FCC84113652500C8C1C84127
:1003A00013651500C8C10345B4FD88C50345A4FD08
:1003B000C8C588491365150088C988491365250093
:1003C00088C973E0107C37057C0013058541896579
:1003D000938505A023A0A51037057C001305A5492A
:1003E00023A2A51073F0107C096593050590A8451C
:1003F00013651500A8C5A84513652500A8C51305F4
:100400000010BD3B8325C4FCC84113650502C8C16B
:100410006254F250216182805D7186C696C49AC290
:100420009EC022DE2ADC2EDA32D836D63AD43ED22C
:1004300042D046CE72CC76CA7AC87EC6800839656C
:100440001305050008491D81058981456303B5022F
:100450006F004000396513050500484D1375F50F11
:10046000852009659305059013050010C8C16F002C
:100470004000B24F424FD24E624EF248025892575D
:100480002257B2564256D25562557254864316438D
:10049000A642B640616173002030411106C622C4F5
:1004A0002AC22EC0000809659305059013050010A7
:1004B000C8C1824512452244B24041017300203038
:1004C000411106C622C40008A30BA4FE6F00400021
:1004D00039651305050008491D81058981456316A5
:1004E000B5006F0040006FF0BFFE034574FFB965B3
:1004F0009385050088D12244B24041018280411198
:1005000006C622C400086F0040006F0000004111C1
:1005100006C622C400086F0040006F0000004111B1
:1005200006C622C400086F0040006F0000004111A1
:1005300006C622C400086F0040006F000000411191
:1005400006C622C400086F0040006F000000411181
:1005500006C622C400086F0040006F000000411171
:1005600006C622C400086F0040006F000000411161
:1005700006C622C400086F0040006F000000411151
:1005800006C622C400086F0040006F000000411141
:1005900006C622C400086F0040006F000000411131
:1005A00006C622C400086F0040006F000000411121
:1005B00006C622C400086F0040006F000000411111
:1005C00006C622C400086F0040006F000000411101
:1005D00006C622C400086F0040006F0000004111F1
:1005E00006C622C400086F0040006F0000004111E1
:1005F00006C622C400086F0040006F0000004111D1
:1006000006C622C400086F0040006F0000004111C0
:1006100006C622C400086F0040006F0000004111B0
:1006200006C622C400086F0040006F0000004111A0
:1006300006C622C400086F0040006F000000411190
:1006400006C622C400086F0040006F000000411180
:1006500006C622C400086F0040006F000000411170
:1006600006C622C400086F0040006F000000411160
:1006700006C622C400086F0040006F000000411150
:1006800006C622C400086F0040006F000000411140
:1006900006C622C400086F0040006F000000411130
:1006A00006C622C400086F0040006F000000411120
:1006B00006C622C400086F0040006F000000411110
:1006C00006C622C400086F0040006F000000411100
:1006D00006C622C400086F0040006F0000004111F0
:1006E00006C622C400086F0040006F0000004111E0
:1006F00006C622C400086F0040006F0000004111D0
:1007000006C622C400086F0040006F0000004111BF
:1007100006C622C400086F0040006F0000004111AF
:1007200006C622C400086F0040006F00000041119F
:1007300006C622C400086F0040006F00000041118F
:1007400006C622C400086F0040006F00000041117F
:1007500006C622C40008737004300965930505902D
:10076000014588C588C988CD88D188D588D988DDD4
:10077000A8C1A8C5A8C9A8CDA8D1C8C5C8C9C8CD91
:10078000C8D1C8D5C8D9C8DDE8C1E8C5E8C9E8CD31
:10079000E8D12244B24041018280011106CE22CC30
:1007A000001037157C00130545CA2328A4FE0965EF
:1007B000130505A02326A4FE73E0107C0145231B2E
:1007C000A4FE6F004000831564FF1305F006634B21
:1007D000B5026F004000032504FF93054500232860
:1007E000B4FE08418325C4FE138645002326C4FEBB
:1007F00088C16F004000031564FF0505231BA4FE9C
:100800006FF07FFC73F0107C6244F24005618280DF
:10081000411106C622C4000829202244B2404101E9
:100820008280411106C622C4000873E0107C39653D
:10083000930505808859370600F07D16718D88D99B
:10084000885937060020518D88D9C84D37060003D6
:10085000518DC8CDC841370600FD7D16718D370614
:100860000001518DC8C1C841370600F47D16718D55
:1008700037060004518DC8C173F0107C2244B24089
:1008800041018280411106C622C400080520E12EE4
:100890008120654505468D46B285971085FFE78026
:1008A00060768D282244B24041018280411106C603
:1008B00022C4000873E0107C3965930505C0130558
:1008C0008006A8C173F0107C2244B24041018280AE
:1008D000411106C622C4000873E0107C39659305F7
:1008E00005C0C8511375F5EFC8D1C8517999C8D161
:1008F000C8510966518DC8D1C8511166518DC8D1F2
:10090000C85113650540C8D173F0107C2244B24031
:1009100041018280411106C622C4000873E0107CA8
:100920003966930506C0094588CD032506C071992F
:10093000136525002320A6C088451365850088C55A
:10094000C84913651500C8C9C84913652500C8C939
:10095000C84913650510C8C9C84913650520C8C929
:10096000C84913650540C8C9C84513650510C8C501
:10097000C84513651500C8C5C84513652500C8C519
:10098000C84513654500C8C5C84513658500C8C579
:10099000C8490966518DC8C988451365150088C5C1
:1009A00088451365050188C588451365054088C5D8
:1009B00088451365051088C5C8451166518DC8C5A1
:1009C00088451365450088C573F0107C2244B24009
:1009D00041018280011106CE22CC0010232AA4FE00
:1009E0002328B4FE2326C4FE01456244F24005617B
:1009F0008280411106C622C4000813850188232A7B
:100A0000A4FE6F004000032544FF938501856371B8
:100A1000B5026F004000832544FF014588C16F0087
:100A20004000032544FF1105232AA4FE6FF0BFFDFB
:100A30002244B24041018280011106CE22CC001036
:100A400037157C00130505E7232AA4FE416513052D
:100A500005002328A4FE138501852326A4FE6F002C
:100A60004000032504FF8325C4FE6378B5026F00B0
:100A70004000032544FF03050500832504FF238070
:100A8000A500032504FF05052328A4FE032544FF34
:100A90000505232AA4FE6FF0DFFC6244F2400561E5
:100AA0008280011106CE22CC001037157C00130580
:100AB00005EC232AA4FE4965130505002328A4FE9E
:100AC00049651305051E2326A4FE6F00400003257B
:100AD00004FF8325C4FE6378B5026F004000032540
:100AE00044FF03050500832504FF2380A50003259B
:100AF00004FF05052328A4FE032544FF0505232A3A
:100B0000A4FE6FF0DFFC6244F240056182800111B7
:100B100006CE22CC001037157C001305050A232AC7
:100B2000A4FE130500002328A4FE130500002326BD
:100B3000A4FE6F004000032504FF8325C4FE6378F4
:100B4000B5026F004000032544FF0305050083251F
:100B500004FF2380A500032504FF05052328A4FE28
:100B6000032544FF0505232AA4FE6FF0DFFC624441
:100B7000F24005618280011106CE22CC00103715AB
:100B80007C001305050A232AA4FE056513050580CC
:100B90002328A4FE0565130505802326A4FE6F0007
:100BA0004000032504FF8325C4FE6378B5026F006F
:100BB0004000032544FF03050500832504FF23802F
:100BC000A500032504FF05052328A4FE032544FFF3
:100BD0000505232AA4FE6FF0DFFC6244F2400561A4
:100BE0008280411106C622C4000873E0107C39657A
:100BF000930505C013058006A8C173F0107C22443C
:100C0000B24041018280411106C622C4000873E04F
:100C1000107C3965930505C013058002A8C173F0E7
:100C2000107C2244B24041018280411106C622C498
:100C30000008453F73E0107CB96503A505C6136540
:100C4000150023A0A5C673F0107C6533F533913DE4
:100C50007D3D153797F084FFE780203D6D372244B6
:100C6000B2404101828037357A00834515FF89897A
:100C700085E973E0107C832505FC39662326B6C818
:100C8000832545FC97D684FF9386C6F7CCCE832573
:100C900085FC8CD20325C5FC2322A6C673F0107CEC
:100CA00082800000FE047C000E057C001E077C0094
:100CB0001E057C002E057C003E057C004E057C0058
:100CC0005E057C006E057C007E057C008E057C0048
:100CD0009E057C001E077C001E077C001E077C0012
:100CE0001E077C00AE057C00BE057C00CE057C00A6
:100CF000DE057C001E077C001E077C001E077C00B2
:100D00001E077C00EE057C001E077C001E077C0091
:100D10001E077C001E077C001E077C001E077C004F
:100D20001E077C00FE057C001E077C001E077C0061
:100D30001E077C001E077C001E077C001E077C002F
:100D40001E077C000E067C001E067C001E077C0031
:100D50001E077C001E077C001E077C001E077C000F
:100D60001E077C002E067C003E067C004E067C00A2
:100D70005E067C001E077C001E077C001E077C00B0
:100D80001E077C006E067C007E067C001E077C0031
:100D90001E077C001E077C001E077C001E077C00CF
:100DA0001E077C008E067C009E067C001E077C00D1
:100DB0001E077C001E077C001E077C001E077C00AF
:100DC0001E077C001E077C001E077C00AE067C0010
:100DD000BE067C00CE067C00DE067C00EE067C00B3
:100DE000FE067C001E077C001E077C001E077C00A0
:100DF0001E077C001E077C001E077C001E077C006F
:100E00001E077C000E077C001E077C001E077C006E
:100E10001E077C001E077C001E077C001E077C004E
:100E20001E077C002E077C001E077C001E077C002E
:100E30001E077C001E077C001E077C001E077C002E
:100E40001E077C003E077C001E077C001E077C00FE
:100E50001E077C001E077C001E077C001E077C000E
:040E60001E077C00ED
:100E700031112EC8F325007C2EC6F3250030010069
:100E80000B002566010073900530B2457390057C18
:100E9000C24551018280411106C622C4000873E098
:100EA000107C37057B0093050580114523A6A50A14
:0C0EB00073F0107C2244B24041018280AB
:100EC000011106CE22CC0010231BA4FE231AB4FE6F
:100ED0002319C4FE2318D4FE3965130505C0484103
:100EE0001D810D8981456301B5026F00400073E0EB
:100EF000107C3965930505C0C8411375F5E7C8C175
:100F000073F0107C6F0040003965130505C008556B
:100F100019813D89835544FF6306B5026F00400087
:100F200073E0107C035644FF3965930505C088556E
:100F30003D8A1A061375F5C3518D88D573F0107C60
:100F40006F0040003965130505C0085529813D89AA
:100F5000835524FF6308B5026F00400073E0107CE6
:100F6000035624FF3965930505C088553D8A2A0636
:100F7000F1769386F63F758D518D88D573F0107C90
:100F80006F0040003965130505C008551375F5035A
:100F9000835564FF6306B5026F00400073E0107C68
:100FA000035664FF3965930505C088551376F6032B
:100FB000137505FC518D88D573F0107C6F004000CF
:100FC000035504FF8545630BB5006F0040000355D2
:100FD00004FF89456316B5026F00400073E0107C82
:100FE000035604FF3965930505C0C8410D8A1E06E6
:100FF0001375F5E7518DC8C173F0107C6F00400088
:10100000035504FF8D456310B5046F00400073E085
:10101000107C3965930505C02326B4FEC8411375BD
:10102000F5E713650510C8C1056513051576EFD002
:101030003FE98325C4FEC84113650518C8C173F094
:10104000107C6F0040006F0040003965130505C03B
:101050004841058981456316B5006F0040006FF077
:10106000DFFE6244F24005618280411106C622C45F
:10107000000873E0107C37057B009305058003A50D
:10108000850A1365150023A4A50A114523A6A50A00
:0C10900073F0107C2244B24041018280C9
:02000004007D7D
:06FFE000B7007C008280E6
:10FFF000FFFFFFFFFFFFFFFFFFFFFFFFFFFFFFFF11
:04000005007C00007B
:00000001FF
