:0200000400708A
:1000000081400141814101428142014381430144D8
:1000100081440145814501468146014781470148A8
:10002000814801498149014A814A014B814B014C78
:10003000814C014D814D014E814E014F814FF9623E
:1000400073A002308542FE0263C3020001A0970242
:1000500000009382220473905230970191FF9381A4
:10006000617A170290FF1302D27D137202FC73258E
:1000700040F185456370B5001316150132921701E2
:1000800090FF130121786111EF00D05AEF006078E2
:100090006D7106C20AC40EC612C816CA1ACC1ECE8C
:1000A00022D026D22AD42ED632D836DA3ADC3EDE18
:1000B000C2C0C6C2CAC4CEC6D2C8D6CADACCDECE88
:1000C000E2D0E6D2EAD4EED6F2D8F6DAFADCFEDEF8
:1000D00073252034F32510340A86EF005030731056
:1000E000153489629382028073A0023092402241CB
:1000F000B2414242D2426243F243025492542255E8
:10010000B2554256D2566257F2570648964826498B
:10011000B649464AD64A664BF64B065C965C265D67
:10012000B65D465ED65E665FF65F51617300203055
:10013000411106C622C4000873E0107C396593059E
:100140000580C8597999C8D98845719913651500F2
:1001500088C588551365150088D588511365350005
:1001600088D1C8597599C8D988454D9913654500F6
:1001700088C588551365250088D588511365C50045
:1001800088D173F0107C2244B24041018280411139
:1001900006C622C42AC22EC0000809659305059030
:1001A00013050008C8C1824512452244B2404101EE
:1001B00073002030411106C622C40008396593053A
:1001C0000540154588D988591306150037152707A6
:1001D000130505E03356C5029356760037964F0156
:1001E000130696B5B3B6C6029582ED16D4C59459DA
:1001F00085063355D5021D813335C50215816D1530
:1002000088C913050002C8D11965C8D90965130545
:10021000050488DD73E0107C370570001305E518D0
:100220008965938505A023A0A50E73F0107CB715F2
:10023000100003A505C11365050823A8A5C07360B8
:1002400004302244B24041018280411106C622C4DA
:100250000008F93D396593058583884D13651500C0
:1002600088CD0145231AA4FE6F004000835544FF4A
:100270002545634DB5006F0040006F004000031539
:1002800044FF0505231AA4FE6FF05FFE3965930550
:100290008583884D1365250088CD0145231AA4FE6A
:1002A0006F004000835544FF2545634DB5006F0046
:1002B00040006F004000031544FF0505231AA4FE0B
:1002C0006FF05FFE396593058583C84D1365150092
:1002D000C8CD0145231AA4FE6F004000835544FF9A
:1002E0002545634DB5006F0040006F0040000315C9
:1002F00044FF0505231AA4FE6FF05FFE39659305E0
:100300008583C84D13652500C8CD0145231AA4FE79
:100310006F004000835544FF2545634DB5006F00D5
:1003200040006F004000031544FF0505231AA4FE9A
:100330006FF05FFE396593058583884D1365150061
:1003400088CD0145231AA4FE6F004000835544FF69
:100350002545634DB5006F0040006F004000031558
:1003600044FF0505231AA4FE6FF05FFE0145231B21
:10037000A4FE6F004000835564FF21456345B50826
:100380006F004000396593058583884D136525000E
:1003900088CD0145231AA4FE6F004000835544FF19
:1003A0002545634DB5006F0040006F004000031508
:1003B00044FF0505231AA4FE6FF05FFE396593051F
:1003C0008583C84D13652500C8CD0145231AA4FEB9
:1003D0006F004000835544FF2545634DB5006F0015
:1003E00040006F004000031544FF0505231AA4FEDA
:1003F0006FF05FFE6F004000031564FF0505231BCF
:10040000A4FE6FF05FF7396593058583884D13650A
:10041000250088CD0145231AA4FE6F0040008355B6
:1004200044FF2545634DB5006F0040006F0040005C
:10043000031544FF0505231AA4FE6FF05FFE39651E
:1004400093058583C84D13651500C8CD0145231A52
:10045000A4FE6F004000835544FF2545634DB50061
:100460006F0040006F004000031544FF0505231A8C
:10047000A4FE6FF05FFE396593058583C84D136553
:100480002500C8CD0145231AA4FE6F004000835506
:1004900044FF2545634DB5006F0040006F004000EC
:1004A000031544FF0505231AA4FE6FF05FFE3965AE
:1004B00093058583884D1365250088CD0145231A52
:1004C000A4FE6F004000835544FF2545634DB500F1
:1004D0006F0040006F004000031544FF0505231A1C
:1004E000A4FE6FF05FFE396593058583884D136523
:1004F000150088CD0145231AA4FE6F0040008355E6
:1005000044FF2545634DB5006F0040006F0040007B
:10051000031544FF0505231AA4FE6FF05FFE39653D
:1005200093058583C84D13652500C8CD0145231A61
:10053000A4FE6F004000835544FF2545634DB50080
:100540006F0040006F004000031544FF0505231AAB
:10055000A4FE6FF05FFE2244B2404101828001118F
:1005600006CE22CC00102328A4FE396513050540D1
:1005700048512D8105898145630BB5006F0040000E
:10058000156513055555231BA4FE6F00E009396559
:100590001305054008453181058981456309B5008A
:1005A0006F0040000565231BA4FE6F00E0070325D4
:1005B00004FF03558501B96593850540C8CD014504
:1005C0002317A4FE6F0040000355E4FE832504FFBB
:1005D00083D5C5016359B5026F004000032504FFB0
:1005E0008355E4FE86052E9503556502B96593850E
:1005F000054088D16F0040000315E4FE0505231770
:10060000A4FE6FF07FFC032504FF0355C501B96507
:1006100093850540C8C90D65130505E2C8D101459C
:10062000231BA4FE6F004000035564FF6244F240A8
:1006300005618280411106C622C40008232AA4FE57
:10064000032544FF03558501B96593850540C8CD51
:10065000032544FF0355C501C8C90D65130505C22F
:10066000C8D101452244B24041018280011106CE29
:1006700022CC0010A30BA4FE230BB4FE416513058E
:1006800085082326A4FE85452328B4FE231EB50035
:10069000830574FF231CB500830564FF2313B50293
:1006A0007D3D8325C4FE032504FF01462397C50233
:1006B000239BA5006F0040003965130505400845E0
:1006C0001375050281456315B5046F00400041654F
:1006D000130585080355E50291456349B5026F008E
:1006E0004000A5364165930585080145239BA5007B
:1006F000396593050540C851056613060680518D7E
:10070000C8D141657D1588C56F0080006FF0DFFAA4
:1007100039659305054088451365050288C562441F
:10072000F24005618280011106CE22CC0010A30B9D
:10073000A4FE2328B4FE4165130585082326A4FEE4
:100740008545231EB500830574FF231CB500DD35E8
:100750008325C4FE01452397A5020D45239BA500D3
:100760006F00400039651305054008451375050203
:1007700081456315B5046F00400041651305850888
:100780000355E50291456349B5026F004000753C91
:100790004165930585080145239BA50039659305AF
:1007A0000540C851056613060680518DC8D14165C4
:1007B0007D1588C56F0080006FF0DFFA39659305FD
:1007C000054088451365050288C541659305850880
:1007D00001452397A5021145239BA5006F0040000A
:1007E000396513050540085D21817D898145630ECA
:1007F000B5006F004000396513050540084D83259D
:1008000004FF2380A5006FF0BFFD6244F240056144
:100810008280797106D622D4001801452326A4FED1
:10082000232AA4FEEF00902B992C73700430EF0064
:10083000901E0325C4FEB715100023A8A5C0B71548
:10084000100023A8A5D0EF00D0219D2CD5309D32DB
:10085000C545A380B18883851188130540023935C9
:1008600041652328A4FE8305050013054003FD3BD5
:10087000032504FF8305050013055003C53B03252D
:1008800004FF8305050013056003CD33032504FF32
:100890008305050013057003D13B736004306F00BE
:1008A00040001385818E484115819305100E6366C3
:1008B000B51C6F0040009385818E0145C8C1396524
:1008C0009305858388511365450088D183952188D8
:1008D00085052391B18803D521889305803E63491E
:1008E000B5006F00400001452391A1886F004000D2
:1008F000232CA4FC03D52188B785EB519385F551B2
:100900003335B5021581C165938505002322B4FEF8
:100910002E958305050013055003893B032584FDAF
:10092000832544FE03D5218837D6CCCC1306D6CCFC
:10093000232EC4FC3335C5020D8137666666130667
:1009400076663316C5020982A9462320D4FE3306F3
:10095000D602118D2E9583050500130560033933EA
:10096000032584FD0326C4FD832604FE832544FE5F
:1009700003D521883336C5020D823306D602118D88
:100980002E958305050013057003CD3141652324A1
:10099000A4FE93050508130540027133032584FE68
:1009A0000305050893054004631BB5026F00400072
:1009B0008385418885052382B18883C54188BD89A7
:1009C0002382B18803854188C165938505002E95F2
:1009D000830505001305400351396F004000416550
:1009E000030505089305C0046313B5026F004000BA
:1009F000838511889385050293F5F507A380B18857
:100A0000838511881305400295316F0040004165D0
:100A10000305050893054005631FB5046F004000FA
:100A200001452391A1882382A1884165232AA4FC42
:100A300083050500130540031539032544FD83058F
:100A40000500130550031D31032544FD83050500F2
:100A5000130560032139032544FD830505001305B3
:100A60007003293139659305858388511365052005
:100A700088D16F0040006F0040006FF09FE241118D
:100A800006C622C4000873E0107C39659305058012
:100A900088451375F5FC88C588551365450088D5CC
:100AA00088453706F4FF7D16718D88C58855136516
:100AB000052088D573F0107C2244B2404101828029
:100AC000411106C622C4000865261385818EB7052C
:100AD000404037067A4429290965930505808845F1
:100AE0001166518D88C588453D9988C573E0107C95
:100AF000371570001305A5B28965938505A088CDCB
:100B000073F0107CB715100003A505C1136515001F
:100B100023A8A5C0096593050590884513650504BC
:100B200088C52244B24041018280011106CE22CC08
:100B30002ACA2EC832C600109385818EC841050589
:100B4000C8C10145A305A4FE6F0040008305B4FEA3
:100B500005456349B5066F0040000305B4FE938563
:100B600001810A052E9508410355650181456319E8
:100B7000B5006F00400001452322A4FE6F00000273
:100B80000305B4FE938501810A052E95084103559E
:100B9000E50205052322A4FE6F004000032544FE64
:100BA0008305B4FE138601818A05B2958C41239793
:100BB000A5026F0040000305B4FE0505A305A4FED1
:100BC0006FF0DFF80965930505900545C8C1324609
:100BD000C24552456244F240056173002030011164
:100BE00006CE22CC0010232AA4FE2328B4FE2326FE
:100BF000C4FE01456244F24005618280411106C68F
:100C000022C4000813850188232AA4FE6F00400037
:100C1000032544FF938581916371B5026F00400005
:100C2000832544FF014588C16F004000032544FF30
:100C30001105232AA4FE6FF0BFFD2244B2404101FA
:100C40008280011106CE22CC0010371570001305EA
:100C50000577232AA4FE4165130505002328A4FE79
:100C6000138581812326A4FE6F004000032504FF25
:100C70008325C4FE6378B5026F004000032544FF5E
:100C800003050500832504FF2380A500032504FF39
:100C900005052328A4FE032544FF0505232AA4FEF9
:100CA0006FF0DFFC6244F24005618280011106CEE4
:100CB00022CC00103715700013058578232AA4FE76
:100CC0005165130505002328A4FE51651305051E73
:100CD0002326A4FE6F004000032504FF8325C4FEE5
:100CE0006378B5026F004000032544FF030505004B
:100CF000832504FF2380A500032504FF0505232881
:100D0000A4FE032544FF0505232AA4FE6FF0DFFCA3
:100D10006244F24005618280011106CE22CC0010AF
:100D20003725700013058596232AA4FE13050000BD
:100D30002328A4FE130500002326A4FE6F00400014
:100D4000032504FF8325C4FE6378B5026F004000CD
:100D5000032544FF03050500832504FF2380A50028
:100D6000032504FF05052328A4FE032544FF0505EC
:100D7000232AA4FE6FF0DFFC6244F240056182800A
:100D8000011106CE22CC0010372570001305859680
:100D9000232AA4FE0565130505802328A4FE056506
:100DA000130505802326A4FE6F004000032504FFE1
:100DB0008325C4FE6378B5026F004000032544FF1D
:100DC00003050500832504FF2380A500032504FFF8
:100DD00005052328A4FE032544FF0505232AA4FEB8
:100DE0006FF0DFFC6244F24005618280411106C66B
:100DF00022C4000873E0107C3965930505C0130513
:100E00008006A8C173F0107C2244B2404101828068
:100E1000411106C622C4000873E0107C39659305B1
:100E200005C013058002A8C173F0107C2244B240B3
:100E300041018280411106C622C40008453F73E08B
:100E4000107CB96503A505C61365150023A0A5C6CA
:100E500073F0107C6533F533913D7D3D1537973048
:100E600091FFE780201A6D372244B2404101828011
:100E7000411106C622C4000809651307058023A492
:100E8000E18EFD5654C3014548C71047136606015D
:100E900010C710471366060210C79385818EC8C11C
:100EA00089659387058123ACF18E89651387058257
:100EB00023A4E190D4C354C3C8C748C7944793E65A
:100EC000060194C7144793E6060114C7944793E6B6
:100ED000060294C7144793E6060214C71386818F4F
:100EE00048C293858190C8C12244B24041018280AA
:100EF000011106CE22CC0010232AA4FE2328B4FE22
:100F00002326C4FE032504FF832544FF88C503254B
:100F1000C4FE832544FFC8C5032504FF8325C4FE02
:100F2000992B11252324A4FE032584FE832544FF49
:100F30008C41C8C1032544FF0C410145C8C5832528
:100F400044FF90410C4693E505010CC6832544FF00
:100F500090410C4693E505020CC6832544FF904161
:100F60000C469166D58D0CC6832544FFC8C16244EA
:100F7000F24005618280411106C622C400086F005C
:100F800040006F000000411106C622C400086F0037
:100F900040006F000000411106C622C400086F0027
:100FA00040006F000000411106C622C400086F0017
:100FB00040006F000000411106C622C400086F0007
:100FC00040006F000000411106C622C400086F00F7
:100FD00040006F000000411106C622C400086F00E7
:100FE00040006F000000411106C622C400086F00D7
:100FF00040006F000000411106C622C400086F00C7
:1010000040006F000000411106C622C400086F00B6
:1010100040006F000000411106C622C400086F00A6
:1010200040006F000000411106C622C400086F0096
:1010300040006F000000411106C622C400086F0086
:1010400040006F000000411106C622C400086F0076
:1010500040006F000000411106C622C400086F0066
:1010600040006F000000411106C622C400086F0056
:1010700040006F000000411106C622C400086F0046
:1010800040006F000000411106C622C400086F0036
:1010900040006F000000411106C622C400086F0026
:1010A00040006F000000411106C622C400086F0016
:1010B00040006F000000411106C622C400086F0006
:1010C00040006F000000411106C622C400086F00F6
:1010D00040006F000000411106C622C400086F00E6
:1010E00040006F000000411106C622C400086F00D6
:1010F00040006F000000411106C622C400086F00C6
:1011000040006F000000411106C622C400086F00B5
:1011100040006F000000411106C622C400086F00A5
:1011200040006F000000411106C622C400086F0095
:1011300040006F000000411106C622C400086F0085
:1011400040006F000000411106C622C400086F0075
:1011500040006F000000411106C622C400086F0065
:1011600040006F000000411106C622C400086F0055
:1011700040006F000000411106C622C400086F0045
:1011800040006F000000411106C622C400086F0035
:1011900040006F000000411106C622C400086F0025
:1011A00040006F000000411106C622C400086F0015
:1011B00040006F000000411106C622C400086F0005
:1011C00040006F000000411106C622C400086F00F5
:1011D00040006F000000411106C622C400086F00E5
:1011E00040006F000000411106C622C400086F00D5
:1011F00040006F000000411106C622C400086F00C5
:1012000040006F000000411106C622C400086F00B4
:1012100040006F000000411106C622C40008737030
:101220000430096593050590014588C588C988CDB6
:1012300088D188D588D988DDA8C1A8C5A8C9A8CD76
:10124000A8D1C8C5C8C9C8CDC8D1C8D5C8D9C8DDF6
:10125000E8C1E8C5E8C9E8CDE8D12244B24041017F
:101260008280011106CE22CC0010371570001305C4
:10127000C55A2328A4FE0965130505A02326A4FE4C
:1012800073E0107C0145231BA4FE6F004000831512
:1012900064FF1305F006634BB5026F0040000325A1
:1012A00004FF930545002328B4FE08418325C4FEAE
:1012B000138645002326C4FE88C16F004000031535
:1012C00064FF0505231BA4FE6FF07FFC73F0107C08
:1012D000736004306244F24005618280411106C6A9
:1012E00022C4000831286924352829458D459730C6
:1012F00091FFE78080D38D282244B2404101828053
:10130000411106C622C4000873E0107C39659305BC
:1013100005C013058006A8C173F0107C2244B240BA
:1013200041018280411106C622C4000873E0107C8E
:101330003965930505C0C8511375F5EFC8D1C8517B
:101340007999C8D1C8510966518DC8D1C851116663
:10135000518DC8D1C85113650540C8D173F0107CB8
:101360002244B24041018280411106C622C40008D5
:1013700073E0107C3966930506C0094588CD0325C6
:1013800006C07199136525002320A6C08845136502
:10139000850088C588451365250088C5C84913653B
:1013A0001500C8C9C84913652500C8C9C8491365CF
:1013B0004500C8C9C84913650510C8C9C84913659F
:1013C0000520C8C9C84913650540C8C9C845136583
:1013D0000510C8C5C84513651500C8C5C8451365BF
:1013E0002500C8C5C84513654500C8C5C84513656F
:1013F0008500C8C5C84513650501C8C5C84513653E
:101400000502C8C5C84513650504C8C5C8490966AD
:10141000518DC8C988451365150088C58845136571
:10142000050188C588451365054088C5884513654D
:10143000051088C588451365052088C5884511664F
:10144000518D88C588491365051088C98849136579
:10145000052088C9C845518DC8C5C8452166518D2C
:10146000C8C588451365450088C573F0107C2244C3
:10147000B24041018280370700809302F00FB347EA
:10148000B500F98F13161500618293961500E1825D
:1014900029CEBDC6630F56046389560636962205CB
:1014A000598DA205D98DB306B5023335B502B336D1
:1014B000D000558D6344050006057D16130616F809
:1014C00063480604FD12635F56009316850121816F
:1014D0005E06329563D606000505860691E2799987
:1014E0005D8D82803705807FE5BF638D56003E8528
:1014F0008280260501E9E39756FEA60581E5DDB762
:10150000E31756FE3705C07F8280A605E5FDD9BFEB
:10151000050671FE2185930215000905E39902FC79
:101520003705800075BF9357F54113161500935585
:101530008601938515F863CF0500B70600807D47C7
:101540000D8F635BE0002205558D3355E5003D8D21
:101550001D8D82800145828013C7F6FFB70500FF0D
:1015600063F3C500798D758D634305003A858280EC
:1015700037457A00834515BF898985E973E0107C7A
:101580008325058E17C690FF1306C6674CCE8325AC
:10159000458E0CD28325858E39662326B6C8032551
:1015A000C58E2328A6C873F0107C8280760F700049
:1015B000860F7000E6117000960F7000A60F700085
:1015C000B60F7000C60F7000D60F7000E60F7000E7
:1015D000F60F70000610700016107000E611700013
:1015E000E6117000E6117000E61170002610700020
:1015F000361070004610700056107000E611700032
:10160000E6117000E6117000E611700066107000BF
:1016100066107000E6117000E6117000E6117000AF
:10162000E6117000E6117000E6117000761070008F
:10163000E6117000E6117000E6117000E61170000E
:10164000E6117000E6117000E6117000861070005F
:1016500096107000E6117000E6117000E61170003F
:10166000E6117000E6117000E6117000A61070001F
:10167000B6107000C6107000D6107000E610700032
:10168000F6107000E6117000E6117000061170008F
:10169000E6117000E6117000E6117000E6117000AE
:1016A000E6117000E6117000E6117000161170006E
:1016B000261170003611700046117000561170002E
:1016C00066117000E6117000E6117000E6117000FE
:1016D000E61170007611700086117000961170008E
:1016E000A6117000B6117000C6117000E6117000EE
:1016F000E6117000E6117000E6117000E61170004E
:10170000E6117000E6117000E6117000D61170004D
:10171000E6117000E6117000E6117000E61170002D
:10172000E6117000E6117000E6117000F61170000D
:10173000E6117000E6117000E6117000E61170000D
:10174000E6117000E6117000E611700006127000DC
:10175000E6117000E6117000E6117000E6117000ED
:0C176000E6117000E6117000E611700048
:101770003F065B4F666D7D077F6F777C395E7971C1
:0817800088000100B80001001F
:10178800411106C622C4000873E0107C37057B00AF
:1017980093050580114523A6A50A73F0107C224401
:1017A800B24041018280411106C622C40008231BB1
:1017B800A4FE231AB4FE3965130505C048411D81EE
:1017C8000D8981456301B5026F00400073E0107C0C
:1017D8003965930505C0C8411375F5E7C8C173F0AD
:1017E800107C6F0040003965130505C008557D89D8
:1017F800835564FF6306B5046F00400073E0107CF6
:10180800035664FF3965930505C088557D8A01999B
:10181800518D88D573F0107C97D06E00E7808026B4
:101828006F0040003965130505C0484105898145A9
:101838006316B5006F0040006FF0DFFE6F004000D8
:10184800035544FF8545630BB5006F004000035501
:1018580044FF89456316B5026F00400073E0107CB1
:10186800035644FF3965930505C0C8410D8A1E0615
:101878001375F5E7518DC8C173F0107C6F004000F7
:10188800035544FF8D45631FB5026F00400073E0A8
:10189800107C3965930505C02328B4FEC84113752B
:1018A800F5E713650510C8C10565130515765920B8
:1018B800832504FFC84113650518C8C173F0107C5F
:1018C8006F0040002244B24041018280411106C6A7
:1018D80022C4000873E0107C37057B00930505805F
:1018E80003A5850A1365150023A4A50A114523A697
:1018F800A50A05651305959D23A0A508130570275E
:1019080023A8A50A1305D04E23ACA50A37752600CF
:101918001305153C23A2A50823A4A5080D651305E6
:10192800951323AAA50A73F0107C2244B240410102
:101938008280000031112EC8F325007C2EC6F325C5
:10194800003001000B002566010073900530B24598
:0A1958007390057CC24551018280A6
:02000004007387
:06FFE800B70070008280EA
:10FFF000FFFFFFFFFFFFFFFFFFFFFFFFFFFFFFFF11
:040000050070000087
:00000001FF
