:02000004007C7E
:1000000081400141814101428142014381430144D8
:1000100081440145814501468146014781470148A8
:10002000814801498149014A814A014B814B014C78
:10003000814C014D814D014E814E014F814FF9623E
:1000400073A002308542FE0263C3020001A0970242
:1000500000009382220473905230970185FF9381B0
:10006000617A170284FF1302D27D137202FC73259A
:1000700040F185456370B5001316150132921701E2
:1000800084FF130121786111EF00B034EF00400FBD
:100090006D7106C20AC40EC612C816CA1ACC1ECE8C
:1000A00022D026D22AD42ED632D836DA3ADC3EDE18
:1000B000C2C0C6C2CAC4CEC6D2C8D6CADACCDECE88
:1000C000E2D0E6D2EAD4EED6F2D8F6DAFADCFEDEF8
:1000D00073252034F32510340A86EF00300A73109C
:1000E000153489629382028073A0023092402241CB
:1000F000B2414242D2426243F243025492542255E8
:10010000B2554256D2566257F2570648964826498B
:10011000B649464AD64A664BF64B065C965C265D67
:10012000B65D465ED65E665FF65F51617300203055
:10018000011106CE22CC001001452326A4FE232A0D
:10019000A4FE692D992AD12B0325C4FEB7151000A2
:1001A00023A8A5C0B715100023A8A5D0292573E062
:1001B000107C37057C00130585468965938505A06D
:1001C00023A0A50A37057C001305A53D23A2A50A97
:1001D00073F0107C812A0325C4FE2319A4FE6F004E
:1001E0004000835524FF05456347B5026F0040007A
:1001F000035524FFC1651386050893151500B295B4
:100200002390A5006F004000031524FF0505231966
:10021000A4FE6FF01FFD01452394A188B7151000BF
:1002200003A505C11365050223A8A5C009659305AB
:10023000059088591365150088D9885913652500DC
:1002400088D9736004306F00400001452319A4FE73
:100250006F004000835524FF0545634BB5046F00D4
:100260004000835524FF41651305050886052E953A
:100270000355050013864188B29583D50500631A9E
:10028000B5006F004000C16505452380A5006F00E3
:100290000001C16501452380A5006F0040006F008B
:1002A0004000031524FF05052319A4FE6FF09FFAF3
:1002B00041650345050005898145630DB5006F0063
:1002C0004000396593058583C84D13651500C8CD79
:1002D0006F006001396593058583884D13651500AE
:1002E00088CD6F0040006FF05FF6411106C622C452
:1002F000000873E0107C3965930505808845719985
:1003000088C588551365150088D53965930585839B
:10031000884D1365150088CD73F0107C2244B240DF
:1003200041018280411106C622C40008BD6503A5B3
:1003300005801375F5F723A0A58003A50580136537
:10034000F50023A0A58003A505801365050123A062
:10035000A5801386058048421365150048C24842AF
:100360001365450048C248421365250048C248420B
:100370001365050148C21305300648C60852A16638
:10038000558D08D208529166558D08D2085289665B
:10039000558D08D208521365050208D208520199FA
:1003A0001365250008D24852558D48D2485213652E
:1003B000050248D2485201991365250048D2485693
:1003C0001365050248D603A505801365050823A01B
:1003D000A5802244B24041018280011106CE22CC88
:1003E0002ACA2EC832C6001001452315A4FE6F008C
:1003F00040008355A4FE05456343B5046F004000EB
:100400000355A4FEC1659385050806052E95035581
:1004100005003D661306068008CE0355A4FE0605BA
:10042000AA950395050005052390A5006F004000DF
:100430000315A4FE05052315A4FE6FF09FFB3D6583
:100440009305058088511365050488D109659305D6
:10045000059013050002C8C13246C24552456244A8
:10046000F240056173002030011106CE22CC2ACA69
:100470002EC832C6001001452315A4FE6F004000AF
:100480008355A4FE0545634CB5046F0040003D65EF
:100490001305058048490356A4FE93854188060646
:1004A0002E962310A6000356A4FE131516002E95B3
:1004B0000355050083D58188B2956309B5006F00A7
:1004C000400001006F0040006F0000006F0040001E
:1004D0000315A4FE05052315A4FE6FF07FFA03950E
:1004E000818805052394A1883D6593050580C85141
:1004F0001166518DC8D1C85113650504C8D109656D
:100500009305059013050002C8C13246C245524505
:100510006244F240056173002030411106C622C4D6
:1005200000086F0040006F000000411106C622C4A1
:1005300000086F0040006F000000411106C622C491
:1005400000086F0040006F000000411106C622C481
:1005500000086F0040006F000000411106C622C471
:1005600000086F0040006F000000411106C622C461
:1005700000086F0040006F000000411106C622C451
:1005800000086F0040006F000000411106C622C441
:1005900000086F0040006F000000411106C622C431
:1005A00000086F0040006F000000411106C622C421
:1005B00000086F0040006F000000411106C622C411
:1005C00000086F0040006F000000411106C622C401
:1005D00000086F0040006F000000411106C622C4F1
:1005E00000086F0040006F000000411106C622C4E1
:1005F00000086F0040006F000000411106C622C4D1
:1006000000086F0040006F000000411106C622C4C0
:1006100000086F0040006F000000411106C622C4B0
:1006200000086F0040006F000000411106C622C4A0
:1006300000086F0040006F000000411106C622C490
:1006400000086F0040006F000000411106C622C480
:1006500000086F0040006F000000411106C622C470
:1006600000086F0040006F000000411106C622C460
:1006700000086F0040006F000000411106C622C450
:1006800000086F0040006F000000411106C622C440
:1006900000086F0040006F000000411106C622C430
:1006A00000086F0040006F000000411106C622C420
:1006B00000086F0040006F000000411106C622C410
:1006C00000086F0040006F000000411106C622C400
:1006D00000086F0040006F000000411106C622C4F0
:1006E00000086F0040006F000000411106C622C4E0
:1006F00000086F0040006F000000411106C622C4D0
:1007000000086F0040006F000000411106C622C4BF
:1007100000086F0040006F000000411106C622C4AF
:1007200000086F0040006F000000411106C622C49F
:1007300000086F0040006F000000411106C622C48F
:1007400000086F0040006F000000411106C622C47F
:1007500000086F0040006F000000411106C622C46F
:1007600000086F0040006F000000411106C622C45F
:10077000000873700430096593050590014588C52C
:1007800088C988CD88D188D588D988DDA8C1A8C571
:10079000A8C9A8CDA8D1C8C5C8C9C8CDC8D1C8D511
:1007A000C8D9C8DDE8C1E8C5E8C9E8CDE8D1224428
:1007B000B24041018280011106CE22CC00103715D3
:1007C0007C001305C5C42328A4FE0965130505A0F4
:1007D0002326A4FE73E0107C0145231BA4FE6F00BA
:1007E0004000831564FF1305F006634BB5026F00EC
:1007F0004000032504FF930545002328B4FE08416B
:100800008325C4FE138645002326C4FE88C16F00DD
:100810004000031564FF0505231BA4FE6FF07FFC59
:1008200073F0107C6244F24005618280411106C67B
:1008300022C400080520E12E8120654505468D462D
:10084000B285971085FFE780E07B8D282244B24077
:1008500041018280411106C622C4000873E0107C69
:100860003965930505C013058006A8C173F0107C97
:100870002244B24041018280411106C622C40008D0
:1008800073E0107C3965930505C0C8511375F5EF09
:10089000C8D1C8517999C8D1C8510966518DC8D1FC
:1008A000C8511166518DC8D1C85113650540C8D1D2
:1008B00073F0107C2244B24041018280411106C68F
:1008C00022C4000873E0107C3966930506C0094510
:1008D00088CD032506C07199136525002320A6C085
:1008E00088451365850088C5C84913651500C8C9C2
:1008F000C84913652500C8C9C84913650510C8C98A
:10090000C84913650520C8C9C84913650540C8C949
:10091000C84513650510C8C5C84513651500C8C589
:10092000C84513652500C8C5C84513654500C8C539
:10093000C84513658500C8C5C8490966518DC8C931
:1009400088451365150088C588451365050188C568
:1009500088451365054088C588451365051088C519
:10096000C8451166518DC8C588451365450088C5C1
:1009700073F0107C2244B24041018280011106CE06
:1009800022CC0010232AA4FE2328B4FE2326C4FE72
:1009900001456244F24005618280411106C622C4CD
:1009A000000813850188232AA4FE6F004000032558
:1009B00044FF938501896371B5026F004000832570
:1009C00044FF014588C16F004000032544FF110525
:1009D000232AA4FE6FF0BFFD2244B2404101828071
:1009E000011106CE22CC001037157C00130505E15D
:1009F000232AA4FE4165130505002328A4FE1385C0
:100A000001852326A4FE6F004000032504FF8325F3
:100A1000C4FE6378B5026F004000032544FF030560
:100A20000500832504FF2380A500032504FF050599
:100A30002328A4FE032544FF0505232AA4FE6FF006
:100A4000DFFC6244F24005618280011106CE22CCB7
:100A5000001037157C00130505E6232AA4FE49651E
:100A6000130505002328A4FE49651305051E23264A
:100A7000A4FE6F004000032504FF8325C4FE6378B5
:100A8000B5026F004000032544FF030505008325E0
:100A900004FF2380A500032504FF05052328A4FEE9
:100AA000032544FF0505232AA4FE6FF0DFFC624402
:100AB000F24005618280011106CE22CC001037156C
:100AC0007C0013050504232AA4FE13050000232837
:100AD000A4FE130500002326A4FE6F00400003259A
:100AE00004FF8325C4FE6378B5026F004000032530
:100AF00044FF03050500832504FF2380A50003258B
:100B000004FF05052328A4FE032544FF0505232A29
:100B1000A4FE6FF0DFFC6244F240056182800111A7
:100B200006CE22CC001037157C0013050504232ABD
:100B3000A4FE0565130505802328A4FE056513059D
:100B400005802326A4FE6F004000032504FF8325B3
:100B5000C4FE6378B5026F004000032544FF03051F
:100B60000500832504FF2380A500032504FF050558
:100B70002328A4FE032544FF0505232AA4FE6FF0C5
:100B8000DFFC6244F24005618280411106C622C446
:100B9000000873E0107C3965930505C013058006D5
:100BA000A8C173F0107C2244B240410182804111FF
:100BB00006C622C4000873E0107C3965930505C0A1
:100BC00013058002A8C173F0107C2244B240410199
:100BD0008280411106C622C40008453F73E0107CA4
:100BE000B96503A505C61365150023A0A5C673F056
:100BF000107C6533F533913D7D3D153797F084FFCB
:100C0000E780E0426D372244B240410182803735AF
:100C10007A00834515FF898985E973E0107C832577
:100C200005FC39662326B6C8832545FC97D684FF84
:100C3000938646FDCCCE832585FC8CD20325C5FC4E
:100C40002322A6C673F0107C828000001A057C0067
:100C50002A057C003A077C003A057C004A057C00A6
:100C60005A057C006A057C007A057C008A057C00B8
:100C70009A057C00AA057C00BA057C003A077C0036
:100C80003A077C003A077C003A077C00CA057C00E2
:100C9000DA057C00EA057C00FA057C003A077C0056
:100CA0003A077C003A077C003A077C000A067C0081
:100CB0003A077C003A077C003A077C003A077C0040
:100CC0003A077C003A077C003A077C001A067C0051
:100CD0003A077C003A077C003A077C003A077C0020
:100CE0003A077C003A077C003A077C002A067C0021
:100CF0003A067C003A077C003A077C003A077C0001
:100D00003A077C003A077C003A077C004A067C00E0
:100D10005A067C006A067C007A067C003A077C0052
:100D20003A077C003A077C003A077C008A067C0080
:100D30009A067C003A077C003A077C003A077C0060
:100D40003A077C003A077C003A077C00AA067C0040
:100D5000BA067C003A077C003A077C003A077C0020
:100D60003A077C003A077C003A077C003A077C008F
:100D70003A077C00CA067C00DA067C00EA067C00A2
:100D8000FA067C000A077C001A077C003A077C0000
:100D90003A077C003A077C003A077C003A077C005F
:100DA0003A077C003A077C003A077C002A077C005F
:100DB0003A077C003A077C003A077C003A077C003F
:100DC0003A077C003A077C003A077C004A077C001F
:100DD0003A077C003A077C003A077C003A077C001F
:100DE0003A077C003A077C003A077C005A077C00EF
:100DF0003A077C003A077C003A077C003A077C00FF
:0C0E00003A077C003A077C003A077C00AF
:100E10000100000031112EC8F325007C2EC6F325F9
:100E2000003001000B002566010073900530B245CB
:100E30007390057CC24551018280411106C622C4CF
:100E4000000873E0107C37057B0093050580114591
:100E500023A6A50A73F0107C2244B240410182808F
:100E6000011106CE22CC0010231BA4FE231AB4FECF
:100E70002319C4FE2318D4FE3965130505C0484163
:100E80001D810D8981456301B5026F00400073E04B
:100E9000107C3965930505C0C8411375F5E7C8C1D5
:100EA00073F0107C6F0040003965130505C00855CC
:100EB00019813D89835544FF6306B5026F004000E8
:100EC00073E0107C035644FF3965930505C08855CF
:100ED0003D8A1A061375F5C3518D88D573F0107CC1
:100EE0006F0040003965130505C0085529813D890B
:100EF000835524FF6308B5026F00400073E0107C47
:100F0000035624FF3965930505C088553D8A2A0696
:100F1000F1769386F63F758D518D88D573F0107CF0
:100F20006F0040003965130505C008551375F503BA
:100F3000835564FF6306B5026F00400073E0107CC8
:100F4000035664FF3965930505C088551376F6038B
:100F5000137505FC518D88D573F0107C6F0040002F
:100F6000035504FF8545630BB5006F004000035532
:100F700004FF89456316B5026F00400073E0107CE2
:100F8000035604FF3965930505C0C8410D8A1E0646
:100F90001375F5E7518DC8C173F0107C6F004000E8
:100FA000035504FF8D456310B5046F00400073E0E6
:100FB000107C3965930505C02326B4FEC84113751E
:100FC000F5E713650510C8C1056513051576EFD063
:100FD0007FE98325C4FEC84113650518C8C173F0B5
:100FE000107C6F0040006F0040003965130505C09C
:100FF0004841058981456316B5006F0040006FF0D8
:10100000DFFE6244F24005618280411106C622C4BF
:10101000000873E0107C37057B009305058003A56D
:10102000850A1365150023A4A50A114523A6A50A60
:0C10300073F0107C2244B2404101828029
:02000004007D7D
:06FFE000B7007C008280E6
:10FFF000FFFFFFFFFFFFFFFFFFFFFFFFFFFFFFFF11
:04000005007C00007B
:00000001FF
