:02000004007C7E
:1000000081400141814101428142014381430144D8
:1000100081440145814501468146014781470148A8
:10002000814801498149014A814A014B814B014C78
:10003000814C014D814D014E814E014F814FF9623E
:1000400073A002308542FE0263C3020001A0970242
:1000500000009382220473905230970185FF9381B0
:10006000617A170284FF1302D27D137202FC73259A
:1000700040F185456370B5001316150132921701E2
:1000800084FF130121786111EF00D057EF00804702
:100090006D7106C20AC40EC612C816CA1ACC1ECE8C
:1000A00022D026D22AD42ED632D836DA3ADC3EDE18
:1000B000C2C0C6C2CAC4CEC6D2C8D6CADACCDECE88
:1000C000E2D0E6D2EAD4EED6F2D8F6DAFADCFEDEF8
:1000D00073252034F32510340A86EF00502D731059
:1000E000153489629382028073A0023092402241CB
:1000F000B2414242D2426243F243025492542255E8
:10010000B2554256D2566257F2570648964826498B
:10011000B649464AD64A664BF64B065C965C265D67
:10012000B65D465ED65E665FF65F51617300203055
:10018000411106C622C4000873E0107C0565832572
:100190000540DD992320B5408325054093E54500C2
:1001A0002320B54093050540C84D13650502C8CD11
:1001B000C84D1375F5FBC8CDC84D0199C8CDE845AC
:1001C0001375F5C313650508E8C5E84541761306C0
:1001D000F67F718D116613060680518DE8C5E845DE
:1001E0000199E8C573F0107C2244B240410182803D
:1001F000411106C622C42AC22EC000086F0040006A
:100200000565032505403581058981456306B500EF
:100210006F0040006FF0DFFE05650325C549C1652D
:1002200023A0A50873E0107C056593050540C8452B
:1002300013654500C8C5C84913654500C8C90965A7
:100240009305059013050020C8C173F0107C82450A
:1002500012452244B240410173002030411106C6CC
:1002600022C4000873E0107C3965930505C0C849B5
:1002700013651500C8C988451365850088C5B16533
:1002800003A505001365150023A0A50003A505001F
:10029000137575F023A0A50003A505001375F5EFF0
:1002A00023A0A50003A50500759923A0A50013862A
:1002B00005004846137505C01365051048C6084675
:1002C000799908C603A505001365450023A0A5007C
:1002D00073F0107C2244B24041018280411106C675
:1002E00022C400082D66930506408566138586BBEB
:1002F000C8C90145C8C588C91305007DC8D1130503
:10030000803E88D50325064071991365250023207A
:10031000A640032506406D992320A64003250640EC
:100320001375F5C72320A6400325064079771307E8
:10033000F73F798D2320A640C84D3D99C8CDC84DC3
:100340001375F5FBC8CDC84D7199C8CDC84D4D99F1
:10035000C8CDC8551375F5F313650504C8D5C85540
:100360001375F5FC13650502C8D588597D7613070A
:10037000F63F798D1365054088D988591375F5CFF7
:100380001365052088D9E8511375F58F136505208D
:10039000E8D1E85193860680558DE8D1A8551375AC
:1003A000F5CF13650510A8D573E0107C03A5050CE7
:1003B00041991365150023A0A50C03A5050C137521
:1003C000F5F01365050223A0A50CE845137575FC2F
:1003D00013658501E8C503A5C50C71991365150062
:1003E00023A6A50C03A5450C1365051023A2A50C97
:1003F00003A5450C1365052023A2A50C03A5050C38
:100400001306F60F718D1365051023A0A50C03A527
:10041000050C45767D16718D0966518D23A0A50CBE
:10042000E8451375F5E31365050CE8C503A5C50C90
:1004300071991365250023A6A50C03A5850C799950
:1004400023A4A50C03A5850C1365250023A4A50CE6
:1004500003A5C50C1375F5FC1365050123A6A50CB2
:100460001305401F23AAA50C1305800C23AEA50C71
:1004700003A5C50C1365450023A6A50C03A5C50C53
:100480005D9923A6A50CA8491375F5F3136505041A
:10049000A8C9A8491375F5CF13650520A8C9E8496F
:1004A00013650501E8C9E84913650502E8C973F059
:1004B000107C2244B24041018280411106C622C410
:1004C0002AC22EC0000873E0107C2D6593050540FC
:1004D000E84D13650501E8CDE84D13650502E8CD4B
:1004E000E84D13651500E8CD73F0107C09659305A0
:1004F00005900945C8C1824512452244B2404101D8
:1005000073002030011106CE22CC001001452324B7
:10051000A4FE232AA4FEA1236D2E19216520112AF1
:10052000B529032584FEB71510002328B4FE23A89F
:10053000A5C0B715100023A8A5D07D2173E0107CBD
:1005400037057C001305A54B8965938505A0C8D1A7
:1005500037057C001305051F23A4A51273F0107C3A
:1005600073E0107C3965930505C02326B4FE8845E9
:100570006D9988C573F0107C95338325C4FE73E0B4
:10058000107C88451365450088C573F0107CCD3E0E
:10059000F131832504FF03A505C11365252023A898
:1005A000A5C009659305059088491365250088C98C
:1005B000A84913654500A8C9736004306F00400066
:1005C0006F000000411106C622C4000873E0107CD1
:1005D0003965930505C088451365850088C539656B
:1005E000930505C6C84161767D16718DC8C18565C4
:1005F00013860540484261991365150048C203A55A
:1006000005401166518D23A0A54073F0107C6F004A
:100610004000056503250540118105898145631664
:10062000B5006F0040006FF0DFFE2244B240410190
:100630008280411106C622C4000873E0107C39662E
:100640009305068088591365250088D903250680FF
:100650001365C5002320A680C8451375F5FC1365F6
:100660000502C8C5C8453706D0FF7D16718D37060F
:100670002000518DC8C573F0107C2244B240410166
:100680008280411106C622C400086F0040006F003E
:100690000000411106C622C400086F0040006F0030
:1006A0000000411106C622C400086F0040006F0020
:1006B0000000411106C622C400086F0040006F0010
:1006C0000000411106C622C400086F0040006F0000
:1006D0000000411106C622C400086F0040006F00F0
:1006E0000000411106C622C400086F0040006F00E0
:1006F0000000411106C622C400086F0040006F00D0
:100700000000411106C622C400086F0040006F00BF
:100710000000411106C622C400086F0040006F00AF
:100720000000411106C622C400086F0040006F009F
:100730000000411106C622C400086F0040006F008F
:100740000000411106C622C400086F0040006F007F
:100750000000411106C622C400086F0040006F006F
:100760000000411106C622C400086F0040006F005F
:100770000000411106C622C400086F0040006F004F
:100780000000411106C622C400086F0040006F003F
:100790000000411106C622C400086F0040006F002F
:1007A0000000411106C622C400086F0040006F001F
:1007B0000000411106C622C400086F0040006F000F
:1007C0000000411106C622C400086F0040006F00FF
:1007D0000000411106C622C400086F0040006F00EF
:1007E0000000411106C622C400086F0040006F00DF
:1007F0000000411106C622C400086F0040006F00CF
:100800000000411106C622C400086F0040006F00BE
:100810000000411106C622C400086F0040006F00AE
:100820000000411106C622C400086F0040006F009E
:100830000000411106C622C400086F0040006F008E
:100840000000411106C622C400086F0040006F007E
:100850000000411106C622C400086F0040006F006E
:100860000000411106C622C400086F0040006F005E
:100870000000411106C622C400086F0040006F004E
:100880000000411106C622C400086F0040006F003E
:100890000000411106C622C400086F0040006F002E
:1008A0000000411106C622C400086F0040006F001E
:1008B0000000411106C622C400086F0040006F000E
:1008C0000000411106C622C400086F0040006F00FE
:1008D0000000411106C622C4000873E0107CB9650F
:1008E00013860580085A1365450008DA085A13650F
:1008F000850008DA03A505801375F5FC136505016D
:1009000023A0A58003A505801375F5F313650504E1
:1009100023A0A58073F0107C2244B2404101828064
:10092000411106C622C4000873E0107C39669305A5
:1009300006808859FD76FD16758D88D98859C1764F
:10094000FD16758D88D988598176FD16758D88D9E3
:10095000884DB7060003558D88CDC84D1365350009
:10096000C8CDC84D1365C500C8CD03250680B706A0
:1009700000FDFD16758DB7060001558D2320A6805C
:10098000C84113653500C8C1C8411365C500C8C159
:1009900073F0107C2244B24041018280411106C6AE
:1009A00022C4000873700430096593050590014561
:1009B00088C588C988CD88D188D588D988DDA8C15F
:1009C000A8C5A8C9A8CDA8D1C8C5C8C9C8CDC8D10F
:1009D000C8D5C8D9C8DDE8C1E8C5E8C9E8CDE8D1BF
:1009E0002244B24041018280011106CE22CC001087
:1009F00037157C001305C5E72328A4FE09651305F8
:100A000005A02326A4FE73E0107C0145231BA4FE51
:100A10006F004000831564FF1305F006634BB502B9
:100A20006F004000032504FF930545002328B4FE12
:100A300008418325C4FE138645002326C4FE88C1D1
:100A40006F004000031564FF0505231BA4FE6FF033
:100A50007FFC73F0107C6244F2400561828041119A
:100A600006C622C400080520E12E81206545054602
:100A70008D46B285971085FFE780C0588D282244A7
:100A8000B24041018280411106C622C4000873E0D1
:100A9000107C3965930505C013058006A8C173F065
:100AA000107C2244B24041018280411106C622C41A
:100AB000000873E0107C3965930505C0C8511375B3
:100AC000F5EFC8D1C8517999C8D1C8510966518D7F
:100AD000C8D1C8511166518DC8D1C85113650540A0
:100AE000C8D173F0107C2244B24041018280411190
:100AF00006C622C4000873E0107C3966930506C060
:100B0000094588CD032506C071991365250023206A
:100B1000A6C088451365850088C5C84913651500BA
:100B2000C8C9C84913652500C8C9C8491365051057
:100B3000C8C9C84913650520C8C9C8491365054017
:100B4000C8C9C84513650510C8C5C8451365150053
:100B5000C8C5C84513652500C8C5C8451365450007
:100B6000C8C5C84513658500C8C5C8490966518D03
:100B7000C8C988451365150088C5884513650501F2
:100B800088C588451365054088C5884513650510E7
:100B900088C5C8451166518DC8C58845136545008F
:100BA00088C573F0107C2244B2404101828001115B
:100BB00006CE22CC0010232AA4FE2328B4FE23262E
:100BC000C4FE01456244F24005618280411106C6BF
:100BD00022C4000813850188232AA4FE6F00400068
:100BE000032544FF938581886371B5026F0040003F
:100BF000832544FF014588C16F004000032544FF61
:100C00001105232AA4FE6FF0BFFD2244B24041012A
:100C10008280011106CE22CC001037157C0013050E
:100C20000504232AA4FE4165130505002328A4FE1C
:100C3000138501852326A4FE6F004000032504FFD1
:100C40008325C4FE6378B5026F004000032544FF8E
:100C500003050500832504FF2380A500032504FF69
:100C600005052328A4FE032544FF0505232AA4FE29
:100C70006FF0DFFC6244F24005618280011106CE14
:100C800022CC001037157C0013050509232AA4FE89
:100C90004965130505002328A4FE49651305051EB3
:100CA0002326A4FE6F004000032504FF8325C4FE15
:100CB0006378B5026F004000032544FF030505007B
:100CC000832504FF2380A500032504FF05052328B1
:100CD000A4FE032544FF0505232AA4FE6FF0DFFCD4
:100CE0006244F24005618280011106CE22CC0010E0
:100CF00037157C0013050527232AA4FE13050000E1
:100D00002328A4FE130500002326A4FE6F00400044
:100D1000032504FF8325C4FE6378B5026F004000FD
:100D2000032544FF03050500832504FF2380A50058
:100D3000032504FF05052328A4FE032544FF05051C
:100D4000232AA4FE6FF0DFFC6244F240056182803A
:100D5000011106CE22CC001037157C0013050527A3
:100D6000232AA4FE0565130505802328A4FE056536
:100D7000130505802326A4FE6F004000032504FF11
:100D80008325C4FE6378B5026F004000032544FF4D
:100D900003050500832504FF2380A500032504FF28
:100DA00005052328A4FE032544FF0505232AA4FEE8
:100DB0006FF0DFFC6244F24005618280411106C69B
:100DC00022C4000873E0107C3965930505C0130543
:100DD0008006A8C173F0107C2244B2404101828099
:100DE000411106C622C4000873E0107C39659305E2
:100DF00005C013058002A8C173F0107C2244B240E4
:100E000041018280411106C622C40008453F73E0BB
:100E1000107CB96503A505C61365150023A0A5C6FA
:100E200073F0107C6533F533913D7D3D153797F0B8
:100E300084FFE780801F6D372244B24041018280E9
:100E400037357A00834515FF898985E973E0107C81
:100E5000832505FC39662326B6C8832545FC97D62D
:100E600084FF938626DACCCE832585FC8CD203259D
:100E7000C5FC2322A6C673F0107C828082067C000B
:100E800092067C00A2087C00A2067C00B2067C00D0
:100E9000C2067C00D2067C00E2067C00F2067C00E2
:100EA00002077C0012077C0022077C00A2087C005D
:100EB000A2087C00A2087C00A2087C0032077C000B
:100EC00042077C0052077C0062077C00A2087C007D
:100ED000A2087C00A2087C00A2087C0072077C00AB
:100EE000A2087C00A2087C00A2087C00A2087C006A
:100EF000A2087C00A2087C00A2087C0082077C007B
:100F0000A2087C00A2087C00A2087C00A2087C0049
:100F1000A2087C00A2087C00A2087C0092077C004A
:100F2000A2077C00A2087C00A2087C00A2087C002A
:100F3000A2087C00A2087C00A2087C00B2077C000A
:100F4000C2077C00D2077C00E2077C00A2087C007C
:100F5000A2087C00A2087C00A2087C00F2077C00AA
:100F600002087C00A2087C00A2087C00A2087C0089
:100F7000A2087C00A2087C00A2087C0012087C0069
:100F800022087C00A2087C00A2087C00A2087C0049
:100F9000A2087C00A2087C00A2087C00A2087C00B9
:100FA000A2087C0032087C0042087C0052087C00C9
:100FB00062087C0072087C0082087C00A2087C0029
:100FC000A2087C00A2087C00A2087C00A2087C0089
:100FD000A2087C00A2087C00A2087C0092087C0089
:100FE000A2087C00A2087C00A2087C00A2087C0069
:100FF000A2087C00A2087C00A2087C00B2087C0049
:10100000A2087C00A2087C00A2087C00A2087C0048
:10101000A2087C00A2087C00A2087C00C2087C0018
:10102000A2087C00A2087C00A2087C00A2087C0028
:0C103000A2087C00A2087C00A2087C0042
:1010400031112EC8F325007C2EC6F3250030010097
:101050000B002566010073900530B2457390057C46
:10106000C24551018280411106C622C4000873E0C6
:10107000107C37057B0093050580114523A6A50A42
:0C10800073F0107C2244B24041018280D9
:10109000011106CE22CC0010231BA4FE231AB4FE9D
:1010A0002319C4FE2318D4FE3965130505C0484131
:1010B0001D810D8981456301B5026F00400073E019
:1010C000107C3965930505C0C8411375F5E7C8C1A3
:1010D00073F0107C6F0040003965130505C008559A
:1010E00019813D89835544FF6306B5026F004000B6
:1010F00073E0107C035644FF3965930505C088559D
:101100003D8A1A061375F5C3518D88D573F0107C8E
:101110006F0040003965130505C0085529813D89D8
:10112000835524FF6308B5026F00400073E0107C14
:10113000035624FF3965930505C088553D8A2A0664
:10114000F1769386F63F758D518D88D573F0107CBE
:101150006F0040003965130505C008551375F50388
:10116000835564FF6306B5026F00400073E0107C96
:10117000035664FF3965930505C088551376F60359
:10118000137505FC518D88D573F0107C6F004000FD
:10119000035504FF8545630BB5006F004000035500
:1011A00004FF89456316B5026F00400073E0107CB0
:1011B000035604FF3965930505C0C8410D8A1E0614
:1011C0001375F5E7518DC8C173F0107C6F004000B6
:1011D000035504FF8D456310B5046F00400073E0B4
:1011E000107C3965930505C02326B4FEC8411375EC
:1011F000F5E713650510C8C1056513051576EFD031
:101200003FE98325C4FEC84113650518C8C173F0C2
:10121000107C6F0040006F0040003965130505C069
:101220004841058981456316B5006F0040006FF0A5
:10123000DFFE6244F24005618280411106C622C48D
:10124000000873E0107C37057B009305058003A53B
:10125000850A1365150023A4A50A114523A6A50A2E
:0C12600073F0107C2244B24041018280F7
:02000004007D7D
:06FFE000B7007C008280E6
:10FFF000FFFFFFFFFFFFFFFFFFFFFFFFFFFFFFFF11
:04000005007C00007B
:00000001FF
