:02000004007C7E
:1000000081400141814101428142014381430144D8
:1000100081440145814501468146014781470148A8
:10002000814801498149014A814A014B814B014C78
:10003000814C014D814D014E814E014F814FF9623E
:1000400073A002308542FE0263C3020001A0970242
:1000500000009382220473905230970185FF9381B0
:10006000617A170284FF1302D27D137202FC73259A
:1000700040F185456370B5001316150132921701E2
:1000800084FF130121786111EF00B057EF00804722
:100090006D7106C20AC40EC612C816CA1ACC1ECE8C
:1000A00022D026D22AD42ED632D836DA3ADC3EDE18
:1000B000C2C0C6C2CAC4CEC6D2C8D6CADACCDECE88
:1000C000E2D0E6D2EAD4EED6F2D8F6DAFADCFEDEF8
:1000D00073252034F32510340A86EF00D02C7310DA
:1000E000153489629382028073A0023092402241CB
:1000F000B2414242D2426243F243025492542255E8
:10010000B2554256D2566257F2570648964826498B
:10011000B649464AD64A664BF64B065C965C265D67
:10012000B65D465ED65E665FF65F51617300203055
:10018000411106C622C4000873E0107C0565832572
:100190000540DD992320B5408325054093E54500C2
:1001A0002320B54093050540C84D13650502C8CD11
:1001B000C84D1375F5FBC8CDC84D0199C8CDE845AC
:1001C0001375F5C313650508E8C5E84541761306C0
:1001D000F67F718D116613060680518DE8C5E845DE
:1001E0000199E8C573F0107C2244B240410182803D
:1001F000411106C622C42AC22EC000086F0040006A
:100200000565032505403581058981456306B500EF
:100210006F0040006FF0DFFE05650325C549C1652D
:1002200023A0A50073E0107C056593050540C84533
:1002300013654500C8C5C84913654500C8C90965A7
:100240009305059013050020C8C173F0107C82450A
:1002500012452244B240410173002030411106C6CC
:1002600022C4000873E0107C3965930505C0C849B5
:1002700013651500C8C988451365850088C5B16533
:1002800003A505001365150023A0A50003A505001F
:10029000137575F023A0A50003A505001375F5EFF0
:1002A00023A0A50003A50500759923A0A50013862A
:1002B00005004846137505C01365051048C6084675
:1002C000799908C603A505001365450023A0A5007C
:1002D00073F0107C2244B24041018280411106C675
:1002E00022C400082D66930506408566138586BBEB
:1002F000C8C90145C8C588C91305007DC8D1130503
:10030000803E88D50325064071991365250023207A
:10031000A640032506406D992320A64003250640EC
:100320001375F5C72320A6400325064079771307E8
:10033000F73F798D2320A640C84D3D99C8CDC84DC3
:100340001375F5FBC8CDC84D7199C8CDC84D4D99F1
:10035000C8CDC8551375F5F313650504C8D5C85540
:100360001375F5FC13650502C8D588597D7613070A
:10037000F63F798D1365054088D988591375F5CFF7
:100380001365052088D9E8511375F58F136505208D
:10039000E8D1E85193860680558DE8D1A8551375AC
:1003A000F5CF13650510A8D573E0107C03A5050CE7
:1003B00041991365150023A0A50C03A5050C137521
:1003C000F5F01365050223A0A50CE845137575FC2F
:1003D00013658501E8C503A5C50C71991365150062
:1003E00023A6A50C03A5450C1365051023A2A50C97
:1003F00003A5450C1365052023A2A50C03A5050C38
:100400001306F60F718D1365051023A0A50C03A527
:10041000050C45767D16718D0966518D23A0A50CBE
:10042000E8451375F5E31365050CE8C503A5C50C90
:1004300071991365250023A6A50C03A5850C799950
:1004400023A4A50C03A5850C1365250023A4A50CE6
:1004500003A5C50C1375F5FC1365050123A6A50CB2
:100460001305401F23AAA50C1305800C23AEA50C71
:1004700003A5C50C1365450023A6A50C03A5C50C53
:100480005D9923A6A50CA8491375F5F3136505041A
:10049000A8C9A8491375F5CF13650520A8C9E8496F
:1004A00013650501E8C9E84913650502E8C973F059
:1004B000107C2244B24041018280411106C622C410
:1004C0002AC22EC0000873E0107C2D6593050540FC
:1004D000E84D13650501E8CDE84D13650502E8CD4B
:1004E000E84D13651500E8CD73F0107C09659305A0
:1004F00005900945C8C1824512452244B2404101D8
:1005000073002030011106CE22CC001001452324B7
:10051000A4FE232AA4FE1D2B6526D52E65200922C4
:10052000AD21032584FEB71510002328B4FE23A8AF
:10053000A5C0B715100023A8A5D0712973E0107CC1
:1005400037057C001305A54B8965938505A0C8D1A7
:1005500037057C001305051F23A4A51273F0107C3A
:1005600073E0107C3965930505C02326B4FE8845E9
:100570006D9988C573F0107C95338325C4FE73E0B4
:10058000107C88451365450088C573F0107CCD3E0E
:10059000F131832504FF03A505C11365252023A898
:1005A000A5C009659305059088491365250088C98C
:1005B000A84913654500A8C9736004306F00400066
:1005C0006F000000411106C622C4000873E0107CD1
:1005D0003965930505C088451365850088C505659F
:1005E000832505401166D18D2320B5409305054034
:1005F000C84113651500C8C173F0107C6F0040003E
:100600000565032505401181058981456316B500FF
:100610006F0040006FF0DFFE2244B2404101828053
:10062000411106C622C4000873E0107C39669305A8
:10063000068088591365250088D90325068013652F
:10064000C5002320A680C8451375F5FC1365050277
:10065000C8C5C8453706D0FF7D16718D3706200006
:10066000518DC8C573F0107C2244B2404101828094
:10067000411106C622C400086F0040006F00000050
:10068000411106C622C400086F0040006F00000040
:10069000411106C622C400086F0040006F00000030
:1006A000411106C622C400086F0040006F00000020
:1006B000411106C622C400086F0040006F00000010
:1006C000411106C622C400086F0040006F00000000
:1006D000411106C622C400086F0040006F000000F0
:1006E000411106C622C400086F0040006F000000E0
:1006F000411106C622C400086F0040006F000000D0
:10070000411106C622C400086F0040006F000000BF
:10071000411106C622C400086F0040006F000000AF
:10072000411106C622C400086F0040006F0000009F
:10073000411106C622C400086F0040006F0000008F
:10074000411106C622C400086F0040006F0000007F
:10075000411106C622C400086F0040006F0000006F
:10076000411106C622C400086F0040006F0000005F
:10077000411106C622C400086F0040006F0000004F
:10078000411106C622C400086F0040006F0000003F
:10079000411106C622C400086F0040006F0000002F
:1007A000411106C622C400086F0040006F0000001F
:1007B000411106C622C400086F0040006F0000000F
:1007C000411106C622C400086F0040006F000000FF
:1007D000411106C622C400086F0040006F000000EF
:1007E000411106C622C400086F0040006F000000DF
:1007F000411106C622C400086F0040006F000000CF
:10080000411106C622C400086F0040006F000000BE
:10081000411106C622C400086F0040006F000000AE
:10082000411106C622C400086F0040006F0000009E
:10083000411106C622C400086F0040006F0000008E
:10084000411106C622C400086F0040006F0000007E
:10085000411106C622C400086F0040006F0000006E
:10086000411106C622C400086F0040006F0000005E
:10087000411106C622C400086F0040006F0000004E
:10088000411106C622C400086F0040006F0000003E
:10089000411106C622C400086F0040006F0000002E
:1008A000411106C622C400086F0040006F0000001E
:1008B000411106C622C400086F0040006F0000000E
:1008C000411106C622C4000873E0107CB965138686
:1008D0000580085A1365450008DA085A1365850033
:1008E00008DA03A505801375F5FC1365050123A03F
:1008F000A58003A505801375F5F31365050423A0F2
:10090000A58073F0107C2244B240410182804111E5
:1009100006C622C4000873E0107C39669305068081
:100920008859FD76FD16758D88D98859C176FD16D2
:10093000758D88D988598176FD16758D88D9884D31
:10094000B7060003558D88CDC84D13653500C8CD59
:10095000C84D1365C500C8CD03250680B70600FD48
:10096000FD16758DB7060001558D2320A680C84160
:1009700013653500C8C1C8411365C500C8C173F00F
:10098000107C2244B24041018280411106C622C43B
:10099000000873700430096593050590014588C50A
:1009A00088C988CD88D188D588D988DDA8C1A8C54F
:1009B000A8C9A8CDA8D1C8C5C8C9C8CDC8D1C8D5EF
:1009C000C8D9C8DDE8C1E8C5E8C9E8CDE8D1224406
:1009D000B24041018280011106CE22CC00103715B1
:1009E0007C001305C5EA2328A4FE0965130505A0AC
:1009F0002326A4FE73E0107C0145231BA4FE6F0098
:100A00004000831564FF1305F006634BB5026F00C9
:100A10004000032504FF930545002328B4FE084148
:100A20008325C4FE138645002326C4FE88C16F00BB
:100A30004000031564FF0505231BA4FE6FF07FFC37
:100A400073F0107C6244F24005618280411106C659
:100A500022C400083128E526352829458D45971000
:100A600085FFE780805C8D282244B240410182806E
:100A7000411106C622C4000873E0107C3965930555
:100A800005C013058006A8C173F0107C2244B24053
:100A900041018280411106C622C4000873E0107C27
:100AA0003965930505C0C8511375F5EFC8D1C85114
:100AB0007999C8D1C8510966518DC8D1C8511166FC
:100AC000518DC8D1C85113650540C8D173F0107C51
:100AD0002244B24041018280411106C622C400086E
:100AE00073E0107C396593050580C84113650503E3
:100AF000C8C13966930506C0094588CD032506C0DF
:100B00007199136525002320A6C0884513658500CB
:100B100088C5C84913651500C8C9C84913652500AB
:100B2000C8C9C84913650510C8C9C8491365052057
:100B3000C8C9C84913650540C8C9C845136505102B
:100B4000C8C5C84513651500C8C5C8451365250047
:100B5000C8C5C84513654500C8C5C84513658500A7
:100B6000C8C5C8490966518DC8C9884513651500AF
:100B700088C588451365050188C588451365054006
:100B800088C588451365051088C5C8451166518D0F
:100B9000C8C588451365450088C573F0107C22449C
:100BA000B24041018280011106CE22CC0010232ADE
:100BB000A4FE2328B4FE2326C4FE01456244F2406D
:100BC00005618280411106C622C4000841651305F3
:100BD0000500232AA4FE6F004000032544FFC165E1
:100BE000938585006371B5026F004000832544FF43
:100BF000014588C16F004000032544FF1105232AE9
:100C0000A4FE6FF09FFD2244B24041018280011199
:100C100006CE22CC001037157C0013050507232AC9
:100C2000A4FE4165130505002328A4FE41651305B4
:100C300005002326A4FE6F004000032504FF832542
:100C4000C4FE6378B5026F004000032544FF03052E
:100C50000500832504FF2380A500032504FF050567
:100C60002328A4FE032544FF0505232AA4FE6FF0D4
:100C7000DFFC6244F24005618280011106CE22CC85
:100C8000001037157C0013050507232AA4FE4965CB
:100C9000130505002328A4FE49651305851D232699
:100CA000A4FE6F004000032504FF8325C4FE637883
:100CB000B5026F004000032544FF030505008325AE
:100CC00004FF2380A500032504FF05052328A4FEB7
:100CD000032544FF0505232AA4FE6FF0DFFC6244D0
:100CE000F24005618280011106CE22CC001037153A
:100CF0007C0013058524232AA4FE13050000232865
:100D0000A4FE130500002326A4FE6F004000032567
:100D100004FF8325C4FE6378B5026F0040000325FD
:100D200044FF03050500832504FF2380A500032558
:100D300004FF05052328A4FE032544FF0505232AF7
:100D4000A4FE6FF0DFFC6244F24005618280011175
:100D500006CE22CC001037157C0013058524232AEB
:100D6000A4FE0565130505802328A4FE056513056B
:100D700005802326A4FE6F004000032504FF832581
:100D8000C4FE6378B5026F004000032544FF0305ED
:100D90000500832504FF2380A500032504FF050526
:100DA0002328A4FE032544FF0505232AA4FE6FF093
:100DB000DFFC6244F24005618280411106C622C414
:100DC000000873E0107C3965930505C013058006A3
:100DD000A8C173F0107C2244B240410182804111CD
:100DE00006C622C4000873E0107C3965930505C06F
:100DF00013058002A8C173F0107C2244B240410167
:100E00008280411106C622C40008453F73E0107C71
:100E1000B96503A505C61365150023A0A5C673F023
:100E2000107C4D33ED33913D7D3D1537971085FF97
:100E3000E78060386D372244B24041018280B74577
:100E40007A0003C515BF09892DE173E0107C03A664
:100E5000058E17D584FF1305E5DA50CD03A6458E20
:100E600010D183A6858E39662326D6C883A6C58E63
:100E70002328D6C883A5058CB7B6AA55938656A550
:100E80006393D502B7457A0083A6058D54CD83A61A
:100E9000458D14D103A5858D2326A6C803A5C58D30
:100EA000930506C988C173F0107C828070067C00AF
:100EB00080067C0090087C0090067C00A0067C00E8
:100EC000B0067C00C0067C00D0067C00E0067C00FA
:100ED000F0067C0000077C0010077C0090087C0076
:100EE00090087C0090087C0090087C0020077C0023
:100EF00030077C0040077C0050077C0090087C0095
:100F000090087C0090087C0090087C0060077C00C2
:100F100090087C0090087C0090087C0090087C0081
:100F200090087C0090087C0090087C0070077C0092
:100F300090087C0090087C0090087C0090087C0061
:100F400090087C0090087C0090087C0080077C0062
:100F500090077C0090087C0090087C0090087C0042
:100F600090087C0090087C0090087C00A0077C0022
:100F7000B0077C00C0077C00D0077C0090087C0094
:100F800090087C0090087C0090087C00E0077C00C2
:100F9000F0077C0090087C0090087C0090087C00A2
:100FA00090087C0090087C0090087C0000087C0081
:100FB00010087C0090087C0090087C0090087C0061
:100FC00090087C0090087C0090087C0090087C00D1
:100FD00090087C0020087C0030087C0040087C00E1
:100FE00050087C0060087C0070087C0090087C0041
:100FF00090087C0090087C0090087C0090087C00A1
:1010000090087C0090087C0090087C0080087C00A0
:1010100090087C0090087C0090087C0090087C0080
:1010200090087C0090087C0090087C00A0087C0060
:1010300090087C0090087C0090087C0090087C0060
:1010400090087C0090087C0090087C00B0087C0030
:1010500090087C0090087C0090087C0090087C0040
:0C10600090087C0090087C0090087C0048
:1010700031112EC8F325007C2EC6F3250030010067
:101080000B002566010073900530B2457390057C16
:10109000C24551018280411106C622C40008231BAB
:1010A000A4FE231AB4FE3965130505C048411D810D
:1010B0000D8981456301B5026F00400073E0107C2B
:1010C0003965930505C0C8411375F5E7C8C173F0CC
:1010D000107C6F0040003965130505C008557D89F7
:1010E000835564FF6306B5046F00400073E0107C15
:1010F000035664FF3965930505C088557D8A0199BB
:10110000518D88D573F0107C97F07A00E780809D30
:101110006F0040003965130505C0484105898145C8
:101120006316B5006F0040006FF0DFFE6F004000F7
:10113000035544FF8545630BB5006F004000035520
:1011400044FF89456316B5026F00400073E0107CD0
:10115000035644FF3965930505C0C8410D8A1E0634
:101160001375F5E7518DC8C173F0107C6F00400016
:10117000035544FF8D45631FB5026F00400073E0C7
:10118000107C3965930505C02328B4FEC84113754A
:10119000F5E713650510C8C1056513051576C93D4A
:1011A000832504FFC84113650518C8C173F0107C7E
:1011B0006F0040002244B24041018280411106C6C6
:1011C00022C4000873E0107C37057B00930505807E
:1011D00003A5850A1365150023A4A50A114523A6B6
:1011E000A50A05651305959D23A0A508130570277D
:1011F00023A8A50A1305D04E23ACA50A37752600EF
:101200001305153C23A2A50823A4A5080D65130505
:10121000951323AAA50A73F0107C2244B240410121
:101220008280411106C622C4000873E0107C370595
:101230007B0093050580114523A6A50A73F0107C59
:081240002244B240410182800A
:02000004007D7D
:06FFE800B7007C008280DE
:10FFF000FFFFFFFFFFFFFFFFFFFFFFFFFFFFFFFF11
:04000005007C00007B
:00000001FF
