:02000004007C7E
:1000000081400141814101428142014381430144D8
:1000100081440145814501468146014781470148A8
:10002000814801498149014A814A014B814B014C78
:10003000814C014D814D014E814E014F814FF9623E
:1000400073A002308542FE0263C3020001A0970242
:1000500000009382220473905230970185FF9381B0
:10006000617A170284FF1302D27D137202FC73259A
:1000700040F185456370B5001316150132921701E2
:1000800084FF130121786111EF00105BEF00C05273
:100090006D7106C20AC40EC612C816CA1ACC1ECE8C
:1000A00022D026D22AD42ED632D836DA3ADC3EDE18
:1000B000C2C0C6C2CAC4CEC6D2C8D6CADACCDECE88
:1000C000E2D0E6D2EAD4EED6F2D8F6DAFADCFEDEF8
:1000D00073252034F32510340A86EF009030731016
:1000E000153489629382028073A0023092402241CB
:1000F000B2414242D2426243F243025492542255E8
:10010000B2554256D2566257F2570648964826498B
:10011000B649464AD64A664BF64B065C965C265D67
:10012000B65D465ED65E665FF65F51617300203055
:10018000411106C622C40008231BA4FEAD6603A5C8
:1001900006005D9923A0A600035564FF7D15938595
:1001A000060023A6A50A035564FF0581C8D103559F
:1001B00064FF058188D54145C8C51305900A88C5E7
:1001C000014588C903A606003167598E23A0C600E1
:1001D00003A60600719A23A0C60003A606001366B4
:1001E000460023A0C60003A606001376F6FC13669D
:1001F000060223A0C60003A606001376F6C723A0B6
:10020000C60003A6060079771307F73F798E23A06F
:10021000C600D04D719AD0CDD04D4D9AD0CDD04D95
:100220003D9AD0CDD04D1376F6FBD0CDD055719AF6
:1002300013661600D0D5D0551376F6FC1366060269
:10024000D0D59059719A1366160090D990591376AB
:10025000F6CF1366062090D9F051619A1366160006
:10026000F0D1F05113668600F0D1B0551366360018
:10027000B0D573E0107C03A6050A799A23A0C50ABD
:1002800003A6050A1366460023A0C50A23A0A508F5
:1002900003A505081365350023A0A50803A50508D7
:1002A0001365450023A0A50803A505081D9923A0F3
:1002B000A50803A505081365050423A0A5081305D3
:1002C000C00F23ACA50873F0107C2244B24041015A
:1002D0008280411106C622C40008231BA4FE2D669D
:1002E000032506405D992320A640035564FF7D1534
:1002F00093050640C8C9035564FF0581C8D103555D
:1003000064FF058188D54145C8C5014588C90325D5
:100310000640B166558D2320A640032506407199FD
:100320002320A64003250640136545002320A64050
:10033000032506401375F5FC136505022320A6402E
:10034000032506401375F5C72320A6400325064064
:10035000F9769386F63F758D2320A640C84D719996
:10036000C8CDC84D4D99C8CDC84D3D99C8CDC84DD3
:100370001375F5FBC8CDC855719913651500C8D51F
:10038000C8551375F5FC13650502C8D588597199D0
:100390001365150088D988591375F5CF13650520A5
:1003A00088D9E851619913651500E8D1E8511365C2
:1003B0008500E8D1A85513653500A8D52244B24080
:1003C00041018280411106C622C40008231BA4FEFD
:1003D0003166032506805D992320A680035564FFBE
:1003E0007D159305068023A6A50A035564FF0581A4
:1003F000C8D1035564FF058188D50145C8C588C5A6
:1004000088C903250680B166558D2320A680032563
:10041000068071992320A680032506806D992320EC
:10042000A68003250680136505032320A6800325E7
:1004300006801375F5C72320A68003250680F9766C
:100440009386F63F758D2320A680C84D7199C8CD3F
:10045000C84D4D99C8CDC84D3D99C8CDC84D1375EF
:10046000F5FBC8CDC855719913651500C8D5C85599
:100470001375F5FC13650502C8D588597199136584
:10048000150088D988591375F5CF1365052088D9CB
:10049000E851619913651500E8D1E85113658500AD
:1004A000E8D1A85513653500A8D52244B2404101D2
:1004B0008280411106C622C42AC22EC00008C1652E
:1004C00005452390A5086F00400041658355050848
:1004D0001305F00F634DB5046F00400041650355EF
:1004E00005082205AD659385050088C50145239162
:1004F000A1886F00400083D5218809651305F57038
:10050000634DB5006F0040006F00400003952188E7
:1005100005052391A1886FF01FFE6F004000C165A3
:100520000395050805052390A5086FF01FFA2D65B2
:1005300093050500A85913651500A8D90965930509
:1005400005901145C8C1824512452244B24041017F
:1005500073002030411106C622C42AC22EC00008F2
:100560002D6593050540A85913651500A8D909659F
:10057000930505901145C8C1824512452244B240F9
:10058000410173002030411106C622C42AC22EC088
:100590000008316593050580A85913651500A8D991
:1005A0000965930505901145C8C18245124522444D
:1005B000B240410173002030011106CE22CC001060
:1005C00001452322A4FE232AA4FEE121292E8D2603
:1005D0007D26FD2E032544FEB71510002328B4FE0A
:1005E00023A8A5C0B715100023A8A5D0052973E03E
:1005F000107C37057C001305254B8965938505A084
:10060000A8C137057C0013054555E8C137057C00B6
:1006100013056558A8C573F0107C73E0107C39652C
:10062000930505C02326B4FE88456D9988C573F0EF
:10063000107C130520032324A4FE9936032584FE91
:100640004939032584FEBD3B0326C4FE832504FFF0
:1006500073E0107C08461365450008C673F0107CF3
:1006600003A505C11365450023A8A5C00965930529
:100670000590884D1365150088CD884D13652500BC
:1006800088CD884D1365450088CD736004306F00B8
:1006900040006F000000411106C622C400086F0030
:1006A00040006F000000411106C622C400086F0020
:1006B00040006F000000411106C622C400086F0010
:1006C00040006F000000411106C622C400086F0000
:1006D00040006F000000411106C622C400086F00F0
:1006E00040006F000000411106C622C400086F00E0
:1006F00040006F000000411106C622C400086F00D0
:1007000040006F000000411106C622C400086F00BF
:1007100040006F000000411106C622C400086F00AF
:1007200040006F000000411106C622C400086F009F
:1007300040006F000000411106C622C400086F008F
:1007400040006F000000411106C622C400086F007F
:1007500040006F000000411106C622C400086F006F
:1007600040006F000000411106C622C400086F005F
:1007700040006F000000411106C622C400086F004F
:1007800040006F000000411106C622C400086F003F
:1007900040006F000000411106C622C400086F002F
:1007A00040006F000000411106C622C400086F001F
:1007B00040006F000000411106C622C400086F000F
:1007C00040006F000000411106C622C400086F00FF
:1007D00040006F000000411106C622C400086F00EF
:1007E00040006F000000411106C622C400086F00DF
:1007F00040006F000000411106C622C400086F00CF
:1008000040006F000000411106C622C400086F00BE
:1008100040006F000000411106C622C400086F00AE
:1008200040006F000000411106C622C400086F009E
:1008300040006F000000411106C622C400086F008E
:1008400040006F000000411106C622C400086F007E
:1008500040006F000000411106C622C400086F006E
:1008600040006F000000411106C622C400086F005E
:1008700040006F000000411106C622C400086F004E
:1008800040006F000000411106C622C400086F003E
:1008900040006F000000411106C622C400086F002E
:1008A00040006F000000411106C622C400086F001E
:1008B00040006F000000411106C622C400086F000E
:1008C00040006F000000411106C622C400086F00FE
:1008D00040006F000000411106C622C400086F00EE
:1008E00040006F000000411106C622C4000873E0FA
:1008F000107CB96513860580085A1365150008DA5F
:10090000085A1365250008DA03A505807199136557
:10091000150023A0A58003A505804D99136545000A
:1009200023A0A58073F0107C2244B2404101828054
:10093000411106C622C4000873E0107CB965138615
:100940000580085A1365450008DA085A13658500C2
:1009500008DA03A505801375F5FC1365050123A0CE
:10096000A58003A505801375F5F31365050423A081
:10097000A58073F0107C2244B24041018280411175
:1009800006C622C4000873E0107CB9651386058092
:10099000085A1365050108DA085A1365050208DAD2
:1009A00003A505801375F5CF1365051023A0A58059
:1009B00003A505807D761306F63F718D136505400E
:1009C00023A0A58073F0107C2244B24041018280B4
:1009D000411106C622C400087370043009659305EE
:1009E0000590014588C588C988CD88D188D588D922
:1009F00088DDA8C1A8C5A8C9A8CDA8D1C8C5C8C93F
:100A0000C8CDC8D1C8D5C8D9C8DDE8C1E8C5E8C9CE
:100A1000E8CDE8D12244B24041018280011106CEE6
:100A200022CC001037157C00130505EB2328A4FE0B
:100A30000965130505A02326A4FE73E0107C01457B
:100A4000231BA4FE6F004000831564FF1305F0060E
:100A5000634BB5026F004000032504FF930545007A
:100A60002328B4FE08418325C4FE138645002326AF
:100A7000C4FE88C16F004000031564FF0505231BF9
:100A8000A4FE6FF07FFC73F0107C6244F2400561BD
:100A90008280411106C622C400080520E12E812073
:100AA000654505468D46B285971085FFE7808055E0
:100AB0008D282244B24041018280411106C622C4E1
:100AC000000873E0107C3965930505C013058006A6
:100AD000A8C173F0107C2244B240410182804111D0
:100AE00006C622C4000873E0107C3965930505C072
:100AF000C8511375F5EFC8D1C8517999C8D1C851FB
:100B00000966518DC8D1C8511166518DC8D1C851DF
:100B100013650540C8D173F0107C2244B2404101F6
:100B20008280411106C622C4000873E0107C396639
:100B3000930506C0094588CD032506C07199136544
:100B400025002320A6C088451365850088C5C849AF
:100B500013651500C8C9C84913652500C8C9C84927
:100B600013650510C8C9C84913650520C8C9C84917
:100B700013650540C8C9C84513650510C8C5C845F3
:100B800013651500C8C5C84513652500C8C5C84507
:100B900013654500C8C5C84513658500C8C5C84963
:100BA0000966518DC8C988451365150088C58845F3
:100BB0001365050188C588451365054088C58845C6
:100BC0001365051088C5C8451166518DC8C588458F
:100BD0001365450088C573F0107C2244B240410182
:100BE0008280011106CE22CC0010232AA4FE2328E5
:100BF000B4FE2326C4FE01456244F24005618280B2
:100C0000411106C622C4000813850188232AA4FEC8
:100C10006F004000032544FF938581886371B5020E
:100C20006F004000832544FF014588C16F004000EC
:100C3000032544FF1105232AA4FE6FF0BFFD2244C3
:100C4000B24041018280011106CE22CC001037153E
:100C50007C0013050507232AA4FE41651305050042
:100C60002328A4FE138501852326A4FE6F004000DF
:100C7000032504FF8325C4FE6378B5026F0040009E
:100C8000032544FF03050500832504FF2380A500F9
:100C9000032504FF05052328A4FE032544FF0505BD
:100CA000232AA4FE6FF0DFFC6244F24005618280DB
:100CB000011106CE22CC001037157C001305050C5F
:100CC000232AA4FE4965130505002328A4FE4965CF
:100CD0001305051E2326A4FE6F004000032504FF14
:100CE0008325C4FE6378B5026F004000032544FFEE
:100CF00003050500832504FF2380A500032504FFC9
:100D000005052328A4FE032544FF0505232AA4FE88
:100D10006FF0DFFC6244F24005618280011106CE73
:100D200022CC001037157C001305052A232AA4FEC7
:100D3000130500002328A4FE130500002326A4FEAB
:100D40006F004000032504FF8325C4FE6378B502CD
:100D50006F004000032544FF03050500832504FFC1
:100D60002380A500032504FF05052328A4FE0325F1
:100D700044FF0505232AA4FE6FF0DFFC6244F24025
:100D800005618280011106CE22CC001037157C004F
:100D90001305052A232AA4FE0565130505802328CB
:100DA000A4FE0565130505802326A4FE6F00400000
:100DB000032504FF8325C4FE6378B5026F0040005D
:100DC000032544FF03050500832504FF2380A500B8
:100DD000032504FF05052328A4FE032544FF05057C
:100DE000232AA4FE6FF0DFFC6244F240056182809A
:100DF000411106C622C4000873E0107C39659305D2
:100E000005C013058006A8C173F0107C2244B240CF
:100E100041018280411106C622C4000873E0107CA3
:100E20003965930505C013058002A8C173F0107CD5
:100E30002244B24041018280411106C622C400080A
:100E4000453F73E0107CB96503A505C61365150021
:100E500023A0A5C673F0107C6533F533913D7D3D2D
:100E6000153797F084FFE780401C6D372244B2406D
:100E70004101828037357A00834515FF898985E9EC
:100E800073E0107C832505FC39662326B6C88325CC
:100E900045FC97D684FF9386E6D6CCCE832585FC89
:100EA0008CD20325C5FC2322A6C673F0107C828059
:100EB00096067C00A6067C00B6087C00B6067C0080
:100EC000C6067C00D6067C00E6067C00F6067C00A2
:100ED00006077C0016077C0026077C0036077C008E
:100EE000B6087C00B6087C00B6087C00B6087C001A
:100EF00046077C0056077C0066077C0076077C006E
:100F0000B6087C00B6087C00B6087C00B6087C00F9
:100F100086077C00B6087C00B6087C00B6087C001A
:100F2000B6087C00B6087C00B6087C00B6087C00D9
:100F300096077C00B6087C00B6087C00B6087C00EA
:100F4000B6087C00B6087C00B6087C00B6087C00B9
:100F5000A6077C00B6077C00B6087C00B6087C00BB
:100F6000B6087C00B6087C00B6087C00B6087C0099
:100F7000C6077C00D6077C00E6077C00F6077C00ED
:100F8000B6087C00B6087C00B6087C00B6087C0079
:100F900006087C0016087C00B6087C00B6087C00B9
:100FA000B6087C00B6087C00B6087C00B6087C0059
:100FB00026087C0036087C00B6087C00B6087C0059
:100FC000B6087C00B6087C00B6087C00B6087C0039
:100FD000B6087C00B6087C0046087C0056087C00F9
:100FE00066087C0076087C0086087C0096087C00F9
:100FF000B6087C00B6087C00B6087C00B6087C0009
:10100000B6087C00B6087C00B6087C00B6087C00F8
:10101000A6087C00B6087C00B6087C00B6087C00F8
:10102000B6087C00B6087C00B6087C00B6087C00D8
:10103000C6087C00B6087C00B6087C00B6087C00B8
:10104000B6087C00B6087C00B6087C00B6087C00B8
:10105000D6087C00B6087C00B6087C00B6087C0088
:10106000B6087C00B6087C00B6087C00B6087C0098
:1010700031112EC8F325007C2EC6F3250030010067
:101080000B002566010073900530B2457390057C16
:10109000C24551018280411106C622C4000873E096
:1010A000107C37057B0093050580114523A6A50A12
:0C10B00073F0107C2244B24041018280A9
:1010C000011106CE22CC0010231BA4FE231AB4FE6D
:1010D0002319C4FE2318D4FE3965130505C0484101
:1010E0001D810D8981456301B5026F00400073E0E9
:1010F000107C3965930505C0C8411375F5E7C8C173
:1011000073F0107C6F0040003965130505C0085569
:1011100019813D89835544FF6306B5026F00400085
:1011200073E0107C035644FF3965930505C088556C
:101130003D8A1A061375F5C3518D88D573F0107C5E
:101140006F0040003965130505C0085529813D89A8
:10115000835524FF6308B5026F00400073E0107CE4
:10116000035624FF3965930505C088553D8A2A0634
:10117000F1769386F63F758D518D88D573F0107C8E
:101180006F0040003965130505C008551375F50358
:10119000835564FF6306B5026F00400073E0107C66
:1011A000035664FF3965930505C088551376F60329
:1011B000137505FC518D88D573F0107C6F004000CD
:1011C000035504FF8545630BB5006F0040000355D0
:1011D00004FF89456316B5026F00400073E0107C80
:1011E000035604FF3965930505C0C8410D8A1E06E4
:1011F0001375F5E7518DC8C173F0107C6F00400086
:10120000035504FF8D456310B5046F00400073E083
:10121000107C3965930505C02326B4FEC8411375BB
:10122000F5E713650510C8C1056513051576EFD000
:101230003FE98325C4FEC84113650518C8C173F092
:10124000107C6F0040006F0040003965130505C039
:101250004841058981456316B5006F0040006FF075
:10126000DFFE6244F24005618280411106C622C45D
:10127000000873E0107C37057B009305058003A50B
:10128000850A1365150023A4A50A114523A6A50AFE
:0C12900073F0107C2244B24041018280C7
:02000004007D7D
:06FFE000B7007C008280E6
:10FFF000FFFFFFFFFFFFFFFFFFFFFFFFFFFFFFFF11
:04000005007C00007B
:00000001FF
