:0200000400708A
:1000000081400141814101428142014381430144D8
:1000100081440145814501468146014781470148A8
:10002000814801498149014A814A014B814B014C78
:10003000814C014D814D014E814E014F814FF9623E
:1000400073A002308542FE0263C3020001A0970242
:1000500000009382220473905230970191FF9381A4
:10006000617A170290FF1302D27D137202FC73258E
:1000700040F185456370B5001316150132921701E2
:1000800090FF130121786111EF005038EF00C00F8D
:100090006D7106C20AC40EC612C816CA1ACC1ECE8C
:1000A00022D026D22AD42ED632D836DA3ADC3EDE18
:1000B000C2C0C6C2CAC4CEC6D2C8D6CADACCDECE88
:1000C000E2D0E6D2EAD4EED6F2D8F6DAFADCFEDEF8
:1000D00073252034F32510340A86EF00D00D7310F9
:1000E000153489629382028073A0023092402241CB
:1000F000B2414242D2426243F243025492542255E8
:10010000B2554256D2566257F2570648964826498B
:10011000B649464AD64A664BF64B065C965C265D67
:10012000B65D465ED65E665FF65F51617300203055
:10013000411106C622C4000873E0107C396513061D
:1001400005800846B705F4FFFD156D8D08C60856F5
:100150001365052008D6396593058583884D136599
:10016000052088CD08461375F5FC08C608561365AA
:10017000450008D6884D1365450088CD73F0107C86
:100180002244B24041018280011106CE22CC0010EF
:100190000145232AA4FEEF009061593F6D2A812476
:1001A000712C038501882384A19005452391A1909A
:1001B0006F00400083D521901305F0076348B50216
:1001C0006F00400003D5219093858190AA95038507
:1001D000050013052502A380A5006F0040000395CC
:1001E000219005052391A1906FF0DFFCEF00D04F27
:1001F000B71510002326B4FE01452328A4FE23A82A
:10020000A5C0B715100023A8A5D0EF00B05273E029
:10021000107C371570001305858E8965938505A0C0
:1002200023A0A50A73F0107C052E2320B4FE23A47E
:10023000A1A0FD26832504FE938581A02322B4FE80
:100240002392A500E123032504FFB524D12E8325A5
:1002500044FE2392A500312DE126832544FE2392FE
:10026000A5006D23E92B31252925212519250325F5
:1002700004FF93858198130600082324C4FE2521DA
:100280007123032684FE032504FFC16593850500C1
:100290007D210326C4FE032504FF832506C193E5C3
:1002A00005022328B6C08965138605900C5A93E58C
:1002B00015000CDA736004302390A1906F004000A9
:1002C00083D501901305F0076343B5046F00400028
:1002D00083D50190138581982E95034505004166CD
:1002E00013060600B29583C505006309B5006F00CB
:1002F00040000145A380A1886F0040006F004000CE
:100300000395019005052390A1906FF07FFB03C535
:10031000118805898145630DB5006F00400039657E
:1003200093058583C84D13650520C8CD6F00600116
:10033000396593058583C84D13654500C8CD6F00A9
:1003400040006F0040000385018805052380A188D7
:100350001D256FF05FFF411106C622C4000873E03F
:10036000107C396593050580884551767D16718D21
:1003700088C588551365050888D5885941767D1646
:10038000718D88D9885901767D16718D88D98859E3
:100390003706FCFF7D16718D88D9C84D1365350071
:1003A000C8CDC84D1365C500C8CDC84D136505033C
:1003B000C8CDC841719913651500C8C1C8414D9990
:1003C00013654500C8C1C8411375F5FC13650501E7
:1003D000C8C173F0107C2244B240410182804111B7
:1003E00006C622C400083D65930505808851216634
:1003F000518D88D188511166518D88D18851797677
:100400001306F60F718D1365051088D18851136599
:10041000050288D1C851718D13650510C8D1C85126
:1004200013650502C8D1C851019913651500C8D1DB
:10043000014588D52244B24041018280411106C65F
:1004400022C40008396593058583884D1365050826
:1004500088CD3D66032506801375F5F72320A68019
:10046000032506804199136575002320A680032586
:1004700006801375F5FB2320A68093050680C841EE
:1004800013658500C8C1C84113654500C8C1C8418E
:1004900013651500C8C10945C8C503250680136545
:1004A00005082320A680C85513650501C8D5224438
:1004B000B24041018280411106C622C40008231BBC
:1004C000A4FE3965930585832328B4FEC84D1365C2
:1004D0000508C8CD05452520034564FF0D200355BB
:1004E00064FF1375053021811928832504FF884D89
:1004F0001365050888CD2244B24041018280411134
:1005000006C622C40008231BA4FE3D659305058092
:10051000C84113652500C8C1031564FF6205418108
:1005200088CD6F0040003D6513050580485121814D
:100530007D8981456316B5006F0040006FF0BFFEF6
:100540003D65130505804849231AA4FE034544FF71
:100550002244B24041018280011106CE22CC00101B
:100560000145232AA4FE2328A4FE2326A4FE3965E0
:10057000930585832324B4FEC84D13650508C8CDB3
:100580001305F009AD3FA920232AA4FE91202328BA
:10059000A4FE3D28832584FE2326A4FE884D1365F2
:1005A000050888CD032544FF4205832504FFA205E5
:1005B0004D8D8325C4FE4D8DB7050001FD156D8D54
:1005C000232AA4FE032544FF6244F2400561828091
:1005D000411106C622C400083D6593050580C84147
:1005E0007599C8C11305500A88CD6F0040003D655C
:1005F00013050580485121817D8981456316B50029
:100600006F0040006FF0BFFE3D651305058048494F
:10061000A30BA4FE034574FF2244B2404101828033
:10062000411106C622C40008396593058583232835
:10063000B4FEC84D13650508C8CD1545C935493FF9
:10064000832504FF231BA4FE884D1365050888CD70
:10065000C84D13650508C8CD130550034D358D3FB2
:10066000832504FF231AA4FE884D1365050888CD51
:10067000031544FF1A05231AA4FE034554FF22055F
:10068000231AA4FE034664FF031544FF3295231A80
:10069000A4FE884D1365050888CD035544FF224408
:1006A000B24041018280011106CE22CC0010232AE3
:1006B000A4FE2328B4FE2326C4FE01452322A4FE63
:1006C0002324A4FE396593058583C84D1365050869
:1006D000C8CD0D452D35034564FF1535034554FF41
:1006E000393D034544FF213D032544FE2324A4FE58
:1006F0006F004000032584FE8325C4FE6376B502A7
:100700006F004000F135832504FF13861500232870
:10071000C4FE2380A5006F004000032584FE05056C
:100720002324A4FE6FF01FFD396593058583884D52
:100730001365050888CD6244F2400561828001118D
:1007400006CE22CC0010232AA4FE2328B4FEA30741
:10075000C4FE396593058583C84D13650508C8CD6A
:100760000945713B034564FF593B034554FF413B39
:10077000034544FF693301452307A4FE6F00400091
:100780000345E4FE8345F4FE6356B5026F00400066
:10079000032504FF930515002328B4FE0345050037
:1007A000B93B6F0040000305E4FE05052307A4FEE6
:1007B0006FF01FFD396593058583884D1365050826
:1007C00088CD6244F24005618280411106C622C490
:1007D00000080145A30BA4FE3965930585832328F2
:1007E000B4FEC84D13650508C8CD1545093BCD338A
:1007F000832504FFA30BA4FE884D1365050888CD4F
:10080000034574FF2244B24041018280411106C673
:1008100022C40008396593058583232AB4FEC84D98
:1008200013650508C8CD1945D939832544FF884D7E
:100830001365050888CD2244B240410182804111F0
:1008400006C622C40008396593058583232AB4FEB1
:10085000C84D13650508C8CD130500064D31832525
:1008600044FF884D1365050888CD2244B2404101FC
:100870008280411106C622C400080145232AA4FE35
:10088000372509001305057C232AA4FE3D3FA30953
:10089000A4FE6F004000034534FF058981456301D4
:1008A000B5046F0040001537A309A4FE032544FFDB
:1008B0008145631EB5006F004000893F0145E53E5C
:1008C0008533938581A02392A5006F0060010325E5
:1008D00044FF7D15232AA4FE6F0040006FF0BFFB8C
:1008E0002244B240410182805D7186C696C49AC29C
:1008F0009EC022DE2ADC2EDA32D836D63AD43ED258
:1009000042D046CE72CC76CA7AC87EC68008396597
:100910009305858388511365450088D1993F938558
:100920008198014513060008BD3B3D659305058090
:10093000C85113650504C8D1C8511166518DC8D17D
:10094000096593050590C84113650502C8C1B24FFA
:10095000424FD24E624EF248025892572257B25638
:100960004256D2556255725486431643A642B6404B
:10097000616173002030411106C622C40008793538
:100980007D3DC53DFD35F535ED35938581980145B6
:100990002328A4FE13060008232AC4FE2933BD35EC
:1009A000032504FF032644FF93858190493B22449D
:1009B000B24041018280011106CE22CC0010232AD0
:1009C000A4FE2328B4FE2326C4FE01456244F2405F
:1009D00005618280411106C622C40008138501907A
:1009E000232AA4FE6F004000032544FF938501A243
:1009F0006371B5026F004000832544FF014588C143
:100A00006F004000032544FF1105232AA4FE6FF068
:100A1000BFFD2244B24041018280011106CE22CCAA
:100A200000103715700013050535232AA4FE416513
:100A3000130505002328A4FE138581882326A4FE20
:100A40006F004000032504FF8325C4FE6378B502D0
:100A50006F004000032544FF03050500832504FFC4
:100A60002380A500032504FF05052328A4FE0325F4
:100A700044FF0505232AA4FE6FF0DFFC6244F24028
:100A800005618280011106CE22CC0010371570005E
:100A90001305853D232AA4FE51651305050023286F
:100AA000A4FE51651305051E2326A4FE6F00400019
:100AB000032504FF8325C4FE6378B5026F00400060
:100AC000032544FF03050500832504FF2380A500BB
:100AD000032504FF05052328A4FE032544FF05057F
:100AE000232AA4FE6FF0DFFC6244F240056182809D
:100AF000011106CE22CC0010371570001305855B5E
:100B0000232AA4FE130500002328A4FE13050000D9
:100B10002326A4FE6F004000032504FF8325C4FEA6
:100B20006378B5026F004000032544FF030505000C
:100B3000832504FF2380A500032504FF0505232842
:100B4000A4FE032544FF0505232AA4FE6FF0DFFC65
:100B50006244F24005618280011106CE22CC001071
:100B6000371570001305855B232AA4FE0565130560
:100B700005802328A4FE0565130505802326A4FE11
:100B80006F004000032504FF8325C4FE6378B5028F
:100B90006F004000032544FF03050500832504FF83
:100BA0002380A500032504FF05052328A4FE0325B3
:100BB00044FF0505232AA4FE6FF0DFFC6244F240E7
:100BC00005618280411106C622C4000873E0107CD2
:100BD0003965930505C013058006A8C173F0107C24
:100BE0002244B24041018280411106C622C400085D
:100BF00073E0107C3965930505C013058002A8C118
:100C000073F0107C2244B24041018280411106C63B
:100C100022C40008453F73E0107CB96503A505C6F2
:100C20001365150023A0A5C673F0107C6533F5335A
:100C3000913D7D3D1537973091FFE780A03C6D37A2
:100C40002244B24041018280411106C622C40008FC
:100C50006F0040006F000000411106C622C400086A
:100C60006F0040006F000000411106C622C400085A
:100C70006F0040006F000000411106C622C400084A
:100C80006F0040006F000000411106C622C400083A
:100C90006F0040006F000000411106C622C400082A
:100CA0006F0040006F000000411106C622C400081A
:100CB0006F0040006F000000411106C622C400080A
:100CC0006F0040006F000000411106C622C40008FA
:100CD0006F0040006F000000411106C622C40008EA
:100CE0006F0040006F000000411106C622C40008DA
:100CF0006F0040006F000000411106C622C40008CA
:100D00006F0040006F000000411106C622C40008B9
:100D10006F0040006F000000411106C622C40008A9
:100D20006F0040006F000000411106C622C4000899
:100D30006F0040006F000000411106C622C4000889
:100D40006F0040006F000000411106C622C4000879
:100D50006F0040006F000000411106C622C4000869
:100D60006F0040006F000000411106C622C4000859
:100D70006F0040006F000000411106C622C4000849
:100D80006F0040006F000000411106C622C4000839
:100D90006F0040006F000000411106C622C4000829
:100DA0006F0040006F000000411106C622C4000819
:100DB0006F0040006F000000411106C622C4000809
:100DC0006F0040006F000000411106C622C40008F9
:100DD0006F0040006F000000411106C622C40008E9
:100DE0006F0040006F000000411106C622C40008D9
:100DF0006F0040006F000000411106C622C40008C9
:100E00006F0040006F000000411106C622C40008B8
:100E10006F0040006F000000411106C622C40008A8
:100E20006F0040006F000000411106C622C4000898
:100E30006F0040006F000000411106C622C4000888
:100E40006F0040006F000000411106C622C4000878
:100E50006F0040006F000000411106C622C4000868
:100E60006F0040006F000000411106C622C4000858
:100E70006F0040006F000000411106C622C4000848
:100E80006F0040006F000000411106C622C4000838
:100E90006F0040006F000000411106C622C4000828
:100EA0006F0040006F000000411106C622C4000818
:100EB0006F0040006F000000411106C622C4000808
:100EC0006F0040006F000000411106C622C40008F8
:100ED0006F0040006F000000411106C622C40008E8
:100EE0006F0040006F000000411106C622C40008D8
:100EF00073700430096593050590014588C588C95C
:100F000088CD88D188D588D988DDA8C1A8C5A8C9C9
:100F1000A8CDA8D1C8C5C8C9C8CDC8D1C8D5C8D959
:100F2000C8DDE8C1E8C5E8C9E8CDE8D12244B2404F
:100F300041018280011106CE22CC001037157000CD
:100F4000130545182328A4FE0965130505A02326CB
:100F5000A4FE73E0107C0145231BA4FE6F0040003B
:100F6000831564FF1305F006634BB5026F00400064
:100F7000032504FF930545002328B4FE084183257B
:100F8000C4FE138645002326C4FE88C16F004000BE
:100F9000031564FF0505231BA4FE6FF07FFC73F0AF
:100FA000107C736004306244F2400561828041111C
:100FB00006C622C400083128412A352829458D4516
:100FC000973091FFE78060068D282244B2404101AE
:100FD0008280411106C622C4000873E0107C396586
:100FE000930505C013058006A8C173F0107C224448
:100FF000B24041018280411106C622C4000873E05C
:10100000107C3965930505C0C8511375F5EFC8D13B
:10101000C8517999C8D1C8510966518DC8D1C851F4
:101020001166518DC8D1C85113650540C8D173F000
:10103000107C2244B24041018280411106C622C484
:10104000000873E0107C3966930506C0094588CD19
:10105000032506C07199136525002320A6C0884585
:101060001365850088C588451365250088C5C8496E
:1010700013651500C8C9C84913652500C8C9C84902
:1010800013654500C8C9C84913650510C8C9C849D2
:1010900013650520C8C9C84913650540C8C9C845B6
:1010A00013650510C8C5C84513651500C8C5C845F2
:1010B00013652500C8C5C84513654500C8C5C845A2
:1010C00013658500C8C5C84513650501C8C5C84571
:1010D00013650502C8C5C84513650504C8C5C849D8
:1010E0000966518DC8C988451365150088C58845AE
:1010F0001365050188C588451365054088C5884581
:101100001365051088C588451365052088C5884581
:101110001166518D88C588491365051088C98849AD
:101120001365052088C9C845518DC8C5C8452166C5
:10113000518DC8C588451365450088C573F0107C7E
:101140002244B2404101828037457A00834515BF71
:10115000898985E973E0107C8325058E17D690FF79
:10116000130646AA4CCE8325458E0CD28325858E48
:1011700039662326B6C80325C58E2328A6C873F072
:10118000107C8280480C7000580C7000B80E700003
:10119000680C7000780C7000880C7000980C70005F
:1011A000A80C7000B80C7000C80C7000D80C70004F
:1011B000E80C7000B80E7000B80E7000B80E700029
:1011C000B80E7000F80C7000080D7000180D70005B
:1011D000280D7000B80E7000B80E7000B80E7000C8
:1011E000B80E7000380D7000380D7000B80E700029
:1011F000B80E7000B80E7000B80E7000B80E700017
:10120000B80E7000480D7000B80E7000B80E700077
:10121000B80E7000B80E7000B80E7000B80E7000F6
:10122000B80E7000580D7000680D7000B80E700098
:10123000B80E7000B80E7000B80E7000B80E7000D6
:10124000B80E7000780D7000880D7000980D700059
:10125000A80D7000B80D7000C80D7000B80E7000B9
:10126000B80E7000D80D7000B80E7000B80E700087
:10127000B80E7000B80E7000B80E7000B80E700096
:10128000B80E7000E80D7000F80D7000080E7000C8
:10129000180E7000280E7000380E7000B80E700026
:1012A000B80E7000B80E7000B80E7000480E7000D6
:1012B000580E7000680E7000780E7000880E700076
:1012C000980E7000B80E7000B80E7000B80E700066
:1012D000B80E7000B80E7000B80E7000B80E700036
:1012E000B80E7000A80E7000B80E7000B80E700036
:1012F000B80E7000B80E7000B80E7000B80E700016
:10130000B80E7000C80E7000B80E7000B80E7000F5
:10131000B80E7000B80E7000B80E7000B80E7000F5
:10132000B80E7000D80E7000B80E7000B80E7000C5
:10133000B80E7000B80E7000B80E7000B80E7000D5
:04134000B80E700073
:1013500055555598567845340000000000000000AF
:10136000000000000000000000000000000000007D
:10137000000000000000000000000000000000006D
:10138000000000000000000000000000000000005D
:10139000000000000000000000000000000000004D
:1013A000000000000000000000000000000000003D
:1013B000000000000000000000000000000000002D
:1013C000000000000000000000000000000000001D
:0213D0005201C8
:1013D800411106C622C4000873E0107C37057B0063
:1013E80093050580114523A6A50A73F0107C2244B5
:1013F800B24041018280411106C622C40008231B65
:10140800A4FE231AB4FE3965130505C048411D81A1
:101418000D8981456301B5026F00400073E0107CBF
:101428003965930505C0C8411375F5E7C8C173F060
:10143800107C6F0040003965130505C008557D898B
:10144800835564FF6306B5046F00400073E0107CA9
:10145800035664FF3965930505C088557D8A01994F
:10146800518D88D573F0107C97D06E00E780A0F37B
:101478006F0040003965130505C04841058981455D
:101488006316B5006F0040006FF0DFFE6F0040008C
:10149800035544FF8545630BB5006F0040000355B5
:1014A80044FF89456316B5026F00400073E0107C65
:1014B800035644FF3965930505C0C8410D8A1E06C9
:1014C8001375F5E7518DC8C173F0107C6F004000AB
:1014D800035544FF8D45631FB5026F00400073E05C
:1014E800107C3965930505C02328B4FEC8411375DF
:1014F800F5E713650510C8C105651305157659206C
:10150800832504FFC84113650518C8C173F0107C12
:101518006F0040002244B24041018280411106C65A
:1015280022C4000873E0107C37057B009305058012
:1015380003A5850A1365150023A4A50A114523A64A
:10154800A50A05651305959D23A0A5081305702711
:1015580023A8A50A1305D04E23ACA50A3775260083
:101568001305153C23A2A50823A4A5080D6513059A
:10157800951323AAA50A73F0107C2244B2404101B6
:101588008280000031112EC8F325007C2EC6F32579
:10159800003001000B002566010073900530B2454C
:0A15A8007390057CC245510182805A
:02000004007387
:06FFE800B70070008280EA
:10FFF000FFFFFFFFFFFFFFFFFFFFFFFFFFFFFFFF11
:040000050070000087
:00000001FF
