:0200000400708A
:1000000081400141814101428142014381430144D8
:1000100081440145814501468146014781470148A8
:10002000814801498149014A814A014B814B014C78
:10003000814C014D814D014E814E014F814FF9623E
:1000400073A002308542FE0263C3020001A0970242
:1000500000009382220473905230970191FF9381A4
:10006000617A170290FF1302D27D137202FC73258E
:1000700040F185456370B5001316150132921701E2
:1000800090FF130121786111EF00E076EF006045E9
:100090006D7106C20AC40EC612C816CA1ACC1ECE8C
:1000A00022D026D22AD42ED632D836DA3ADC3EDE18
:1000B000C2C0C6C2CAC4CEC6D2C8D6CADACCDECE88
:1000C000E2D0E6D2EAD4EED6F2D8F6DAFADCFEDEF8
:1000D00073252034F32510340A86EF00204C73106A
:1000E000153489629382028073A0023092402241CB
:1000F000B2414242D2426243F243025492542255E8
:10010000B2554256D2566257F2570648964826498B
:10011000B649464AD64A664BF64B065C965C265D67
:10012000B65D465ED65E665FF65F51617300203055
:10013000411106C622C4000873E0107C05658325C2
:100140000540DD992320B5408325054093E5450012
:100150002320B54093050540C84113651500C8C16B
:10016000C84D13650502C8CDC84D1375F5FBC8CD44
:10017000C84D01991365C500C8CDE8451375F5C391
:10018000E8C5A8491375F5C313650504A8C9E8496E
:100190001375F5C313650508E8C9A84D1375F5C3B4
:1001A0001365050CA8CDE84D1375F5C3136505104F
:1001B000E8CDA8511375F5C313650514A8D1E8510E
:1001C0001375F5C313650518E8D1A8551375F5C364
:1001D0001365051CA8D5E8551375F5C313650520EF
:1001E000E8D5A8591375F5C313650524A8D9E859AE
:1001F0001375F5C313650528E8D9A85D1375F5C314
:100200001365052CA8DDE85D1375F5C3136505308E
:10021000E8DD03A505081375F5C31365053423A0B0
:10022000A50803A545081375F5C31365053823A272
:10023000A50803A585081365053C23A4A508E84582
:1002400041769306F67F758D0D6613060680518DF7
:10025000E8C5A849758D518DA8C9E849758D518D9E
:10026000E8C9A84D758D518DA8CDE84D758D518D7E
:10027000E8CDA851758D518DA8D1E851758D518D5E
:10028000E8D1A855758D518DA8D5E855758D518D3E
:10029000E8D5A859758D518DA8D9E859758D518D1E
:1002A000E8D9A85D758D518DA8DDE85D758D518DFE
:1002B000E8DD03A50508758D518D23A0A50803A5CC
:1002C0004508758D518D23A2A50803A58508758D58
:1002D000518D23A4A508E8450199E8C5A8490199CD
:1002E000A8C9E8490199E8C9A84D0199A8CDE84DE8
:1002F0000199E8CDA8510199A8D1E8510199E8D117
:10030000A8550199A8D5E8550199E8D5A8590199AA
:10031000A8D9E8590199E8D9A85D0199A8DDE85D57
:100320000199E8DD03A50508019923A0A50803A507
:100330004508019923A2A50803A58508019923A4CE
:10034000A50873F0107C2244B24041018280011163
:1003500006CE22CC2ACA2EC832C600106F0040003A
:100360000565032505403581058981456306B5008E
:100370006F0040006FF0DFFE05650326C549C165CB
:1003800023A0C5001305C549504193850500D0C180
:10039000104590C55045D0C5104990C95049D0C9A5
:1003A000104D90CD504DD0CD105190D15051D0D155
:1003B000105590D55055D0D5105990D95059D0D905
:1003C000105D90DD485DC8DD73E0107C0565930528
:1003D0000540C84513654500C8C5C84913654500B3
:1003E000C8C909659305059013050020C8C173F0BD
:1003F000107C3246C24552456244F24005617300AA
:100400002030411106C622C40008AD66938506005F
:10041000056613050677C8C91305007DC8D1130505
:1004200086BB88D5014588C9C8C5C8551375F5F37D
:1004300013650504C8D5C8551375F5FC1365050289
:10044000C8D588597D771307F73F798D1365054027
:1004500088D988591375F5CF1365052088D903A568
:10046000060071991365250023A0A60003A50600C8
:100470006D9923A0A60003A506005D9923A0A60000
:1004800003A506001375F5FC1365050123A0A6005E
:1004900003A506001375F5FB23A0A60003A506001F
:1004A0001375F5C723A0A60003A5060079771307E7
:1004B000F73F798D23A0A600E8511375F58F1365DA
:1004C0000520E8D1E85113060680518DE8D1A855E2
:1004D0001375F5CF13650510A8D52244B24041012C
:1004E0008280011106CE22CC001001452324A4FEF7
:1004F000232AA4FEB92F974091FFE78060C5412DC4
:10050000952E052E032584FE73700430B715100058
:100510002326B4FE23A8A5C0B715100023A8A5D094
:10052000652D8325C4FE73E0107C096513060590D4
:1005300041657D1548C2370570001305E5348966AD
:10054000938606A023A4A612284A1365450028CA4C
:1005500073F0107C03A505C11365052023A8A5C071
:1005600073E0107C3965930505C02328B4FE8845E7
:100570006D9988C573F0107C6935832504FF73E09D
:10058000107C88451365450088C573F0107C4D3696
:10059000736004306F0040006F000000011106CE50
:1005A00022CC0010232AA4FE2328B4FE2326C4FE56
:1005B00001456244F24005618280411106C622C4B1
:1005C0000008416513050500232AA4FE6F004000C2
:1005D000032544FF938501846371B5026F004000D9
:1005E000832544FF014588C16F004000032544FF77
:1005F0001105232AA4FE6FF0BFFD2244B240410141
:100600008280011106CE22CC001037157000130530
:1006100005FF232AA4FE4165130505002328A4FE37
:100620004165130505002326A4FE6F004000032545
:1006300004FF8325C4FE6378B5026F0040000325E4
:1006400044FF03050500832504FF2380A50003253F
:1006500004FF05052328A4FE032544FF0505232ADE
:10066000A4FE6FF0DFFC6244F2400561828001115C
:1006700006CE22CC001037157000130505FF232A83
:10068000A4FE5165130505002328A4FE516513053A
:10069000051E2326A4FE6F004000032504FF8325CA
:1006A000C4FE6378B5026F004000032544FF0305D4
:1006B0000500832504FF2380A500032504FF05050D
:1006C0002328A4FE032544FF0505232AA4FE6FF07A
:1006D000DFFC6244F24005618280011106CE22CC2B
:1006E0000010371570001305051D232AA4FE1305FD
:1006F00000002328A4FE130500002326A4FE6F009B
:100700004000032504FF8325C4FE6378B5026F0013
:100710004000032544FF03050500832504FF2380D3
:10072000A500032504FF05052328A4FE032544FF97
:100730000505232AA4FE6FF0DFFC6244F240056148
:100740008280011106CE22CC0010371570001305EF
:10075000051D232AA4FE0565130505802328A4FE94
:100760000565130505802326A4FE6F0040000325C0
:1007700004FF8325C4FE6378B5026F0040000325A3
:1007800044FF03050500832504FF2380A5000325FE
:1007900004FF05052328A4FE032544FF0505232A9D
:1007A000A4FE6FF0DFFC6244F240056182804111DB
:1007B00006C622C4000873E0107C3965930505C0A5
:1007C00013058006A8C173F0107C2244B240410199
:1007D0008280411106C622C4000873E0107C39658E
:1007E000930505C013058002A8C173F0107C224454
:1007F000B24041018280411106C622C40008453F33
:1008000073E0107CB96503A505C61365150023A028
:10081000A5C673F0107C5533ED33913D7D3D153702
:10082000973091FFE780007E6D372244B24041014E
:100830008280411106C622C4000873E0107C8565E1
:1008400003A505401166518D23A0A54073F0107CCF
:100850006F0040000565032505401181058981452C
:100860006316B5006F0040006FF0DFFE2244B24017
:1008700041018280411106C622C4000873E0107C49
:10088000396593050580C8451375F5FC13650502A8
:10089000C8C5C8451375F5CF13650520C8C5C8453B
:1008A00075767D16718D0966518DC8C5C8453706A8
:1008B000D0FF7D16718D37062000518DC8C5C84503
:1008C000370600FD7D16718D37060002518DC8C5B3
:1008D000C845370600D07D16718D37060020518D32
:1008E000C8C573F0107C2244B2404101828041119E
:1008F00006C622C400086F0040006F0000004111CE
:1009000006C622C400086F0040006F0000004111BD
:1009100006C622C400086F0040006F0000004111AD
:1009200006C622C400086F0040006F00000041119D
:1009300006C622C400086F0040006F00000041118D
:1009400006C622C400086F0040006F00000041117D
:1009500006C622C400086F0040006F00000041116D
:1009600006C622C400086F0040006F00000041115D
:1009700006C622C400086F0040006F00000041114D
:1009800006C622C400086F0040006F00000041113D
:1009900006C622C400086F0040006F00000041112D
:1009A00006C622C400086F0040006F00000041111D
:1009B00006C622C400086F0040006F00000041110D
:1009C00006C622C400086F0040006F0000004111FD
:1009D00006C622C400086F0040006F0000004111ED
:1009E00006C622C400086F0040006F0000004111DD
:1009F00006C622C400086F0040006F0000004111CD
:100A000006C622C400086F0040006F0000004111BC
:100A100006C622C400086F0040006F0000004111AC
:100A200006C622C400086F0040006F00000041119C
:100A300006C622C400086F0040006F00000041118C
:100A400006C622C400086F0040006F00000041117C
:100A500006C622C400086F0040006F00000041116C
:100A600006C622C400086F0040006F00000041115C
:100A700006C622C400086F0040006F00000041114C
:100A800006C622C400086F0040006F00000041113C
:100A900006C622C400086F0040006F00000041112C
:100AA00006C622C400086F0040006F00000041111C
:100AB00006C622C400086F0040006F00000041110C
:100AC00006C622C400086F0040006F0000004111FC
:100AD00006C622C400086F0040006F0000004111EC
:100AE00006C622C400086F0040006F0000004111DC
:100AF00006C622C400086F0040006F0000004111CC
:100B000006C622C400086F0040006F0000004111BB
:100B100006C622C400086F0040006F0000004111AB
:100B200006C622C400086F0040006F00000041119B
:100B300006C622C400086F0040006F00000041118B
:100B400006C622C400086F0040006F00000041117B
:100B500006C622C400086F0040006F00000041116B
:100B600006C622C400086F0040006F00000041115B
:100B700006C622C400086F0040006F00000041114B
:100B800006C622C400086F0040006F00000041113B
:100B900006C622C4000873E0107CB9651386058080
:100BA000085A1365150008DA085A1365250008DA93
:100BB00003A5058071991365150023A0A58003A5E1
:100BC00005804D991365450023A0A58073F0107C26
:100BD0002244B24041018280011106CE22CC001095
:100BE00037157000130585E22328A4FE0965130557
:100BF00005A02326A4FE73E0107C0145231BA4FE60
:100C00006F004000831564FF1305F006634BB502C7
:100C10006F004000032504FF930545002328B4FE20
:100C200008418325C4FE138645002326C4FE88C1DF
:100C30006F004000031564FF0505231BA4FE6FF041
:100C40007FFC73F0107C736004306244F2400561F5
:100C50008280411106C622C400083128412A352865
:100C600029458D45973091FFE780203C8D2822440F
:100C7000B24041018280411106C622C4000873E0DF
:100C8000107C3965930505C013058006A8C173F073
:100C9000107C2244B24041018280411106C622C428
:100CA000000873E0107C3965930505C0C8511375C1
:100CB000F5EFC8D1C8517999C8D1C8510966518D8D
:100CC000C8D1C8511166518DC8D1C85113650540AE
:100CD000C8D173F0107C2244B2404101828041119E
:100CE00006C622C4000873E0107C3966930506C06E
:100CF000094588CD032506C0719913652500232079
:100D0000A6C088451365850088C5884513652500FC
:100D100088C5C84913651500C8C9C84913652500A9
:100D2000C8C9C84913654500C8C9C8491365051035
:100D3000C8C9C84913650520C8C9C8491365054015
:100D4000C8C9C84513650510C8C5C8451365150051
:100D5000C8C5C84513652500C8C5C8451365450005
:100D6000C8C5C84513658500C8C5C84513650501D4
:100D7000C8C5C84513650502C8C5C845136505043F
:100D8000C8C5C8490966518DC8C98845136515008D
:100D900088C588451365050188C5884513650540E4
:100DA00088C588451365051088C5884513650520E5
:100DB00088C588451166518D88C588491365051019
:100DC00088C988491365052088C9C845518DC8C59B
:100DD000C8452166518DC8C588451365450088C53D
:100DE00073F0107C2244B2404101828037457A0082
:100DF000834515BF898985E973E0107C8325058EBD
:100E000017D690FF130606E04CCE8325458E0CD2F4
:100E10008325858E39662326B6C80325C58E2328EB
:100E2000A6C873F0107C8280EE087000FE08700087
:100E30005E0B70000E0970001E0970002E09700014
:100E40003E0970004E0970005E0970006E09700066
:100E50007E0970008E0970005E0B70005E0B7000E2
:100E60005E0B70005E0B70009E097000AE09700092
:100E7000BE097000CE0970005E0B70005E0B700042
:100E80005E0B70005E0B7000DE097000DE09700002
:100E90005E0B70005E0B70005E0B70005E0B7000EE
:100EA0005E0B70005E0B7000EE0970005E0B700050
:100EB0005E0B70005E0B70005E0B70005E0B7000CE
:100EC0005E0B70005E0B7000FE0970000E0A700071
:100ED0005E0B70005E0B70005E0B70005E0B7000AE
:100EE0005E0B70005E0B70001E0A70002E0A700010
:100EF0003E0A70004E0A70005E0A70006E0A7000B2
:100F00005E0B70005E0B70007E0A70005E0B70005E
:100F10005E0B70005E0B70005E0B70005E0B70006D
:100F20005E0B70005E0B70008E0A70009E0A7000EF
:100F3000AE0A7000BE0A7000CE0A7000DE0A7000B1
:100F40005E0B70005E0B70005E0B70005E0B70003D
:100F5000EE0A7000FE0A70000E0B70001E0B70008F
:100F60002E0B70003E0B70005E0B70005E0B70006D
:100F70005E0B70005E0B70005E0B70005E0B70000D
:100F80005E0B70005E0B70004E0B70005E0B70000D
:100F90005E0B70005E0B70005E0B70005E0B7000ED
:100FA0005E0B70005E0B70006E0B70005E0B7000CD
:100FB0005E0B70005E0B70005E0B70005E0B7000CD
:100FC0005E0B70005E0B70007E0B70005E0B70009D
:100FD0005E0B70005E0B70005E0B70005E0B7000AD
:080FE0005E0B70005E0B700057
:100FF000411106C622C4000873E0107C37057B004F
:1010000093050580114523A6A50A73F0107C2244A0
:10101000B24041018280411106C622C40008231B50
:10102000A4FE231AB4FE3965130505C048411D818D
:101030000D8981456301B5026F00400073E0107CAB
:101040003965930505C0C8411375F5E7C8C173F04C
:10105000107C6F0040003965130505C008557D8977
:10106000835564FF6306B5046F00400073E0107C95
:10107000035664FF3965930505C088557D8A01993B
:10108000518D88D573F0107C97D06E00E780E0BD5D
:101090006F0040003965130505C048410589814549
:1010A0006316B5006F0040006FF0DFFE6F00400078
:1010B000035544FF8545630BB5006F0040000355A1
:1010C00044FF89456316B5026F00400073E0107C51
:1010D000035644FF3965930505C0C8410D8A1E06B5
:1010E0001375F5E7518DC8C173F0107C6F00400097
:1010F000035544FF8D45631FB5026F00400073E048
:10110000107C3965930505C02328B4FEC8411375CA
:10111000F5E713650510C8C1056513051576592057
:10112000832504FFC84113650518C8C173F0107CFE
:101130006F0040002244B24041018280411106C646
:1011400022C4000873E0107C37057B0093050580FE
:1011500003A5850A1365150023A4A50A114523A636
:10116000A50A05651305959D23A0A50813057027FD
:1011700023A8A50A1305D04E23ACA50A377526006F
:101180001305153C23A2A50823A4A5080D65130586
:10119000951323AAA50A73F0107C2244B2404101A2
:1011A0008280000031112EC8F325007C2EC6F32565
:1011B000003001000B002566010073900530B24538
:0A11C0007390057CC2455101828046
:02000004007387
:06FFE800B70070008280EA
:10FFF000FFFFFFFFFFFFFFFFFFFFFFFFFFFFFFFF11
:040000050070000087
:00000001FF
