:02000004007C7E
:1000000081400141814101428142014381430144D8
:1000100081440145814501468146014781470148A8
:10002000814801498149014A814A014B814B014C78
:10003000814C014D814D014E814E014F814FF9623E
:1000400073A002308542FE0263C3020001A0970242
:1000500000009382220473905230970185FF9381B0
:10006000617A170284FF1302D27D137202FC73259A
:1000700040F185456370B5001316150132921701E2
:1000800084FF130121786111EF10E03DEF00301F74
:100090006D7106C20AC40EC612C816CA1ACC1ECE8C
:1000A00022D026D22AD42ED632D836DA3ADC3EDE18
:1000B000C2C0C6C2CAC4CEC6D2C8D6CADACCDECE88
:1000C000E2D0E6D2EAD4EED6F2D8F6DAFADCFEDEF8
:1000D00073252034F32510340A86EF106013731053
:1000E000153489629382028073A0023092402241CB
:1000F000B2414242D2426243F243025492542255E8
:10010000B2554256D2566257F2570648964826498B
:10011000B649464AD64A664BF64B065C965C265D67
:10012000B65D465ED65E665FF65F51617300203055
:10018000411106C622C4000873E0107C396593054E
:100190000580C8597999C8D98845719913651500A2
:1001A00088C588551365150088D5885113653500B5
:1001B00088D1C8597599C8D988454D9913654500A6
:1001C00088C588551365250088D588511365C500F5
:1001D00088D173F0107C2244B240410182804111E9
:1001E00006C622C42AC22EC000083965930585833D
:1001F000C84913650508C8C9096593050590130525
:100200000008C8C1824512452244B2404101730032
:100210002030411106C622C4000839659305054007
:10022000154588D988591306150037152707130572
:1002300005E03356C5029356760037964F011306F4
:1002400096B5B3B6C6029582ED16D4C59459850607
:100250003355D5021D813335C50215816D1588C909
:10026000C85113650502C8D1C8591166518DC8D946
:10027000C8590966518DC8D9885D518D88DD885D62
:100280001365050488DDC84113654500C8C1C84130
:1002900013650502C8C12244B24041018280411168
:1002A00006C622C40008E93D396593058583884D5B
:1002B0001365150088CD0145231AA4FE6F00400088
:1002C000835544FF2545634DB5006F0040006F0026
:1002D0004000031544FF0505231AA4FE6FF05FFEDE
:1002E000396593058583884D1365250088CD0145C3
:1002F000231AA4FE6F004000835544FF2545634D3B
:10030000B5006F0040006F004000031544FF050575
:10031000231AA4FE6FF05FFE396593058583C84DEF
:1003200013651500C8CD0145231AA4FE6F004000D7
:10033000835544FF2545634DB5006F0040006F00B5
:100340004000031544FF0505231AA4FE6FF05FFE6D
:10035000396593058583C84D13652500C8CD0145D2
:10036000231AA4FE6F004000835544FF2545634DCA
:10037000B5006F0040006F004000031544FF050505
:10038000231AA4FE6FF05FFE396593058583884DBF
:100390001365150088CD0145231AA4FE6F004000A7
:1003A000835544FF2545634DB5006F0040006F0045
:1003B0004000031544FF0505231AA4FE6FF05FFEFD
:1003C0000145231BA4FE6F004000835564FF2145B7
:1003D0006345B5086F004000396593058583884DF6
:1003E0001365250088CD0145231AA4FE6F00400047
:1003F000835544FF2545634DB5006F0040006F00F5
:100400004000031544FF0505231AA4FE6FF05FFEAC
:10041000396593058583C84D13652500C8CD014511
:10042000231AA4FE6F004000835544FF2545634D09
:10043000B5006F0040006F004000031544FF050544
:10044000231AA4FE6FF05FFE6F004000031564FFE7
:100450000505231BA4FE6FF05FF7396593058583BF
:10046000884D1365250088CD0145231AA4FE6F0031
:100470004000835544FF2545634DB5006F004000A3
:100480006F004000031544FF0505231AA4FE6FF01A
:100490005FFE396593058583C84D13651500C8CD8A
:1004A0000145231AA4FE6F004000835544FF2545F3
:1004B000634DB5006F0040006F004000031544FF1E
:1004C0000505231AA4FE6FF05FFE39659305858349
:1004D000C84D13652500C8CD0145231AA4FE6F0041
:1004E0004000835544FF2545634DB5006F00400033
:1004F0006F004000031544FF0505231AA4FE6FF0AA
:100500005FFE396593058583884D1365250088CD89
:100510000145231AA4FE6F004000835544FF254582
:10052000634DB5006F0040006F004000031544FFAD
:100530000505231AA4FE6FF05FFE396593058583D8
:10054000884D1365150088CD0145231AA4FE6F0060
:100550004000835544FF2545634DB5006F004000C2
:100560006F004000031544FF0505231AA4FE6FF039
:100570005FFE396593058583C84D13652500C8CD99
:100580000145231AA4FE6F004000835544FF254512
:10059000634DB5006F0040006F004000031544FF3D
:1005A0000505231AA4FE6FF05FFE2244B24041010C
:1005B0008280011106CE22CC00102328A4FE3965CA
:1005C0001305054048512D8105898145630BB50010
:1005D0006F004000156513055555231BA4FE6F00E1
:1005E000E00C3965130505400845318105898145D1
:1005F0006309B5006F0040000565231BA4FE6F0072
:10060000E00A032504FF03558501B965938505407C
:10061000C8CD01452317A4FE6F0040000355E4FE3A
:10062000832504FF83D5C5016359B5026F004000DF
:10063000032504FF8355E4FE86052E9503556502C8
:10064000B9659385054088D16F0040000315E4FE2D
:1006500005052317A4FE6FF07FFC032504FF035557
:10066000C501B965938505402324B4FEC8C9C851A6
:1006700013650502C8D1C85113650540C8D1C851DA
:1006800013650520C8D1C85113650501C8D1C851EB
:10069000056613060680518DC8D1C8510966518D73
:1006A000C8D10145231BA4FE6F004000035564FF21
:1006B0006244F24005618280411106C622C40008EE
:1006C000232AA4FE032544FF03558501B9659385BC
:1006D0000540C8CD032544FF0355C501C8C9C8510D
:1006E00013650502C8D1C85113650540C8D1C8516A
:1006F0001375F5DFC8D1C85113650501C8D1C851BC
:10070000056613060680518DC8D1C8510966518D02
:10071000C8D101452244B24041018280011106CE78
:1007200022CC0010A30BA4FE230BB4FE41651305DD
:1007300005092326A4FE85452328B4FE231EB50003
:10074000830574FF231CB500830564FF2313B502E2
:100750008D358325C4FE032504FF01462397C5027A
:10076000239BA5006F00400039651305054008452F
:100770001581058981456315B5046F004000416509
:10078000130505090355E50291456349B5026F005C
:10079000400031364165930505090145239BA500BD
:1007A000396593050540C851056613060680518DCD
:1007B000C8D141657D1588C56F0080006FF0DFFAF4
:1007C00039659305054088451365050288C562446F
:1007D000F24005618280011106CE22CC0010A30BED
:1007E000A4FE2328B4FE4165130505092326A4FEB3
:1007F0008545231EB500830574FF231CB5006D3DA0
:100800008325C4FE01452397A5020D45239BA50022
:100810006F004000396513050540084515810589BD
:1008200081456315B5046F00400041651305050956
:100830000355E50291456349B5026F0040008534D8
:100840004165930505090145239BA500396593057D
:100850000540C851056613060680518DC8D1416513
:100860007D1588C56F0080006FF0DFFA396593054C
:10087000054088451365050288C54165930505094E
:1008800001452397A5021145239BA5006F00400059
:10089000396513050540085D21817D898145630E19
:1008A000B5006F004000396513050540084D8325EC
:1008B00004FF2380A5006FF0BFFD6244F240056194
:1008C0008280011106CE22CC001083958188850597
:1008D0002394B18803D581889305803E6349B50090
:1008E0006F00400001452394A1886F00400023243D
:1008F000A4FE03D58188B785EB519385F551333537
:10090000B5021581C16593850500232AB4FE2E9595
:1009100083050500130550031135032584FE832547
:1009200044FF03D5818837D6CCCC1306D6CC2326FA
:10093000C4FE3335C5020D813766666613067666DA
:100940003316C5020982A9462328D4FE3306D602EF
:10095000118D2E958305050013056003C133032512
:1009600084FE0326C4FE832604FF832544FF03D5AB
:1009700081883336C5020D823306D602118D2E953D
:100980008305050013057003513B6244F240056185
:100990008280411106C622C400084165232AA4FEB4
:1009A00093050508130540023D35032544FF030563
:1009B000050893054004631BB5026F004000838562
:1009C000A18885052385B18883C5A188BD89238534
:1009D000B18803C5A188C165938505002E9583055F
:1009E0000500130540031D3B6F00400041650305F2
:1009F00005089305C0046313B5026F0040008385AA
:100A000011889385050293F5F507A380B188838546
:100A100011881305400219336F004000416503053A
:100A20000508930540056318B5046F0040000145B3
:100A30002394A1882385A18841652328A4FE8305EA
:100A4000050013054003D939032504FF830505007C
:100A500013055003E131032504FF83050500130549
:100A600060036D39032504FF83050500130570033A
:100A700075316F0040002244B24041018280011173
:100A800006CE22CC001001452324A4FE232AA4FE76
:100A9000052D192AEFF0CFEE9D23032584FEB7150F
:100AA00010002328B4FE23A8A5C0B715100023A862
:100AB000A5D0612BCD2A1385018FB705F0423706EB
:100AC0007A44952409659305058088453D9988C534
:100AD00073E0107C37157C00130525BF896593856D
:100AE00005A088CD37057C001305E51D23A0A50EC4
:100AF00073F0107CEFF0EFF1EFF06FFAC545A380D3
:100B0000B188838511881305400209394165232680
:100B1000A4FE830505001305400309310325C4FE27
:100B20008305050013055003D53E0325C4FE830548
:100B3000050013056003DD360325C4FE83050500AB
:100B400013057003E13E832504FF03A505C113656A
:100B5000150823A8A5C00965930505908845136568
:100B6000050488C5A84113651500A8C17360043049
:100B70006F0040001385018F484193058016636321
:100B8000B5026F0040009385018F0145C8C13965EA
:100B900093058583C84913650504C8C91D33D53B32
:100BA0006F0040006FF01FFD411106C622C400080F
:100BB00073E0107C396603250680D175FD156D8DB7
:100BC0002320A68093050680C85113650508C8D167
:100BD00003250680F576FD16758D2320A680C85165
:100BE00013650504C8D173F0107C2244B240410162
:100BF0008280011106CE22CC2ACA2EC832C600102D
:100C00009385018FC8410505C8C10145A305A4FE10
:100C10006F0040008345B4FE05456349B5066F008B
:100C200040000345B4FE938501810A052E950841D5
:100C30000355650181456319B5006F00400001450A
:100C40002322A4FE6F0000020345B4FE93850181B8
:100C50000A052E9508410355E50205052322A4FE49
:100C60006F004000032544FE8345B4FE13860181D6
:100C70008A05B2958C412397A5026F0040000305B9
:100C8000B4FE0505A305A4FE6FF0DFF80965930522
:100C900005900545C8C13246C24552456244F240FE
:100CA000056173002030411106C622C400080965A1
:100CB0001307058023A8E18EFD5654C3014548C79C
:100CC00010471366060110C710471366060210C7C7
:100CD0009385018FC8C189659387058123A0F19011
:100CE00089651387058223A8E190D4C354C3C8C77C
:100CF00048C7944793E6060194C7144793E6060154
:100D000014C7944793E6060294C7144793E6060275
:100D100014C71386019048C293850191C8C122442B
:100D2000B24041018280011106CE22CC0010232A5C
:100D3000A4FE2328B4FE2326C4FE032504FF832536
:100D400044FF88C50325C4FE832544FFC8C5032589
:100D500004FF8325C4FEB127EF00A07F2324A4FE57
:100D6000032584FE832544FF8C41C8C1032544FF2D
:100D70000C410145C8C5832544FF90410C4693E5CD
:100D800005010CC6832544FF90410C4693E50502FE
:100D90000CC6832544FF90410C469166D58D0CC648
:100DA000832544FFC8C16244F2400561828041113D
:100DB00006C622C400086F0040006F000000411109
:100DC00006C622C400086F0040006F0000004111F9
:100DD00006C622C400086F0040006F0000004111E9
:100DE00006C622C400086F0040006F0000004111D9
:100DF00006C622C400086F0040006F0000004111C9
:100E000006C622C400086F0040006F0000004111B8
:100E100006C622C400086F0040006F0000004111A8
:100E200006C622C400086F0040006F000000411198
:100E300006C622C400086F0040006F000000411188
:100E400006C622C400086F0040006F000000411178
:100E500006C622C400086F0040006F000000411168
:100E600006C622C400086F0040006F000000411158
:100E700006C622C400086F0040006F000000411148
:100E800006C622C400086F0040006F000000411138
:100E900006C622C400086F0040006F000000411128
:100EA00006C622C400086F0040006F000000411118
:100EB00006C622C400086F0040006F000000411108
:100EC00006C622C400086F0040006F0000004111F8
:100ED00006C622C400086F0040006F0000004111E8
:100EE00006C622C400086F0040006F0000004111D8
:100EF00006C622C400086F0040006F0000004111C8
:100F000006C622C400086F0040006F0000004111B7
:100F100006C622C400086F0040006F0000004111A7
:100F200006C622C400086F0040006F000000411197
:100F300006C622C400086F0040006F000000411187
:100F400006C622C400086F0040006F000000411177
:100F500006C622C400086F0040006F000000411167
:100F600006C622C400086F0040006F000000411157
:100F700006C622C400086F0040006F000000411147
:100F800006C622C400086F0040006F000000411137
:100F900006C622C400086F0040006F000000411127
:100FA00006C622C400086F0040006F000000411117
:100FB00006C622C400086F0040006F000000411107
:100FC00006C622C400086F0040006F0000004111F7
:100FD00006C622C400086F0040006F0000004111E7
:100FE00006C622C400086F0040006F0000004111D7
:100FF00006C622C400086F0040006F0000004111C7
:1010000006C622C400087370043009659305059074
:10101000014588C588C988CD88D188D588D988DD1B
:10102000A8C1A8C5A8C9A8CDA8D1C8C5C8C9C8CDD8
:10103000C8D1C8D5C8D9C8DDE8C1E8C5E8C9E8CD78
:10104000E8D12244B24041018280011106CE22CC77
:10105000001037157C001305055D2328A4FE0965E3
:10106000130505A02326A4FE73E0107C0145231B75
:10107000A4FE6F004000831564FF1305F006634B68
:10108000B5026F004000032504FF930545002328A7
:10109000B4FE08418325C4FE138645002326C4FE02
:1010A00088C16F004000031564FF0505231BA4FEE3
:1010B0006FF07FFC73F0107C6244F2400561828027
:1010C000411106C622C400080520C92981206545B2
:1010D00005468D46B285971085FFE780A0F28D28E2
:1010E0002244B24041018280411106C622C4000858
:1010F00073E0107C3965930505C013058006A8C10F
:1011000073F0107C2244B24041018280411106C636
:1011100022C4000873E0107C3965930505C0C851EE
:101120001375F5EFC8D1C8517999C8D1C85109666E
:10113000518DC8D1C8511166518DC8D1C8511365A0
:101140000540C8D173F0107C2244B2404101828036
:10115000411106C622C4000873E0107C396693056D
:1011600006C0094588CD032506C071991365250081
:101170002320A6C088451365850088C5C849136526
:101180001500C8C9C84913652500C8C9C8491365F1
:101190000510C8C9C84913650520C8C9C8491365E1
:1011A0000540C8C9C84513650510C8C5C8451365BD
:1011B0001500C8C5C84513652500C8C5C8451365D1
:1011C0004500C8C5C84513658500C8C5C849096636
:1011D000518DC8C988451365150088C588451365B4
:1011E000050188C588451365054088C58845136590
:1011F000051088C5C8451166518DC8C58845136559
:10120000450088C573F0107C2244B24041018280C1
:10121000011106CE22CC0010232AA4FE2328B4FEFE
:101220002326C4FE01456244F240056182804111DB
:1012300006C622C4000813850188232AA4FE6F0075
:101240004000032544FF938501926371B5026F004E
:101250004000832544FF014588C16F0040000325FD
:1012600044FF1105232AA4FE6FF0BFFD2244B240C3
:1012700041018280011106CE22CC001037157C007E
:1012800013050579232AA4FE4165130505002328CB
:10129000A4FE138581862326A4FE6F00400003254B
:1012A00004FF8325C4FE6378B5026F004000032568
:1012B00044FF03050500832504FF2380A5000325C3
:1012C00004FF05052328A4FE032544FF0505232A62
:1012D000A4FE6FF0DFFC6244F240056182800111E0
:1012E00006CE22CC001037157C001305857F232AFB
:1012F000A4FE4965130505002328A4FE49651305CE
:10130000851E2326A4FE6F004000032504FF8325CD
:10131000C4FE6378B5026F004000032544FF030557
:101320000500832504FF2380A500032504FF050590
:101330002328A4FE032544FF0505232AA4FE6FF0FD
:10134000DFFC6244F24005618280011106CE22CCAE
:10135000001037257C001305059E232AA4FE1305E3
:1013600000002328A4FE130500002326A4FE6F001E
:101370004000032504FF8325C4FE6378B5026F0097
:101380004000032544FF03050500832504FF238057
:10139000A500032504FF05052328A4FE032544FF1B
:1013A0000505232AA4FE6FF0DFFC6244F2400561CC
:1013B0008280011106CE22CC001037257C00130557
:1013C000059E232AA4FE0565130505802328A4FE97
:1013D0000565130505802326A4FE6F004000032544
:1013E00004FF8325C4FE6378B5026F004000032527
:1013F00044FF03050500832504FF2380A500032582
:1014000004FF05052328A4FE032544FF0505232A20
:10141000A4FE6FF0DFFC6244F2400561828041115E
:1014200006C622C4000873E0107C3965930505C028
:1014300013058006A8C173F0107C2244B24041011C
:101440008280411106C622C4000873E0107C396511
:10145000930505C013058002A8C173F0107C2244D7
:10146000B24041018280411106C622C40008453FB6
:1014700073E0107CB96503A505C61365150023A0AC
:10148000A5C673F0107C6533F533913D7D3D15376E
:1014900097F084FFE780E0BA6D372244B240410103
:1014A0008280370700809302F00FB347B500F98FB1
:1014B00013161500618293961500E18229CEBDC6F0
:1014C000630F56046389560636962205598DA20588
:1014D000D98DB306B5023335B502B336D000558D7C
:1014E0006344050006057D16130616F863480604D6
:1014F000FD12635F56009316850121815E063295C9
:1015000063D606000505860691E279995D8D828095
:101510003705807FE5BF638D56003E8582802605B6
:1015200001E9E39756FEA60581E5DDB7E31756FE10
:101530003705C07F8280A605E5FDD9BF050671FE8F
:101540002185930215000905E39902FC3705800007
:1015500075BF9357F5411316150093558601938572
:1015600015F863CF0500B70600807D470D8F635BDC
:10157000E0002205558D3355E5003D8D1D8D82809F
:101580000145828013C7F6FFB70500FF63F3C5006E
:10159000798D758D634305003A85828037357A00F1
:1015A000834515FF898985E573E0107C832545FC1B
:1015B00017C684FF130606654CCE832585FC0CD226
:1015C0000325C5FCB96523A6A5C873F0107C8280ED
:1015D000AE0D7C00BE0D7C00CE0F7C00CE0D7C00DD
:1015E000DE0D7C00EE0D7C00FE0D7C000E0E7C00FE
:1015F0001E0E7C002E0E7C003E0E7C004E0E7C00EB
:10160000CE0F7C00CE0F7C00CE0F7C00CE0F7C0076
:101610005E0E7C006E0E7C007E0E7C008E0E7C00CA
:10162000CE0F7C00CE0F7C00CE0F7C00CE0F7C0056
:101630009E0E7C00CE0F7C00CE0F7C00CE0F7C0077
:10164000CE0F7C00CE0F7C00CE0F7C00CE0F7C0036
:10165000AE0E7C00CE0F7C00CE0F7C00CE0F7C0047
:10166000CE0F7C00CE0F7C00CE0F7C00CE0F7C0016
:10167000BE0E7C00CE0E7C00CE0F7C00CE0F7C0018
:10168000CE0F7C00CE0F7C00CE0F7C00CE0F7C00F6
:10169000DE0E7C00EE0E7C00FE0E7C000E0F7C0049
:1016A000CE0F7C00CE0F7C00CE0F7C00CE0F7C00D6
:1016B0001E0F7C002E0F7C00CE0F7C00CE0F7C0016
:1016C000CE0F7C00CE0F7C00CE0F7C00CE0F7C00B6
:1016D0003E0F7C004E0F7C00CE0F7C00CE0F7C00B6
:1016E000CE0F7C00CE0F7C00CE0F7C00CE0F7C0096
:1016F000CE0F7C00CE0F7C005E0F7C006E0F7C0056
:101700007E0F7C008E0F7C009E0F7C00AE0F7C0055
:10171000CE0F7C00CE0F7C00CE0F7C00CE0F7C0065
:10172000CE0F7C00CE0F7C00CE0F7C00CE0F7C0055
:10173000BE0F7C00CE0F7C00CE0F7C00CE0F7C0055
:10174000CE0F7C00CE0F7C00CE0F7C00CE0F7C0035
:10175000DE0F7C00CE0F7C00CE0F7C00CE0F7C0015
:10176000CE0F7C00CE0F7C00CE0F7C00CE0F7C0015
:10177000EE0F7C00CE0F7C00CE0F7C00CE0F7C00E5
:10178000CE0F7C00CE0F7C00CE0F7C00CE0F7C00F5
:101790003F065B4F666D7D077F6F777C395E7971A1
:1017A00090000100C000010031112EC8F325007C1B
:1017B0002EC6F325003001000B0025660100739052
:1017C0000530B2457390057CC245510182804111BC
:1017D00006C622C4000873E0107C37057B00930521
:1017E0000580114523A6A50A73F0107C2244B2405F
:0417F00041018280B1
:1017F800011106CE22CC0010231BA4FE231AB4FE2E
:101808002319C4FE2318D4FE3965130505C04841C1
:101818001D810D8981456301B5026F00400073E0A9
:10182800107C3965930505C0C8411375F5E7C8C133
:1018380073F0107C6F0040003965130505C008552A
:1018480019813D89835544FF6306B5026F00400046
:1018580073E0107C035644FF3965930505C088552D
:101868003D8A1A061375F5C3518D88D573F0107C1F
:101878006F0040003965130505C0085529813D8969
:10188800835524FF6308B5026F00400073E0107CA5
:10189800035624FF3965930505C088553D8A2A06F5
:1018A800F1769386F63F758D518D88D573F0107C4F
:1018B8006F0040003965130505C008551375F50319
:1018C800835564FF630AB5026F00400073E0107C23
:1018D800035664FF3965930505C088551376F603EA
:1018E800137505FC518D88D573F0107C97F07A003C
:1018F800E780C0FE6F004000035504FF8545630B79
:10190800B5006F004000035504FF89456316B50212
:101918006F00400073E0107C035604FF396593059F
:1019280005C0C8410D8A1E061375F5E7518DC8C15B
:1019380073F0107C6F004000035504FF8D45631061
:10194800B5046F00400073E0107C3965930505C04D
:101958002326B4FEC8411375F5E713650510C8C101
:10196800056513051576EFD03FEA8325C4FEC84107
:1019780013650518C8C173F0107C6F0040006F0034
:1019880040003965130505C048410589814563163E
:10199800B5006F0040006FF0DFFE6244F240056161
:1019A8008280411106C622C4000873E0107C370506
:1019B8007B009305058003A5850A1365150023A4FC
:1019C800A50A114523A6A50A73F0107C2244B2404B
:0419D80041018280C7
:02000004007D7D
:06FFE000B7007C008280E6
:10FFF000FFFFFFFFFFFFFFFFFFFFFFFFFFFFFFFF11
:04000005007C00007B
:00000001FF
