:02000004007C7E
:1000000081400141814101428142014381430144D8
:1000100081440145814501468146014781470148A8
:10002000814801498149014A814A014B814B014C78
:10003000814C014D814D014E814E014F814FF9623E
:1000400073A002308542FE0263C3020001A0970242
:1000500000009382220473905230970185FF9381B0
:10006000617A170284FF1302D27D137202FC73259A
:1000700040F185456370B5001316150132921701E2
:1000800084FF130121786111EF007025EF00400F0C
:100090006D7106C20AC40EC612C816CA1ACC1ECE8C
:1000A00022D026D22AD42ED632D836DA3ADC3EDE18
:1000B000C2C0C6C2CAC4CEC6D2C8D6CADACCDECE88
:1000C000E2D0E6D2EAD4EED6F2D8F6DAFADCFEDEF8
:1000D00073252034F32510340A86EF00E07A73107C
:1000E000153489629382028073A0023092402241CB
:1000F000B2414242D2426243F243025492542255E8
:10010000B2554256D2566257F2570648964826498B
:10011000B649464AD64A664BF64B065C965C265D67
:10012000B65D465ED65E665FF65F51617300203055
:10018000411106C622C4000801452328A4FE232AE3
:10019000A4FE5D2373700430F929032504FFB7150D
:1001A000100023A8A5C0B715100023A8A5D0112BB7
:1001B00001282D28736004306F0040006F0000009C
:1001C000411106C622C4000873E0107C396593050E
:1001D00005808845719988C588551365150088D5AF
:1001E00073F0107C2244B24041018280411106C666
:1001F00022C400082D2213850189B705F042232867
:10020000B4FE37067A44612A832504FF0965130684
:10021000058008469166232AD4FE558D08C60846F7
:100220003D9908C61385018A3726F448130606400F
:10023000BD22032644FF09659305058188453D9944
:1002400088C58845518D88C573E0107C37057C00D2
:10025000130545298965938505A088CD37057C0060
:100260001305C52D23A0A51873F0107CB715100039
:1002700003A505C105660506518D23A8A5C009651E
:100280009305059088451365050488C52244B2404E
:1002900041018280011106CE22CC2ACA2EC832C664
:1002A0000010C165138605084842050548C203854C
:1002B0000508136515002380A50873E0107C096507
:1002C000930505900545C8C173F0107C3246C245C0
:1002D00052456244F240056173002030011106CEA0
:1002E00022CC2ACA2EC832C6001013868188484202
:1002F000050548C203858188136515002384A188FC
:1003000039659305858388511365150088D1324678
:10031000C24552456244F2400561730020304111EC
:1003200006C622C4000809651307058023A8E188D2
:10033000FD5654C3014548C710471366060110C750
:1003400010471366060210C793850189C8C18965E5
:100350009387058123A0F18A89651387058223A8E5
:10036000E18AD4C354C3C8C748C7944793E606017B
:1003700094C7144793E6060114C7944793E6060210
:1003800094C7144793E6060214C71386018A48C22D
:100390009385018BC8C12244B24041018280011182
:1003A00006CE22CC0010232AA4FE2328B4FE232646
:1003B000C4FE032504FF832544FF88C50325C4FE2E
:1003C000832544FFC8C5032504FF8325C4FEB12748
:1003D000EF00A07F2324A4FE032584FE832544FF91
:1003E0008C41C8C1032544FF0C410145C8C5832584
:1003F00044FF90410C4693E505010CC6832544FF5C
:1004000090410C4693E505020CC6832544FF9041BC
:100410000C469166D58D0CC6832544FFC8C1624445
:10042000F24005618280411106C622C400086F00B7
:1004300040006F000000411106C622C400086F0092
:1004400040006F000000411106C622C400086F0082
:1004500040006F000000411106C622C400086F0072
:1004600040006F000000411106C622C400086F0062
:1004700040006F000000411106C622C400086F0052
:1004800040006F000000411106C622C400086F0042
:1004900040006F000000411106C622C400086F0032
:1004A00040006F000000411106C622C400086F0022
:1004B00040006F000000411106C622C400086F0012
:1004C00040006F000000411106C622C400086F0002
:1004D00040006F000000411106C622C400086F00F2
:1004E00040006F000000411106C622C400086F00E2
:1004F00040006F000000411106C622C400086F00D2
:1005000040006F000000411106C622C400086F00C1
:1005100040006F000000411106C622C400086F00B1
:1005200040006F000000411106C622C400086F00A1
:1005300040006F000000411106C622C400086F0091
:1005400040006F000000411106C622C400086F0081
:1005500040006F000000411106C622C400086F0071
:1005600040006F000000411106C622C400086F0061
:1005700040006F000000411106C622C400086F0051
:1005800040006F000000411106C622C400086F0041
:1005900040006F000000411106C622C400086F0031
:1005A00040006F000000411106C622C400086F0021
:1005B00040006F000000411106C622C400086F0011
:1005C00040006F000000411106C622C400086F0001
:1005D00040006F000000411106C622C400086F00F1
:1005E00040006F000000411106C622C400086F00E1
:1005F00040006F000000411106C622C400086F00D1
:1006000040006F000000411106C622C400086F00C0
:1006100040006F000000411106C622C400086F00B0
:1006200040006F000000411106C622C400086F00A0
:1006300040006F000000411106C622C400086F0090
:1006400040006F000000411106C622C400086F0080
:1006500040006F000000411106C622C400086F0070
:1006600040006F000000411106C622C400086F0060
:1006700040006F000000411106C622C400087370DC
:100680000430096593050590014588C588C988CD62
:1006900088D188D588D988DDA8C1A8C5A8C9A8CD22
:1006A000A8D1C8C5C8C9C8CDC8D1C8D5C8D9C8DDA2
:1006B000E8C1E8C5E8C9E8CDE8D12244B24041012B
:1006C0008280011106CE22CC001037157C00130564
:1006D00005C52328A4FE0965130505A02326A4FE4D
:1006E00073E0107C0145231BA4FE6F0040008315BE
:1006F00064FF1305F006634BB5026F00400003254D
:1007000004FF930545002328B4FE08418325C4FE59
:10071000138645002326C4FE88C16F0040000315E0
:1007200064FF0505231BA4FE6FF07FFC73F0107CB3
:100730006244F24005618280411106C622C400086D
:100740000520C9298120654505468D46B28597203B
:1007500085FFE780208B8D282244B24041018280B2
:10076000411106C622C4000873E0107C3965930568
:1007700005C013058006A8C173F0107C2244B24066
:1007800041018280411106C622C4000873E0107C3A
:100790003965930505C0C8511375F5EFC8D1C85127
:1007A0007999C8D1C8510966518DC8D1C85111660F
:1007B000518DC8D1C85113650540C8D173F0107C64
:1007C0002244B24041018280411106C622C4000881
:1007D00073E0107C3966930506C0094588CD032572
:1007E00006C07199136525002320A6C088451365AE
:1007F000850088C5C84913651500C8C9C84913656F
:100800002500C8C9C84913650510C8C9C84913657A
:100810000520C8C9C84913650540C8C9C84513653E
:100820000510C8C5C84513651500C8C5C84513657A
:100830002500C8C5C84513654500C8C5C84513652A
:100840008500C8C5C8490966518DC8C98845136562
:10085000150088C588451365050188C58845136559
:10086000054088C588451365051088C5C8451166CB
:10087000518DC8C588451365450088C573F0107C47
:100880002244B24041018280011106CE22CC0010E8
:10089000232AA4FE2328B4FE2326C4FE0145624475
:1008A000F24005618280411106C622C4000813850A
:1008B0000188232AA4FE6F004000032544FF93858E
:1008C000018C6371B5026F004000832544FF014530
:1008D00088C16F004000032544FF1105232AA4FEB0
:1008E0006FF0BFFD2244B24041018280011106CE6B
:1008F00022CC001037157C00130505E1232AA4FE45
:100900004165130505002328A4FE138501852326D0
:10091000A4FE6F004000032504FF8325C4FE637816
:10092000B5026F004000032544FF03050500832541
:1009300004FF2380A500032504FF05052328A4FE4A
:10094000032544FF0505232AA4FE6FF0DFFC624463
:10095000F24005618280011106CE22CC00103715CD
:100960007C00130505E6232AA4FE4965130505004E
:100970002328A4FE49651305051E2326A4FE6F0047
:100980004000032504FF8325C4FE6378B5026F0091
:100990004000032544FF03050500832504FF238051
:1009A000A500032504FF05052328A4FE032544FF15
:1009B0000505232AA4FE6FF0DFFC6244F2400561C6
:1009C0008280011106CE22CC001037157C00130561
:1009D0000504232AA4FE130500002328A4FE130502
:1009E00000002326A4FE6F004000032504FF83259A
:1009F000C4FE6378B5026F004000032544FF030581
:100A00000500832504FF2380A500032504FF0505B9
:100A10002328A4FE032544FF0505232AA4FE6FF026
:100A2000DFFC6244F24005618280011106CE22CCD7
:100A3000001037157C0013050504232AA4FE056564
:100A4000130505802328A4FE0565130505802326CC
:100A5000A4FE6F004000032504FF8325C4FE6378D5
:100A6000B5026F004000032544FF03050500832500
:100A700004FF2380A500032504FF05052328A4FE09
:100A8000032544FF0505232AA4FE6FF0DFFC624422
:100A9000F24005618280411106C622C4000873E05D
:100AA000107C3965930505C013058006A8C173F055
:100AB000107C2244B24041018280411106C622C40A
:100AC000000873E0107C3965930505C013058002AA
:100AD000A8C173F0107C2244B240410182804111D0
:100AE00006C622C40008453F73E0107CB96503A523
:100AF00005C61365150023A0A5C673F0107C6533E9
:100B0000F533913D7D3D153797F084FFE780E05147
:100B10006D372244B2404101828037070080930242
:100B2000F00FB347B500F98F131615006182939645
:100B30001500E18229CEBDC6630F560463895606AF
:100B400036962205598DA205D98DB306B5023335E7
:100B5000B502B336D000558D6344050006057D16F9
:100B6000130616F863480604FD12635F56009316D9
:100B7000850121815E06329563D60600050586064D
:100B800091E279995D8D82803705807FE5BF638D25
:100B900056003E858280260501E9E39756FEA605AC
:100BA00081E5DDB7E31756FE3705C07F8280A605D5
:100BB000E5FDD9BF050671FE2185930215000905E3
:100BC000E39902FC3705800075BF9357F541131672
:100BD000150093558601938515F863CF0500B70678
:100BE00000807D470D8F635BE0002205558D3355F6
:100BF000E5003D8D1D8D82800145828013C7F6FF83
:100C0000B70500FF63F3C500798D758D634305005B
:100C10003A85828037357A00834515FF898985E9D1
:100C200073E0107C832505FC39662326B6C883252E
:100C300045FC97D684FF9386E6FCCCCE832585FCC5
:100C40008CD20325C5FC2322A6C673F0107C8280BB
:100C500026047C0036047C0046067C0046047C00AA
:100C600056047C0066047C0076047C0086047C00CC
:100C700096047C00A6047C00B6047C00C6047C00BC
:100C800046067C0046067C0046067C0046067C0044
:100C9000D6047C00E6047C00F6047C0006057C009B
:100CA00046067C0046067C0046067C0046067C0024
:100CB00016057C0046067C0046067C0046067C0045
:100CC00046067C0046067C0046067C0046067C0004
:100CD00026057C0046067C0046067C0046067C0015
:100CE00046067C0046067C0046067C0046067C00E4
:100CF00036057C0046057C0046067C0046067C00E6
:100D000046067C0046067C0046067C0046067C00C3
:100D100056057C0066057C0076057C0086057C0017
:100D200046067C0046067C0046067C0046067C00A3
:100D300096057C00A6057C0046067C0046067C00E5
:100D400046067C0046067C0046067C0046067C0083
:100D5000B6057C00C6057C0046067C0046067C0085
:100D600046067C0046067C0046067C0046067C0063
:100D700046067C0046067C00D6057C00E6057C0025
:100D8000F6057C0006067C0016067C0026067C0024
:100D900046067C0046067C0046067C0046067C0033
:100DA00046067C0046067C0046067C0046067C0023
:100DB00036067C0046067C0046067C0046067C0023
:100DC00046067C0046067C0046067C0046067C0003
:100DD00056067C0046067C0046067C0046067C00E3
:100DE00046067C0046067C0046067C0046067C00E3
:100DF00066067C0046067C0046067C0046067C00B3
:100E000046067C0046067C0046067C0046067C00C2
:100E100031112EC8F325007C2EC6F32500300100C9
:100E20000B002566010073900530B2457390057C78
:100E3000C24551018280411106C622C4000873E0F8
:100E4000107C37057B0093050580114523A6A50A74
:0C0E500073F0107C2244B240410182800B
:100E6000011106CE22CC0010231BA4FE231AB4FECF
:100E70002319C4FE2318D4FE3965130505C0484163
:100E80001D810D8981456301B5026F00400073E04B
:100E9000107C3965930505C0C8411375F5E7C8C1D5
:100EA00073F0107C6F0040003965130505C00855CC
:100EB00019813D89835544FF6306B5026F004000E8
:100EC00073E0107C035644FF3965930505C08855CF
:100ED0003D8A1A061375F5C3518D88D573F0107CC1
:100EE0006F0040003965130505C0085529813D890B
:100EF000835524FF6308B5026F00400073E0107C47
:100F0000035624FF3965930505C088553D8A2A0696
:100F1000F1769386F63F758D518D88D573F0107CF0
:100F20006F0040003965130505C008551375F503BA
:100F3000835564FF6306B5026F00400073E0107CC8
:100F4000035664FF3965930505C088551376F6038B
:100F5000137505FC518D88D573F0107C6F0040002F
:100F6000035504FF8545630BB5006F004000035532
:100F700004FF89456316B5026F00400073E0107CE2
:100F8000035604FF3965930505C0C8410D8A1E0646
:100F90001375F5E7518DC8C173F0107C6F004000E8
:100FA000035504FF8D456310B5046F00400073E0E6
:100FB000107C3965930505C02326B4FEC84113751E
:100FC000F5E713650510C8C1056513051576EFD063
:100FD0003FE98325C4FEC84113650518C8C173F0F5
:100FE000107C6F0040006F0040003965130505C09C
:100FF0004841058981456316B5006F0040006FF0D8
:10100000DFFE6244F24005618280411106C622C4BF
:10101000000873E0107C37057B009305058003A56D
:10102000850A1365150023A4A50A114523A6A50A60
:0C10300073F0107C2244B2404101828029
:02000004007D7D
:06FFE000B7007C008280E6
:10FFF000FFFFFFFFFFFFFFFFFFFFFFFFFFFFFFFF11
:04000005007C00007B
:00000001FF
